{
	"contracts/Job.sol": {
		"Job": {
			"abi": [
				{
					"inputs": [
						{
							"internalType": "uint256",
							"name": "",
							"type": "uint256"
						}
					],
					"name": "Jobs",
					"outputs": [
						{
							"internalType": "address",
							"name": "employer",
							"type": "address"
						},
						{
							"internalType": "string",
							"name": "JobTitle",
							"type": "string"
						},
						{
							"internalType": "string",
							"name": "JobDescription",
							"type": "string"
						},
						{
							"internalType": "string",
							"name": "RequiredQualifications",
							"type": "string"
						},
						{
							"internalType": "uint16",
							"name": "Salary",
							"type": "uint16"
						},
						{
							"internalType": "string",
							"name": "Location",
							"type": "string"
						},
						{
							"internalType": "uint8",
							"name": "minimumAge",
							"type": "uint8"
						},
						{
							"internalType": "string",
							"name": "requiredSkill",
							"type": "string"
						},
						{
							"internalType": "string",
							"name": "LastDate",
							"type": "string"
						}
					],
					"stateMutability": "view",
					"type": "function"
				},
				{
					"inputs": [],
					"name": "applicationId",
					"outputs": [
						{
							"internalType": "uint256",
							"name": "",
							"type": "uint256"
						}
					],
					"stateMutability": "view",
					"type": "function"
				},
				{
					"inputs": [
						{
							"internalType": "uint256",
							"name": "_applicantID",
							"type": "uint256"
						},
						{
							"internalType": "uint256",
							"name": "_jobId",
							"type": "uint256"
						},
						{
							"internalType": "string",
							"name": "_name",
							"type": "string"
						},
						{
							"internalType": "uint8",
							"name": "_age",
							"type": "uint8"
						},
						{
							"internalType": "string",
							"name": "_skill",
							"type": "string"
						}
					],
					"name": "applyForJob",
					"outputs": [
						{
							"internalType": "string",
							"name": "",
							"type": "string"
						},
						{
							"internalType": "uint256",
							"name": "",
							"type": "uint256"
						}
					],
					"stateMutability": "nonpayable",
					"type": "function"
				},
				{
					"inputs": [
						{
							"internalType": "uint256",
							"name": "_JobId",
							"type": "uint256"
						}
					],
					"name": "getJob",
					"outputs": [
						{
							"internalType": "string",
							"name": "JobTitle",
							"type": "string"
						},
						{
							"internalType": "string",
							"name": "JobDescrition",
							"type": "string"
						},
						{
							"internalType": "string",
							"name": "RequiredQualifications",
							"type": "string"
						},
						{
							"internalType": "uint16",
							"name": "Salary",
							"type": "uint16"
						},
						{
							"internalType": "string",
							"name": "Location",
							"type": "string"
						},
						{
							"internalType": "uint8",
							"name": "minimumAge",
							"type": "uint8"
						},
						{
							"internalType": "string",
							"name": "requiredSkill",
							"type": "string"
						},
						{
							"internalType": "string",
							"name": "LastDate",
							"type": "string"
						}
					],
					"stateMutability": "view",
					"type": "function"
				},
				{
					"inputs": [],
					"name": "jobId",
					"outputs": [
						{
							"internalType": "uint256",
							"name": "",
							"type": "uint256"
						}
					],
					"stateMutability": "view",
					"type": "function"
				},
				{
					"inputs": [
						{
							"internalType": "address",
							"name": "_employer",
							"type": "address"
						},
						{
							"internalType": "string",
							"name": "_JobTitle",
							"type": "string"
						},
						{
							"internalType": "string",
							"name": "_JobDescription",
							"type": "string"
						},
						{
							"internalType": "string",
							"name": "_RequiredQualifications",
							"type": "string"
						},
						{
							"internalType": "uint16",
							"name": "_Salary",
							"type": "uint16"
						},
						{
							"internalType": "string",
							"name": "_Location",
							"type": "string"
						},
						{
							"internalType": "uint8",
							"name": "_minimumAge",
							"type": "uint8"
						},
						{
							"internalType": "string",
							"name": "_requiredSkill",
							"type": "string"
						},
						{
							"internalType": "string",
							"name": "_LastDate",
							"type": "string"
						}
					],
					"name": "postJob",
					"outputs": [
						{
							"internalType": "uint256",
							"name": "",
							"type": "uint256"
						},
						{
							"internalType": "string",
							"name": "",
							"type": "string"
						}
					],
					"stateMutability": "nonpayable",
					"type": "function"
				}
			],
			"devdoc": {
				"kind": "dev",
				"methods": {},
				"version": 1
			},
			"evm": {
				"assembly": "    /* \"contracts/Job.sol\":59:3005  contract Job {... */\n  mstore(0x40, 0x80)\n  callvalue\n  dup1\n  iszero\n  tag_1\n  jumpi\n  0x00\n  dup1\n  revert\ntag_1:\n  pop\n  dataSize(sub_0)\n  dup1\n  dataOffset(sub_0)\n  0x00\n  codecopy\n  0x00\n  return\nstop\n\nsub_0: assembly {\n        /* \"contracts/Job.sol\":59:3005  contract Job {... */\n      mstore(0x40, 0x80)\n      callvalue\n      dup1\n      iszero\n      tag_1\n      jumpi\n      0x00\n      dup1\n      revert\n    tag_1:\n      pop\n      jumpi(tag_2, lt(calldatasize, 0x04))\n      shr(0xe0, calldataload(0x00))\n      dup1\n      0x2cc772f0\n      eq\n      tag_3\n      jumpi\n      dup1\n      0x8ad10419\n      eq\n      tag_4\n      jumpi\n      dup1\n      0xb144f378\n      eq\n      tag_5\n      jumpi\n      dup1\n      0xbf22c457\n      eq\n      tag_6\n      jumpi\n      dup1\n      0xc2939d97\n      eq\n      tag_7\n      jumpi\n      dup1\n      0xe8b780cf\n      eq\n      tag_8\n      jumpi\n    tag_2:\n      0x00\n      dup1\n      revert\n        /* \"contracts/Job.sol\":604:628  JobPosting[] public Jobs */\n    tag_3:\n      tag_9\n      0x04\n      dup1\n      calldatasize\n      sub\n      dup2\n      add\n      swap1\n      tag_10\n      swap2\n      swap1\n      tag_11\n      jump\t// in\n    tag_10:\n      tag_12\n      jump\t// in\n    tag_9:\n      mload(0x40)\n      tag_13\n      swap10\n      swap9\n      swap8\n      swap7\n      swap6\n      swap5\n      swap4\n      swap3\n      swap2\n      swap1\n      tag_14\n      jump\t// in\n    tag_13:\n      mload(0x40)\n      dup1\n      swap2\n      sub\n      swap1\n      return\n        /* \"contracts/Job.sol\":659:684  uint public applicationId */\n    tag_4:\n      tag_15\n      tag_16\n      jump\t// in\n    tag_15:\n      mload(0x40)\n      tag_17\n      swap2\n      swap1\n      tag_18\n      jump\t// in\n    tag_17:\n      mload(0x40)\n      dup1\n      swap2\n      sub\n      swap1\n      return\n        /* \"contracts/Job.sol\":2134:2998  function applyForJob(... */\n    tag_5:\n      tag_19\n      0x04\n      dup1\n      calldatasize\n      sub\n      dup2\n      add\n      swap1\n      tag_20\n      swap2\n      swap1\n      tag_21\n      jump\t// in\n    tag_20:\n      tag_22\n      jump\t// in\n    tag_19:\n      mload(0x40)\n      tag_23\n      swap3\n      swap2\n      swap1\n      tag_24\n      jump\t// in\n    tag_23:\n      mload(0x40)\n      dup1\n      swap2\n      sub\n      swap1\n      return\n        /* \"contracts/Job.sol\":1460:2126  function getJob(uint _JobId) public view returns(... */\n    tag_6:\n      tag_25\n      0x04\n      dup1\n      calldatasize\n      sub\n      dup2\n      add\n      swap1\n      tag_26\n      swap2\n      swap1\n      tag_11\n      jump\t// in\n    tag_26:\n      tag_27\n      jump\t// in\n    tag_25:\n      mload(0x40)\n      tag_28\n      swap9\n      swap8\n      swap7\n      swap6\n      swap5\n      swap4\n      swap3\n      swap2\n      swap1\n      tag_29\n      jump\t// in\n    tag_28:\n      mload(0x40)\n      dup1\n      swap2\n      sub\n      swap1\n      return\n        /* \"contracts/Job.sol\":635:652  uint public jobId */\n    tag_7:\n      tag_30\n      tag_31\n      jump\t// in\n    tag_30:\n      mload(0x40)\n      tag_32\n      swap2\n      swap1\n      tag_18\n      jump\t// in\n    tag_32:\n      mload(0x40)\n      dup1\n      swap2\n      sub\n      swap1\n      return\n        /* \"contracts/Job.sol\":693:1452  function postJob(... */\n    tag_8:\n      tag_33\n      0x04\n      dup1\n      calldatasize\n      sub\n      dup2\n      add\n      swap1\n      tag_34\n      swap2\n      swap1\n      tag_35\n      jump\t// in\n    tag_34:\n      tag_36\n      jump\t// in\n    tag_33:\n      mload(0x40)\n      tag_37\n      swap3\n      swap2\n      swap1\n      tag_38\n      jump\t// in\n    tag_37:\n      mload(0x40)\n      dup1\n      swap2\n      sub\n      swap1\n      return\n        /* \"contracts/Job.sol\":604:628  JobPosting[] public Jobs */\n    tag_12:\n      0x02\n      dup2\n      dup2\n      sload\n      dup2\n      lt\n      tag_39\n      jumpi\n      0x00\n      dup1\n      revert\n    tag_39:\n      swap1\n      0x00\n      mstore\n      keccak256(0x00, 0x20)\n      swap1\n      0x09\n      mul\n      add\n      0x00\n      swap2\n      pop\n      swap1\n      pop\n      dup1\n      0x00\n      add\n      0x00\n      swap1\n      sload\n      swap1\n      0x0100\n      exp\n      swap1\n      div\n      0xffffffffffffffffffffffffffffffffffffffff\n      and\n      swap1\n      dup1\n      0x01\n      add\n      dup1\n      sload\n      tag_41\n      swap1\n      tag_42\n      jump\t// in\n    tag_41:\n      dup1\n      0x1f\n      add\n      0x20\n      dup1\n      swap2\n      div\n      mul\n      0x20\n      add\n      mload(0x40)\n      swap1\n      dup2\n      add\n      0x40\n      mstore\n      dup1\n      swap3\n      swap2\n      swap1\n      dup2\n      dup2\n      mstore\n      0x20\n      add\n      dup3\n      dup1\n      sload\n      tag_43\n      swap1\n      tag_42\n      jump\t// in\n    tag_43:\n      dup1\n      iszero\n      tag_44\n      jumpi\n      dup1\n      0x1f\n      lt\n      tag_45\n      jumpi\n      0x0100\n      dup1\n      dup4\n      sload\n      div\n      mul\n      dup4\n      mstore\n      swap2\n      0x20\n      add\n      swap2\n      jump(tag_44)\n    tag_45:\n      dup3\n      add\n      swap2\n      swap1\n      0x00\n      mstore\n      keccak256(0x00, 0x20)\n      swap1\n    tag_46:\n      dup2\n      sload\n      dup2\n      mstore\n      swap1\n      0x01\n      add\n      swap1\n      0x20\n      add\n      dup1\n      dup4\n      gt\n      tag_46\n      jumpi\n      dup3\n      swap1\n      sub\n      0x1f\n      and\n      dup3\n      add\n      swap2\n    tag_44:\n      pop\n      pop\n      pop\n      pop\n      pop\n      swap1\n      dup1\n      0x02\n      add\n      dup1\n      sload\n      tag_47\n      swap1\n      tag_42\n      jump\t// in\n    tag_47:\n      dup1\n      0x1f\n      add\n      0x20\n      dup1\n      swap2\n      div\n      mul\n      0x20\n      add\n      mload(0x40)\n      swap1\n      dup2\n      add\n      0x40\n      mstore\n      dup1\n      swap3\n      swap2\n      swap1\n      dup2\n      dup2\n      mstore\n      0x20\n      add\n      dup3\n      dup1\n      sload\n      tag_48\n      swap1\n      tag_42\n      jump\t// in\n    tag_48:\n      dup1\n      iszero\n      tag_49\n      jumpi\n      dup1\n      0x1f\n      lt\n      tag_50\n      jumpi\n      0x0100\n      dup1\n      dup4\n      sload\n      div\n      mul\n      dup4\n      mstore\n      swap2\n      0x20\n      add\n      swap2\n      jump(tag_49)\n    tag_50:\n      dup3\n      add\n      swap2\n      swap1\n      0x00\n      mstore\n      keccak256(0x00, 0x20)\n      swap1\n    tag_51:\n      dup2\n      sload\n      dup2\n      mstore\n      swap1\n      0x01\n      add\n      swap1\n      0x20\n      add\n      dup1\n      dup4\n      gt\n      tag_51\n      jumpi\n      dup3\n      swap1\n      sub\n      0x1f\n      and\n      dup3\n      add\n      swap2\n    tag_49:\n      pop\n      pop\n      pop\n      pop\n      pop\n      swap1\n      dup1\n      0x03\n      add\n      dup1\n      sload\n      tag_52\n      swap1\n      tag_42\n      jump\t// in\n    tag_52:\n      dup1\n      0x1f\n      add\n      0x20\n      dup1\n      swap2\n      div\n      mul\n      0x20\n      add\n      mload(0x40)\n      swap1\n      dup2\n      add\n      0x40\n      mstore\n      dup1\n      swap3\n      swap2\n      swap1\n      dup2\n      dup2\n      mstore\n      0x20\n      add\n      dup3\n      dup1\n      sload\n      tag_53\n      swap1\n      tag_42\n      jump\t// in\n    tag_53:\n      dup1\n      iszero\n      tag_54\n      jumpi\n      dup1\n      0x1f\n      lt\n      tag_55\n      jumpi\n      0x0100\n      dup1\n      dup4\n      sload\n      div\n      mul\n      dup4\n      mstore\n      swap2\n      0x20\n      add\n      swap2\n      jump(tag_54)\n    tag_55:\n      dup3\n      add\n      swap2\n      swap1\n      0x00\n      mstore\n      keccak256(0x00, 0x20)\n      swap1\n    tag_56:\n      dup2\n      sload\n      dup2\n      mstore\n      swap1\n      0x01\n      add\n      swap1\n      0x20\n      add\n      dup1\n      dup4\n      gt\n      tag_56\n      jumpi\n      dup3\n      swap1\n      sub\n      0x1f\n      and\n      dup3\n      add\n      swap2\n    tag_54:\n      pop\n      pop\n      pop\n      pop\n      pop\n      swap1\n      dup1\n      0x04\n      add\n      0x00\n      swap1\n      sload\n      swap1\n      0x0100\n      exp\n      swap1\n      div\n      0xffff\n      and\n      swap1\n      dup1\n      0x05\n      add\n      dup1\n      sload\n      tag_57\n      swap1\n      tag_42\n      jump\t// in\n    tag_57:\n      dup1\n      0x1f\n      add\n      0x20\n      dup1\n      swap2\n      div\n      mul\n      0x20\n      add\n      mload(0x40)\n      swap1\n      dup2\n      add\n      0x40\n      mstore\n      dup1\n      swap3\n      swap2\n      swap1\n      dup2\n      dup2\n      mstore\n      0x20\n      add\n      dup3\n      dup1\n      sload\n      tag_58\n      swap1\n      tag_42\n      jump\t// in\n    tag_58:\n      dup1\n      iszero\n      tag_59\n      jumpi\n      dup1\n      0x1f\n      lt\n      tag_60\n      jumpi\n      0x0100\n      dup1\n      dup4\n      sload\n      div\n      mul\n      dup4\n      mstore\n      swap2\n      0x20\n      add\n      swap2\n      jump(tag_59)\n    tag_60:\n      dup3\n      add\n      swap2\n      swap1\n      0x00\n      mstore\n      keccak256(0x00, 0x20)\n      swap1\n    tag_61:\n      dup2\n      sload\n      dup2\n      mstore\n      swap1\n      0x01\n      add\n      swap1\n      0x20\n      add\n      dup1\n      dup4\n      gt\n      tag_61\n      jumpi\n      dup3\n      swap1\n      sub\n      0x1f\n      and\n      dup3\n      add\n      swap2\n    tag_59:\n      pop\n      pop\n      pop\n      pop\n      pop\n      swap1\n      dup1\n      0x06\n      add\n      0x00\n      swap1\n      sload\n      swap1\n      0x0100\n      exp\n      swap1\n      div\n      0xff\n      and\n      swap1\n      dup1\n      0x07\n      add\n      dup1\n      sload\n      tag_62\n      swap1\n      tag_42\n      jump\t// in\n    tag_62:\n      dup1\n      0x1f\n      add\n      0x20\n      dup1\n      swap2\n      div\n      mul\n      0x20\n      add\n      mload(0x40)\n      swap1\n      dup2\n      add\n      0x40\n      mstore\n      dup1\n      swap3\n      swap2\n      swap1\n      dup2\n      dup2\n      mstore\n      0x20\n      add\n      dup3\n      dup1\n      sload\n      tag_63\n      swap1\n      tag_42\n      jump\t// in\n    tag_63:\n      dup1\n      iszero\n      tag_64\n      jumpi\n      dup1\n      0x1f\n      lt\n      tag_65\n      jumpi\n      0x0100\n      dup1\n      dup4\n      sload\n      div\n      mul\n      dup4\n      mstore\n      swap2\n      0x20\n      add\n      swap2\n      jump(tag_64)\n    tag_65:\n      dup3\n      add\n      swap2\n      swap1\n      0x00\n      mstore\n      keccak256(0x00, 0x20)\n      swap1\n    tag_66:\n      dup2\n      sload\n      dup2\n      mstore\n      swap1\n      0x01\n      add\n      swap1\n      0x20\n      add\n      dup1\n      dup4\n      gt\n      tag_66\n      jumpi\n      dup3\n      swap1\n      sub\n      0x1f\n      and\n      dup3\n      add\n      swap2\n    tag_64:\n      pop\n      pop\n      pop\n      pop\n      pop\n      swap1\n      dup1\n      0x08\n      add\n      dup1\n      sload\n      tag_67\n      swap1\n      tag_42\n      jump\t// in\n    tag_67:\n      dup1\n      0x1f\n      add\n      0x20\n      dup1\n      swap2\n      div\n      mul\n      0x20\n      add\n      mload(0x40)\n      swap1\n      dup2\n      add\n      0x40\n      mstore\n      dup1\n      swap3\n      swap2\n      swap1\n      dup2\n      dup2\n      mstore\n      0x20\n      add\n      dup3\n      dup1\n      sload\n      tag_68\n      swap1\n      tag_42\n      jump\t// in\n    tag_68:\n      dup1\n      iszero\n      tag_69\n      jumpi\n      dup1\n      0x1f\n      lt\n      tag_70\n      jumpi\n      0x0100\n      dup1\n      dup4\n      sload\n      div\n      mul\n      dup4\n      mstore\n      swap2\n      0x20\n      add\n      swap2\n      jump(tag_69)\n    tag_70:\n      dup3\n      add\n      swap2\n      swap1\n      0x00\n      mstore\n      keccak256(0x00, 0x20)\n      swap1\n    tag_71:\n      dup2\n      sload\n      dup2\n      mstore\n      swap1\n      0x01\n      add\n      swap1\n      0x20\n      add\n      dup1\n      dup4\n      gt\n      tag_71\n      jumpi\n      dup3\n      swap1\n      sub\n      0x1f\n      and\n      dup3\n      add\n      swap2\n    tag_69:\n      pop\n      pop\n      pop\n      pop\n      pop\n      swap1\n      pop\n      dup10\n      jump\t// out\n        /* \"contracts/Job.sol\":659:684  uint public applicationId */\n    tag_16:\n      sload(0x04)\n      dup2\n      jump\t// out\n        /* \"contracts/Job.sol\":2134:2998  function applyForJob(... */\n    tag_22:\n        /* \"contracts/Job.sol\":2314:2327  string memory */\n      0x60\n        /* \"contracts/Job.sol\":2329:2333  uint */\n      0x00\n        /* \"contracts/Job.sol\":2352:2365  applicationId */\n      0x04\n      0x00\n        /* \"contracts/Job.sol\":2352:2368  applicationId ++ */\n      dup2\n      sload\n      dup1\n      swap3\n      swap2\n      swap1\n      tag_73\n      swap1\n      tag_74\n      jump\t// in\n    tag_73:\n      swap2\n      swap1\n      pop\n      sstore\n      pop\n        /* \"contracts/Job.sol\":2405:2406  0 */\n      0x00\n        /* \"contracts/Job.sol\":2391:2403  _applicantID */\n      dup8\n        /* \"contracts/Job.sol\":2391:2406  _applicantID >0 */\n      gt\n        /* \"contracts/Job.sol\":2383:2440  require(_applicantID >0, \"Invalid Input application id\" ) */\n      tag_75\n      jumpi\n      mload(0x40)\n      0x08c379a000000000000000000000000000000000000000000000000000000000\n      dup2\n      mstore\n      0x04\n      add\n      tag_76\n      swap1\n      tag_77\n      jump\t// in\n    tag_76:\n      mload(0x40)\n      dup1\n      swap2\n      sub\n      swap1\n      revert\n    tag_75:\n        /* \"contracts/Job.sol\":2473:2478  jobId */\n      sload(0x03)\n        /* \"contracts/Job.sol\":2463:2469  _jobId */\n      dup7\n        /* \"contracts/Job.sol\":2463:2478  _jobId <= jobId */\n      gt\n      iszero\n        /* \"contracts/Job.sol\":2455:2497  require(_jobId <= jobId, \"Invalid Job ID\") */\n      tag_78\n      jumpi\n      mload(0x40)\n      0x08c379a000000000000000000000000000000000000000000000000000000000\n      dup2\n      mstore\n      0x04\n      add\n      tag_79\n      swap1\n      tag_80\n      jump\t// in\n    tag_79:\n      mload(0x40)\n      dup1\n      swap2\n      sub\n      swap1\n      revert\n    tag_78:\n        /* \"contracts/Job.sol\":2514:2540  JobPosting storage JobPost */\n      0x00\n        /* \"contracts/Job.sol\":2544:2551  JobList */\n      dup1\n        /* \"contracts/Job.sol\":2544:2559  JobList[_jobId] */\n      0x00\n        /* \"contracts/Job.sol\":2552:2558  _jobId */\n      dup9\n        /* \"contracts/Job.sol\":2544:2559  JobList[_jobId] */\n      dup2\n      mstore\n      0x20\n      add\n      swap1\n      dup2\n      mstore\n      0x20\n      add\n      0x00\n      keccak256\n        /* \"contracts/Job.sol\":2514:2559  JobPosting storage JobPost =  JobList[_jobId] */\n      swap1\n      pop\n        /* \"contracts/Job.sol\":2590:2597  JobPost */\n      dup1\n        /* \"contracts/Job.sol\":2590:2608  JobPost.minimumAge */\n      0x06\n      add\n      0x00\n      swap1\n      sload\n      swap1\n      0x0100\n      exp\n      swap1\n      div\n      0xff\n      and\n        /* \"contracts/Job.sol\":2582:2608  _age >= JobPost.minimumAge */\n      0xff\n      and\n        /* \"contracts/Job.sol\":2582:2586  _age */\n      dup6\n        /* \"contracts/Job.sol\":2582:2608  _age >= JobPost.minimumAge */\n      0xff\n      and\n      lt\n      iszero\n        /* \"contracts/Job.sol\":2574:2631  require(_age >= JobPost.minimumAge, \"Underage candidate\") */\n      tag_81\n      jumpi\n      mload(0x40)\n      0x08c379a000000000000000000000000000000000000000000000000000000000\n      dup2\n      mstore\n      0x04\n      add\n      tag_82\n      swap1\n      tag_83\n      jump\t// in\n    tag_82:\n      mload(0x40)\n      dup1\n      swap2\n      sub\n      swap1\n      revert\n    tag_81:\n        /* \"contracts/Job.sol\":2720:2727  JobPost */\n      dup1\n        /* \"contracts/Job.sol\":2720:2741  JobPost.requiredSkill */\n      0x07\n      add\n        /* \"contracts/Job.sol\":2703:2742  abi.encodePacked(JobPost.requiredSkill) */\n      add(0x20, mload(0x40))\n      tag_84\n      swap2\n      swap1\n      tag_85\n      jump\t// in\n    tag_84:\n      mload(0x40)\n      0x20\n      dup2\n      dup4\n      sub\n      sub\n      dup2\n      mstore\n      swap1\n      0x40\n      mstore\n        /* \"contracts/Job.sol\":2693:2743  keccak256(abi.encodePacked(JobPost.requiredSkill)) */\n      dup1\n      mload\n      swap1\n      0x20\n      add\n      keccak256\n        /* \"contracts/Job.sol\":2681:2687  _skill */\n      dup5\n        /* \"contracts/Job.sol\":2664:2688  abi.encodePacked(_skill) */\n      add(0x20, mload(0x40))\n      tag_86\n      swap2\n      swap1\n      tag_87\n      jump\t// in\n    tag_86:\n      mload(0x40)\n      0x20\n      dup2\n      dup4\n      sub\n      sub\n      dup2\n      mstore\n      swap1\n      0x40\n      mstore\n        /* \"contracts/Job.sol\":2654:2689  keccak256(abi.encodePacked(_skill)) */\n      dup1\n      mload\n      swap1\n      0x20\n      add\n      keccak256\n        /* \"contracts/Job.sol\":2654:2743  keccak256(abi.encodePacked(_skill)) == keccak256(abi.encodePacked(JobPost.requiredSkill)) */\n      eq\n        /* \"contracts/Job.sol\":2646:2767  require(keccak256(abi.encodePacked(_skill)) == keccak256(abi.encodePacked(JobPost.requiredSkill)), \"Skills do not match\") */\n      tag_88\n      jumpi\n      mload(0x40)\n      0x08c379a000000000000000000000000000000000000000000000000000000000\n      dup2\n      mstore\n      0x04\n      add\n      tag_89\n      swap1\n      tag_90\n      jump\t// in\n    tag_89:\n      mload(0x40)\n      dup1\n      swap2\n      sub\n      swap1\n      revert\n    tag_88:\n        /* \"contracts/Job.sol\":2784:2814  jobApplication memory newApply */\n      0x00\n        /* \"contracts/Job.sol\":2817:2866  jobApplication(_applicantID, _name, _age, _skill) */\n      mload(0x40)\n      dup1\n      0x80\n      add\n      0x40\n      mstore\n      dup1\n        /* \"contracts/Job.sol\":2832:2844  _applicantID */\n      dup11\n        /* \"contracts/Job.sol\":2817:2866  jobApplication(_applicantID, _name, _age, _skill) */\n      dup2\n      mstore\n      0x20\n      add\n        /* \"contracts/Job.sol\":2846:2851  _name */\n      dup9\n        /* \"contracts/Job.sol\":2817:2866  jobApplication(_applicantID, _name, _age, _skill) */\n      dup2\n      mstore\n      0x20\n      add\n        /* \"contracts/Job.sol\":2853:2857  _age */\n      dup8\n        /* \"contracts/Job.sol\":2817:2866  jobApplication(_applicantID, _name, _age, _skill) */\n      0xff\n      and\n      dup2\n      mstore\n      0x20\n      add\n        /* \"contracts/Job.sol\":2859:2865  _skill */\n      dup7\n        /* \"contracts/Job.sol\":2817:2866  jobApplication(_applicantID, _name, _age, _skill) */\n      dup2\n      mstore\n      pop\n        /* \"contracts/Job.sol\":2784:2866  jobApplication memory newApply = jobApplication(_applicantID, _name, _age, _skill) */\n      swap1\n      pop\n        /* \"contracts/Job.sol\":2881:2896  jobApplications */\n      0x01\n        /* \"contracts/Job.sol\":2881:2904  jobApplications[_jobId] */\n      0x00\n        /* \"contracts/Job.sol\":2897:2903  _jobId */\n      dup10\n        /* \"contracts/Job.sol\":2881:2904  jobApplications[_jobId] */\n      dup2\n      mstore\n      0x20\n      add\n      swap1\n      dup2\n      mstore\n      0x20\n      add\n      0x00\n      keccak256\n        /* \"contracts/Job.sol\":2910:2918  newApply */\n      dup2\n        /* \"contracts/Job.sol\":2881:2919  jobApplications[_jobId].push(newApply) */\n      swap1\n      dup1\n      0x01\n      dup2\n      sload\n      add\n      dup1\n      dup3\n      sstore\n      dup1\n      swap2\n      pop\n      pop\n      0x01\n      swap1\n      sub\n      swap1\n      0x00\n      mstore\n      keccak256(0x00, 0x20)\n      swap1\n      0x04\n      mul\n      add\n      0x00\n      swap1\n      swap2\n      swap1\n      swap2\n      swap1\n      swap2\n      pop\n      0x00\n      dup3\n      add\n      mload\n      dup2\n      0x00\n      add\n      sstore\n      0x20\n      dup3\n      add\n      mload\n      dup2\n      0x01\n      add\n      swap1\n      dup2\n      tag_92\n      swap2\n      swap1\n      tag_93\n      jump\t// in\n    tag_92:\n      pop\n      0x40\n      dup3\n      add\n      mload\n      dup2\n      0x02\n      add\n      exp(0x0100, 0x00)\n      dup2\n      sload\n      dup2\n      0xff\n      mul\n      not\n      and\n      swap1\n      dup4\n      0xff\n      and\n      mul\n      or\n      swap1\n      sstore\n      pop\n      0x60\n      dup3\n      add\n      mload\n      dup2\n      0x03\n      add\n      swap1\n      dup2\n      tag_94\n      swap2\n      swap1\n      tag_93\n      jump\t// in\n    tag_94:\n      pop\n      pop\n      pop\n        /* \"contracts/Job.sol\":2970:2983  applicationId */\n      sload(0x04)\n        /* \"contracts/Job.sol\":2936:2984  return (\"Application successfull\",applicationId) */\n      mload(0x40)\n      dup1\n      0x40\n      add\n      0x40\n      mstore\n      dup1\n      0x17\n      dup2\n      mstore\n      0x20\n      add\n      0x4170706c69636174696f6e207375636365737366756c6c000000000000000000\n      dup2\n      mstore\n      pop\n      swap1\n      swap4\n      pop\n      swap4\n      pop\n      pop\n      pop\n        /* \"contracts/Job.sol\":2134:2998  function applyForJob(... */\n      swap6\n      pop\n      swap6\n      swap4\n      pop\n      pop\n      pop\n      pop\n      jump\t// out\n        /* \"contracts/Job.sol\":1460:2126  function getJob(uint _JobId) public view returns(... */\n    tag_27:\n        /* \"contracts/Job.sol\":1519:1541  string memory JobTitle */\n      0x60\n        /* \"contracts/Job.sol\":1552:1579  string memory JobDescrition */\n      dup1\n        /* \"contracts/Job.sol\":1590:1626  string memory RequiredQualifications */\n      0x60\n        /* \"contracts/Job.sol\":1637:1650  uint16 Salary */\n      0x00\n        /* \"contracts/Job.sol\":1661:1683  string memory Location */\n      0x60\n        /* \"contracts/Job.sol\":1694:1710  uint8 minimumAge */\n      0x00\n        /* \"contracts/Job.sol\":1721:1748  string memory requiredSkill */\n      0x60\n        /* \"contracts/Job.sol\":1759:1781  string memory LastDate */\n      dup1\n        /* \"contracts/Job.sol\":1800:1826  JobPosting storage JobPost */\n      0x00\n        /* \"contracts/Job.sol\":1829:1836  JobList */\n      dup1\n        /* \"contracts/Job.sol\":1829:1844  JobList[_JobId] */\n      0x00\n        /* \"contracts/Job.sol\":1837:1843  _JobId */\n      dup12\n        /* \"contracts/Job.sol\":1829:1844  JobList[_JobId] */\n      dup2\n      mstore\n      0x20\n      add\n      swap1\n      dup2\n      mstore\n      0x20\n      add\n      0x00\n      keccak256\n        /* \"contracts/Job.sol\":1800:1844  JobPosting storage JobPost = JobList[_JobId] */\n      swap1\n      pop\n        /* \"contracts/Job.sol\":1873:1880  JobPost */\n      dup1\n        /* \"contracts/Job.sol\":1873:1889  JobPost.JobTitle */\n      0x01\n      add\n        /* \"contracts/Job.sol\":1901:1908  JobPost */\n      dup2\n        /* \"contracts/Job.sol\":1901:1923  JobPost.JobDescription */\n      0x02\n      add\n        /* \"contracts/Job.sol\":1935:1942  JobPost */\n      dup3\n        /* \"contracts/Job.sol\":1935:1965  JobPost.RequiredQualifications */\n      0x03\n      add\n        /* \"contracts/Job.sol\":1976:1983  JobPost */\n      dup4\n        /* \"contracts/Job.sol\":1976:1990  JobPost.Salary */\n      0x04\n      add\n      0x00\n      swap1\n      sload\n      swap1\n      0x0100\n      exp\n      swap1\n      div\n      0xffff\n      and\n        /* \"contracts/Job.sol\":2001:2008  JobPost */\n      dup5\n        /* \"contracts/Job.sol\":2001:2017  JobPost.Location */\n      0x05\n      add\n        /* \"contracts/Job.sol\":2028:2035  JobPost */\n      dup6\n        /* \"contracts/Job.sol\":2028:2046  JobPost.minimumAge */\n      0x06\n      add\n      0x00\n      swap1\n      sload\n      swap1\n      0x0100\n      exp\n      swap1\n      div\n      0xff\n      and\n        /* \"contracts/Job.sol\":2057:2064  JobPost */\n      dup7\n        /* \"contracts/Job.sol\":2057:2078  JobPost.requiredSkill */\n      0x07\n      add\n        /* \"contracts/Job.sol\":2089:2096  JobPost */\n      dup8\n        /* \"contracts/Job.sol\":2089:2105  JobPost.LastDate */\n      0x08\n      add\n        /* \"contracts/Job.sol\":1855:2116  return (... */\n      dup8\n      dup1\n      sload\n      tag_96\n      swap1\n      tag_42\n      jump\t// in\n    tag_96:\n      dup1\n      0x1f\n      add\n      0x20\n      dup1\n      swap2\n      div\n      mul\n      0x20\n      add\n      mload(0x40)\n      swap1\n      dup2\n      add\n      0x40\n      mstore\n      dup1\n      swap3\n      swap2\n      swap1\n      dup2\n      dup2\n      mstore\n      0x20\n      add\n      dup3\n      dup1\n      sload\n      tag_97\n      swap1\n      tag_42\n      jump\t// in\n    tag_97:\n      dup1\n      iszero\n      tag_98\n      jumpi\n      dup1\n      0x1f\n      lt\n      tag_99\n      jumpi\n      0x0100\n      dup1\n      dup4\n      sload\n      div\n      mul\n      dup4\n      mstore\n      swap2\n      0x20\n      add\n      swap2\n      jump(tag_98)\n    tag_99:\n      dup3\n      add\n      swap2\n      swap1\n      0x00\n      mstore\n      keccak256(0x00, 0x20)\n      swap1\n    tag_100:\n      dup2\n      sload\n      dup2\n      mstore\n      swap1\n      0x01\n      add\n      swap1\n      0x20\n      add\n      dup1\n      dup4\n      gt\n      tag_100\n      jumpi\n      dup3\n      swap1\n      sub\n      0x1f\n      and\n      dup3\n      add\n      swap2\n    tag_98:\n      pop\n      pop\n      pop\n      pop\n      pop\n      swap8\n      pop\n      dup7\n      dup1\n      sload\n      tag_101\n      swap1\n      tag_42\n      jump\t// in\n    tag_101:\n      dup1\n      0x1f\n      add\n      0x20\n      dup1\n      swap2\n      div\n      mul\n      0x20\n      add\n      mload(0x40)\n      swap1\n      dup2\n      add\n      0x40\n      mstore\n      dup1\n      swap3\n      swap2\n      swap1\n      dup2\n      dup2\n      mstore\n      0x20\n      add\n      dup3\n      dup1\n      sload\n      tag_102\n      swap1\n      tag_42\n      jump\t// in\n    tag_102:\n      dup1\n      iszero\n      tag_103\n      jumpi\n      dup1\n      0x1f\n      lt\n      tag_104\n      jumpi\n      0x0100\n      dup1\n      dup4\n      sload\n      div\n      mul\n      dup4\n      mstore\n      swap2\n      0x20\n      add\n      swap2\n      jump(tag_103)\n    tag_104:\n      dup3\n      add\n      swap2\n      swap1\n      0x00\n      mstore\n      keccak256(0x00, 0x20)\n      swap1\n    tag_105:\n      dup2\n      sload\n      dup2\n      mstore\n      swap1\n      0x01\n      add\n      swap1\n      0x20\n      add\n      dup1\n      dup4\n      gt\n      tag_105\n      jumpi\n      dup3\n      swap1\n      sub\n      0x1f\n      and\n      dup3\n      add\n      swap2\n    tag_103:\n      pop\n      pop\n      pop\n      pop\n      pop\n      swap7\n      pop\n      dup6\n      dup1\n      sload\n      tag_106\n      swap1\n      tag_42\n      jump\t// in\n    tag_106:\n      dup1\n      0x1f\n      add\n      0x20\n      dup1\n      swap2\n      div\n      mul\n      0x20\n      add\n      mload(0x40)\n      swap1\n      dup2\n      add\n      0x40\n      mstore\n      dup1\n      swap3\n      swap2\n      swap1\n      dup2\n      dup2\n      mstore\n      0x20\n      add\n      dup3\n      dup1\n      sload\n      tag_107\n      swap1\n      tag_42\n      jump\t// in\n    tag_107:\n      dup1\n      iszero\n      tag_108\n      jumpi\n      dup1\n      0x1f\n      lt\n      tag_109\n      jumpi\n      0x0100\n      dup1\n      dup4\n      sload\n      div\n      mul\n      dup4\n      mstore\n      swap2\n      0x20\n      add\n      swap2\n      jump(tag_108)\n    tag_109:\n      dup3\n      add\n      swap2\n      swap1\n      0x00\n      mstore\n      keccak256(0x00, 0x20)\n      swap1\n    tag_110:\n      dup2\n      sload\n      dup2\n      mstore\n      swap1\n      0x01\n      add\n      swap1\n      0x20\n      add\n      dup1\n      dup4\n      gt\n      tag_110\n      jumpi\n      dup3\n      swap1\n      sub\n      0x1f\n      and\n      dup3\n      add\n      swap2\n    tag_108:\n      pop\n      pop\n      pop\n      pop\n      pop\n      swap6\n      pop\n      dup4\n      dup1\n      sload\n      tag_111\n      swap1\n      tag_42\n      jump\t// in\n    tag_111:\n      dup1\n      0x1f\n      add\n      0x20\n      dup1\n      swap2\n      div\n      mul\n      0x20\n      add\n      mload(0x40)\n      swap1\n      dup2\n      add\n      0x40\n      mstore\n      dup1\n      swap3\n      swap2\n      swap1\n      dup2\n      dup2\n      mstore\n      0x20\n      add\n      dup3\n      dup1\n      sload\n      tag_112\n      swap1\n      tag_42\n      jump\t// in\n    tag_112:\n      dup1\n      iszero\n      tag_113\n      jumpi\n      dup1\n      0x1f\n      lt\n      tag_114\n      jumpi\n      0x0100\n      dup1\n      dup4\n      sload\n      div\n      mul\n      dup4\n      mstore\n      swap2\n      0x20\n      add\n      swap2\n      jump(tag_113)\n    tag_114:\n      dup3\n      add\n      swap2\n      swap1\n      0x00\n      mstore\n      keccak256(0x00, 0x20)\n      swap1\n    tag_115:\n      dup2\n      sload\n      dup2\n      mstore\n      swap1\n      0x01\n      add\n      swap1\n      0x20\n      add\n      dup1\n      dup4\n      gt\n      tag_115\n      jumpi\n      dup3\n      swap1\n      sub\n      0x1f\n      and\n      dup3\n      add\n      swap2\n    tag_113:\n      pop\n      pop\n      pop\n      pop\n      pop\n      swap4\n      pop\n      dup2\n      dup1\n      sload\n      tag_116\n      swap1\n      tag_42\n      jump\t// in\n    tag_116:\n      dup1\n      0x1f\n      add\n      0x20\n      dup1\n      swap2\n      div\n      mul\n      0x20\n      add\n      mload(0x40)\n      swap1\n      dup2\n      add\n      0x40\n      mstore\n      dup1\n      swap3\n      swap2\n      swap1\n      dup2\n      dup2\n      mstore\n      0x20\n      add\n      dup3\n      dup1\n      sload\n      tag_117\n      swap1\n      tag_42\n      jump\t// in\n    tag_117:\n      dup1\n      iszero\n      tag_118\n      jumpi\n      dup1\n      0x1f\n      lt\n      tag_119\n      jumpi\n      0x0100\n      dup1\n      dup4\n      sload\n      div\n      mul\n      dup4\n      mstore\n      swap2\n      0x20\n      add\n      swap2\n      jump(tag_118)\n    tag_119:\n      dup3\n      add\n      swap2\n      swap1\n      0x00\n      mstore\n      keccak256(0x00, 0x20)\n      swap1\n    tag_120:\n      dup2\n      sload\n      dup2\n      mstore\n      swap1\n      0x01\n      add\n      swap1\n      0x20\n      add\n      dup1\n      dup4\n      gt\n      tag_120\n      jumpi\n      dup3\n      swap1\n      sub\n      0x1f\n      and\n      dup3\n      add\n      swap2\n    tag_118:\n      pop\n      pop\n      pop\n      pop\n      pop\n      swap2\n      pop\n      dup1\n      dup1\n      sload\n      tag_121\n      swap1\n      tag_42\n      jump\t// in\n    tag_121:\n      dup1\n      0x1f\n      add\n      0x20\n      dup1\n      swap2\n      div\n      mul\n      0x20\n      add\n      mload(0x40)\n      swap1\n      dup2\n      add\n      0x40\n      mstore\n      dup1\n      swap3\n      swap2\n      swap1\n      dup2\n      dup2\n      mstore\n      0x20\n      add\n      dup3\n      dup1\n      sload\n      tag_122\n      swap1\n      tag_42\n      jump\t// in\n    tag_122:\n      dup1\n      iszero\n      tag_123\n      jumpi\n      dup1\n      0x1f\n      lt\n      tag_124\n      jumpi\n      0x0100\n      dup1\n      dup4\n      sload\n      div\n      mul\n      dup4\n      mstore\n      swap2\n      0x20\n      add\n      swap2\n      jump(tag_123)\n    tag_124:\n      dup3\n      add\n      swap2\n      swap1\n      0x00\n      mstore\n      keccak256(0x00, 0x20)\n      swap1\n    tag_125:\n      dup2\n      sload\n      dup2\n      mstore\n      swap1\n      0x01\n      add\n      swap1\n      0x20\n      add\n      dup1\n      dup4\n      gt\n      tag_125\n      jumpi\n      dup3\n      swap1\n      sub\n      0x1f\n      and\n      dup3\n      add\n      swap2\n    tag_123:\n      pop\n      pop\n      pop\n      pop\n      pop\n      swap1\n      pop\n      swap9\n      pop\n      swap9\n      pop\n      swap9\n      pop\n      swap9\n      pop\n      swap9\n      pop\n      swap9\n      pop\n      swap9\n      pop\n      swap9\n      pop\n      pop\n        /* \"contracts/Job.sol\":1460:2126  function getJob(uint _JobId) public view returns(... */\n      swap2\n      swap4\n      swap6\n      swap8\n      pop\n      swap2\n      swap4\n      swap6\n      swap8\n      jump\t// out\n        /* \"contracts/Job.sol\":635:652  uint public jobId */\n    tag_31:\n      sload(0x03)\n      dup2\n      jump\t// out\n        /* \"contracts/Job.sol\":693:1452  function postJob(... */\n    tag_36:\n        /* \"contracts/Job.sol\":1055:1059  uint */\n      0x00\n        /* \"contracts/Job.sol\":1061:1074  string memory */\n      0x60\n        /* \"contracts/Job.sol\":1091:1096  jobId */\n      0x03\n      0x00\n        /* \"contracts/Job.sol\":1091:1099  jobId ++ */\n      dup2\n      sload\n      dup1\n      swap3\n      swap2\n      swap1\n      tag_127\n      swap1\n      tag_74\n      jump\t// in\n    tag_127:\n      swap2\n      swap1\n      pop\n      sstore\n      pop\n        /* \"contracts/Job.sol\":1133:1385  JobPosting(... */\n      mload(0x40)\n      dup1\n      0x0120\n      add\n      0x40\n      mstore\n      dup1\n        /* \"contracts/Job.sol\":1158:1167  _employer */\n      dup13\n        /* \"contracts/Job.sol\":1133:1385  JobPosting(... */\n      0xffffffffffffffffffffffffffffffffffffffff\n      and\n      dup2\n      mstore\n      0x20\n      add\n        /* \"contracts/Job.sol\":1182:1191  _JobTitle */\n      dup12\n        /* \"contracts/Job.sol\":1133:1385  JobPosting(... */\n      dup2\n      mstore\n      0x20\n      add\n        /* \"contracts/Job.sol\":1206:1221  _JobDescription */\n      dup11\n        /* \"contracts/Job.sol\":1133:1385  JobPosting(... */\n      dup2\n      mstore\n      0x20\n      add\n        /* \"contracts/Job.sol\":1236:1259  _RequiredQualifications */\n      dup10\n        /* \"contracts/Job.sol\":1133:1385  JobPosting(... */\n      dup2\n      mstore\n      0x20\n      add\n        /* \"contracts/Job.sol\":1274:1281  _Salary */\n      dup9\n        /* \"contracts/Job.sol\":1133:1385  JobPosting(... */\n      0xffff\n      and\n      dup2\n      mstore\n      0x20\n      add\n        /* \"contracts/Job.sol\":1296:1305  _Location */\n      dup8\n        /* \"contracts/Job.sol\":1133:1385  JobPosting(... */\n      dup2\n      mstore\n      0x20\n      add\n        /* \"contracts/Job.sol\":1320:1331  _minimumAge */\n      dup7\n        /* \"contracts/Job.sol\":1133:1385  JobPosting(... */\n      0xff\n      and\n      dup2\n      mstore\n      0x20\n      add\n        /* \"contracts/Job.sol\":1346:1360  _requiredSkill */\n      dup6\n        /* \"contracts/Job.sol\":1133:1385  JobPosting(... */\n      dup2\n      mstore\n      0x20\n      add\n        /* \"contracts/Job.sol\":1375:1384  _LastDate */\n      dup5\n        /* \"contracts/Job.sol\":1133:1385  JobPosting(... */\n      dup2\n      mstore\n      pop\n        /* \"contracts/Job.sol\":1116:1123  JobList */\n      0x00\n        /* \"contracts/Job.sol\":1116:1130  JobList[jobId] */\n      dup1\n        /* \"contracts/Job.sol\":1124:1129  jobId */\n      sload(0x03)\n        /* \"contracts/Job.sol\":1116:1130  JobList[jobId] */\n      dup2\n      mstore\n      0x20\n      add\n      swap1\n      dup2\n      mstore\n      0x20\n      add\n      0x00\n      keccak256\n        /* \"contracts/Job.sol\":1116:1385  JobList[jobId] = JobPosting(... */\n      0x00\n      dup3\n      add\n      mload\n      dup2\n      0x00\n      add\n      exp(0x0100, 0x00)\n      dup2\n      sload\n      dup2\n      0xffffffffffffffffffffffffffffffffffffffff\n      mul\n      not\n      and\n      swap1\n      dup4\n      0xffffffffffffffffffffffffffffffffffffffff\n      and\n      mul\n      or\n      swap1\n      sstore\n      pop\n      0x20\n      dup3\n      add\n      mload\n      dup2\n      0x01\n      add\n      swap1\n      dup2\n      tag_128\n      swap2\n      swap1\n      tag_93\n      jump\t// in\n    tag_128:\n      pop\n      0x40\n      dup3\n      add\n      mload\n      dup2\n      0x02\n      add\n      swap1\n      dup2\n      tag_129\n      swap2\n      swap1\n      tag_93\n      jump\t// in\n    tag_129:\n      pop\n      0x60\n      dup3\n      add\n      mload\n      dup2\n      0x03\n      add\n      swap1\n      dup2\n      tag_130\n      swap2\n      swap1\n      tag_93\n      jump\t// in\n    tag_130:\n      pop\n      0x80\n      dup3\n      add\n      mload\n      dup2\n      0x04\n      add\n      exp(0x0100, 0x00)\n      dup2\n      sload\n      dup2\n      0xffff\n      mul\n      not\n      and\n      swap1\n      dup4\n      0xffff\n      and\n      mul\n      or\n      swap1\n      sstore\n      pop\n      0xa0\n      dup3\n      add\n      mload\n      dup2\n      0x05\n      add\n      swap1\n      dup2\n      tag_131\n      swap2\n      swap1\n      tag_93\n      jump\t// in\n    tag_131:\n      pop\n      0xc0\n      dup3\n      add\n      mload\n      dup2\n      0x06\n      add\n      exp(0x0100, 0x00)\n      dup2\n      sload\n      dup2\n      0xff\n      mul\n      not\n      and\n      swap1\n      dup4\n      0xff\n      and\n      mul\n      or\n      swap1\n      sstore\n      pop\n      0xe0\n      dup3\n      add\n      mload\n      dup2\n      0x07\n      add\n      swap1\n      dup2\n      tag_132\n      swap2\n      swap1\n      tag_93\n      jump\t// in\n    tag_132:\n      pop\n      0x0100\n      dup3\n      add\n      mload\n      dup2\n      0x08\n      add\n      swap1\n      dup2\n      tag_133\n      swap2\n      swap1\n      tag_93\n      jump\t// in\n    tag_133:\n      pop\n      swap1\n      pop\n      pop\n        /* \"contracts/Job.sol\":1407:1412  jobId */\n      sload(0x03)\n        /* \"contracts/Job.sol\":1400:1440  return(jobId, \"Job Posted Successfully\") */\n      mload(0x40)\n      dup1\n      0x40\n      add\n      0x40\n      mstore\n      dup1\n      0x17\n      dup2\n      mstore\n      0x20\n      add\n      0x4a6f6220506f73746564205375636365737366756c6c79000000000000000000\n      dup2\n      mstore\n      pop\n      swap2\n      pop\n      swap2\n      pop\n        /* \"contracts/Job.sol\":693:1452  function postJob(... */\n      swap10\n      pop\n      swap10\n      swap8\n      pop\n      pop\n      pop\n      pop\n      pop\n      pop\n      pop\n      pop\n      jump\t// out\n        /* \"#utility.yul\":7:82   */\n    tag_134:\n        /* \"#utility.yul\":40:46   */\n      0x00\n        /* \"#utility.yul\":73:75   */\n      0x40\n        /* \"#utility.yul\":67:76   */\n      mload\n        /* \"#utility.yul\":57:76   */\n      swap1\n      pop\n        /* \"#utility.yul\":7:82   */\n      swap1\n      jump\t// out\n        /* \"#utility.yul\":88:205   */\n    tag_135:\n        /* \"#utility.yul\":197:198   */\n      0x00\n        /* \"#utility.yul\":194:195   */\n      dup1\n        /* \"#utility.yul\":187:199   */\n      revert\n        /* \"#utility.yul\":211:328   */\n    tag_136:\n        /* \"#utility.yul\":320:321   */\n      0x00\n        /* \"#utility.yul\":317:318   */\n      dup1\n        /* \"#utility.yul\":310:322   */\n      revert\n        /* \"#utility.yul\":334:411   */\n    tag_137:\n        /* \"#utility.yul\":371:378   */\n      0x00\n        /* \"#utility.yul\":400:405   */\n      dup2\n        /* \"#utility.yul\":389:405   */\n      swap1\n      pop\n        /* \"#utility.yul\":334:411   */\n      swap2\n      swap1\n      pop\n      jump\t// out\n        /* \"#utility.yul\":417:539   */\n    tag_138:\n        /* \"#utility.yul\":490:514   */\n      tag_202\n        /* \"#utility.yul\":508:513   */\n      dup2\n        /* \"#utility.yul\":490:514   */\n      tag_137\n      jump\t// in\n    tag_202:\n        /* \"#utility.yul\":483:488   */\n      dup2\n        /* \"#utility.yul\":480:515   */\n      eq\n        /* \"#utility.yul\":470:533   */\n      tag_203\n      jumpi\n        /* \"#utility.yul\":529:530   */\n      0x00\n        /* \"#utility.yul\":526:527   */\n      dup1\n        /* \"#utility.yul\":519:531   */\n      revert\n        /* \"#utility.yul\":470:533   */\n    tag_203:\n        /* \"#utility.yul\":417:539   */\n      pop\n      jump\t// out\n        /* \"#utility.yul\":545:684   */\n    tag_139:\n        /* \"#utility.yul\":591:596   */\n      0x00\n        /* \"#utility.yul\":629:635   */\n      dup2\n        /* \"#utility.yul\":616:636   */\n      calldataload\n        /* \"#utility.yul\":607:636   */\n      swap1\n      pop\n        /* \"#utility.yul\":645:678   */\n      tag_205\n        /* \"#utility.yul\":672:677   */\n      dup2\n        /* \"#utility.yul\":645:678   */\n      tag_138\n      jump\t// in\n    tag_205:\n        /* \"#utility.yul\":545:684   */\n      swap3\n      swap2\n      pop\n      pop\n      jump\t// out\n        /* \"#utility.yul\":690:1019   */\n    tag_11:\n        /* \"#utility.yul\":749:755   */\n      0x00\n        /* \"#utility.yul\":798:800   */\n      0x20\n        /* \"#utility.yul\":786:795   */\n      dup3\n        /* \"#utility.yul\":777:784   */\n      dup5\n        /* \"#utility.yul\":773:796   */\n      sub\n        /* \"#utility.yul\":769:801   */\n      slt\n        /* \"#utility.yul\":766:885   */\n      iszero\n      tag_207\n      jumpi\n        /* \"#utility.yul\":804:883   */\n      tag_208\n      tag_135\n      jump\t// in\n    tag_208:\n        /* \"#utility.yul\":766:885   */\n    tag_207:\n        /* \"#utility.yul\":924:925   */\n      0x00\n        /* \"#utility.yul\":949:1002   */\n      tag_209\n        /* \"#utility.yul\":994:1001   */\n      dup5\n        /* \"#utility.yul\":985:991   */\n      dup3\n        /* \"#utility.yul\":974:983   */\n      dup6\n        /* \"#utility.yul\":970:992   */\n      add\n        /* \"#utility.yul\":949:1002   */\n      tag_139\n      jump\t// in\n    tag_209:\n        /* \"#utility.yul\":939:1002   */\n      swap2\n      pop\n        /* \"#utility.yul\":895:1012   */\n      pop\n        /* \"#utility.yul\":690:1019   */\n      swap3\n      swap2\n      pop\n      pop\n      jump\t// out\n        /* \"#utility.yul\":1025:1151   */\n    tag_140:\n        /* \"#utility.yul\":1062:1069   */\n      0x00\n        /* \"#utility.yul\":1102:1144   */\n      0xffffffffffffffffffffffffffffffffffffffff\n        /* \"#utility.yul\":1095:1100   */\n      dup3\n        /* \"#utility.yul\":1091:1145   */\n      and\n        /* \"#utility.yul\":1080:1145   */\n      swap1\n      pop\n        /* \"#utility.yul\":1025:1151   */\n      swap2\n      swap1\n      pop\n      jump\t// out\n        /* \"#utility.yul\":1157:1253   */\n    tag_141:\n        /* \"#utility.yul\":1194:1201   */\n      0x00\n        /* \"#utility.yul\":1223:1247   */\n      tag_212\n        /* \"#utility.yul\":1241:1246   */\n      dup3\n        /* \"#utility.yul\":1223:1247   */\n      tag_140\n      jump\t// in\n    tag_212:\n        /* \"#utility.yul\":1212:1247   */\n      swap1\n      pop\n        /* \"#utility.yul\":1157:1253   */\n      swap2\n      swap1\n      pop\n      jump\t// out\n        /* \"#utility.yul\":1259:1377   */\n    tag_142:\n        /* \"#utility.yul\":1346:1370   */\n      tag_214\n        /* \"#utility.yul\":1364:1369   */\n      dup2\n        /* \"#utility.yul\":1346:1370   */\n      tag_141\n      jump\t// in\n    tag_214:\n        /* \"#utility.yul\":1341:1344   */\n      dup3\n        /* \"#utility.yul\":1334:1371   */\n      mstore\n        /* \"#utility.yul\":1259:1377   */\n      pop\n      pop\n      jump\t// out\n        /* \"#utility.yul\":1383:1482   */\n    tag_143:\n        /* \"#utility.yul\":1435:1441   */\n      0x00\n        /* \"#utility.yul\":1469:1474   */\n      dup2\n        /* \"#utility.yul\":1463:1475   */\n      mload\n        /* \"#utility.yul\":1453:1475   */\n      swap1\n      pop\n        /* \"#utility.yul\":1383:1482   */\n      swap2\n      swap1\n      pop\n      jump\t// out\n        /* \"#utility.yul\":1488:1657   */\n    tag_144:\n        /* \"#utility.yul\":1572:1583   */\n      0x00\n        /* \"#utility.yul\":1606:1612   */\n      dup3\n        /* \"#utility.yul\":1601:1604   */\n      dup3\n        /* \"#utility.yul\":1594:1613   */\n      mstore\n        /* \"#utility.yul\":1646:1650   */\n      0x20\n        /* \"#utility.yul\":1641:1644   */\n      dup3\n        /* \"#utility.yul\":1637:1651   */\n      add\n        /* \"#utility.yul\":1622:1651   */\n      swap1\n      pop\n        /* \"#utility.yul\":1488:1657   */\n      swap3\n      swap2\n      pop\n      pop\n      jump\t// out\n        /* \"#utility.yul\":1663:1909   */\n    tag_145:\n        /* \"#utility.yul\":1744:1745   */\n      0x00\n        /* \"#utility.yul\":1754:1867   */\n    tag_218:\n        /* \"#utility.yul\":1768:1774   */\n      dup4\n        /* \"#utility.yul\":1765:1766   */\n      dup2\n        /* \"#utility.yul\":1762:1775   */\n      lt\n        /* \"#utility.yul\":1754:1867   */\n      iszero\n      tag_220\n      jumpi\n        /* \"#utility.yul\":1853:1854   */\n      dup1\n        /* \"#utility.yul\":1848:1851   */\n      dup3\n        /* \"#utility.yul\":1844:1855   */\n      add\n        /* \"#utility.yul\":1838:1856   */\n      mload\n        /* \"#utility.yul\":1834:1835   */\n      dup2\n        /* \"#utility.yul\":1829:1832   */\n      dup5\n        /* \"#utility.yul\":1825:1836   */\n      add\n        /* \"#utility.yul\":1818:1857   */\n      mstore\n        /* \"#utility.yul\":1790:1792   */\n      0x20\n        /* \"#utility.yul\":1787:1788   */\n      dup2\n        /* \"#utility.yul\":1783:1793   */\n      add\n        /* \"#utility.yul\":1778:1793   */\n      swap1\n      pop\n        /* \"#utility.yul\":1754:1867   */\n      jump(tag_218)\n    tag_220:\n        /* \"#utility.yul\":1901:1902   */\n      0x00\n        /* \"#utility.yul\":1892:1898   */\n      dup5\n        /* \"#utility.yul\":1887:1890   */\n      dup5\n        /* \"#utility.yul\":1883:1899   */\n      add\n        /* \"#utility.yul\":1876:1903   */\n      mstore\n        /* \"#utility.yul\":1725:1909   */\n      pop\n        /* \"#utility.yul\":1663:1909   */\n      pop\n      pop\n      pop\n      jump\t// out\n        /* \"#utility.yul\":1915:2017   */\n    tag_146:\n        /* \"#utility.yul\":1956:1962   */\n      0x00\n        /* \"#utility.yul\":2007:2009   */\n      0x1f\n        /* \"#utility.yul\":2003:2010   */\n      not\n        /* \"#utility.yul\":1998:2000   */\n      0x1f\n        /* \"#utility.yul\":1991:1996   */\n      dup4\n        /* \"#utility.yul\":1987:2001   */\n      add\n        /* \"#utility.yul\":1983:2011   */\n      and\n        /* \"#utility.yul\":1973:2011   */\n      swap1\n      pop\n        /* \"#utility.yul\":1915:2017   */\n      swap2\n      swap1\n      pop\n      jump\t// out\n        /* \"#utility.yul\":2023:2400   */\n    tag_147:\n        /* \"#utility.yul\":2111:2114   */\n      0x00\n        /* \"#utility.yul\":2139:2178   */\n      tag_223\n        /* \"#utility.yul\":2172:2177   */\n      dup3\n        /* \"#utility.yul\":2139:2178   */\n      tag_143\n      jump\t// in\n    tag_223:\n        /* \"#utility.yul\":2194:2265   */\n      tag_224\n        /* \"#utility.yul\":2258:2264   */\n      dup2\n        /* \"#utility.yul\":2253:2256   */\n      dup6\n        /* \"#utility.yul\":2194:2265   */\n      tag_144\n      jump\t// in\n    tag_224:\n        /* \"#utility.yul\":2187:2265   */\n      swap4\n      pop\n        /* \"#utility.yul\":2274:2339   */\n      tag_225\n        /* \"#utility.yul\":2332:2338   */\n      dup2\n        /* \"#utility.yul\":2327:2330   */\n      dup6\n        /* \"#utility.yul\":2320:2324   */\n      0x20\n        /* \"#utility.yul\":2313:2318   */\n      dup7\n        /* \"#utility.yul\":2309:2325   */\n      add\n        /* \"#utility.yul\":2274:2339   */\n      tag_145\n      jump\t// in\n    tag_225:\n        /* \"#utility.yul\":2364:2393   */\n      tag_226\n        /* \"#utility.yul\":2386:2392   */\n      dup2\n        /* \"#utility.yul\":2364:2393   */\n      tag_146\n      jump\t// in\n    tag_226:\n        /* \"#utility.yul\":2359:2362   */\n      dup5\n        /* \"#utility.yul\":2355:2394   */\n      add\n        /* \"#utility.yul\":2348:2394   */\n      swap2\n      pop\n        /* \"#utility.yul\":2115:2400   */\n      pop\n        /* \"#utility.yul\":2023:2400   */\n      swap3\n      swap2\n      pop\n      pop\n      jump\t// out\n        /* \"#utility.yul\":2406:2495   */\n    tag_148:\n        /* \"#utility.yul\":2442:2449   */\n      0x00\n        /* \"#utility.yul\":2482:2488   */\n      0xffff\n        /* \"#utility.yul\":2475:2480   */\n      dup3\n        /* \"#utility.yul\":2471:2489   */\n      and\n        /* \"#utility.yul\":2460:2489   */\n      swap1\n      pop\n        /* \"#utility.yul\":2406:2495   */\n      swap2\n      swap1\n      pop\n      jump\t// out\n        /* \"#utility.yul\":2501:2616   */\n    tag_149:\n        /* \"#utility.yul\":2586:2609   */\n      tag_229\n        /* \"#utility.yul\":2603:2608   */\n      dup2\n        /* \"#utility.yul\":2586:2609   */\n      tag_148\n      jump\t// in\n    tag_229:\n        /* \"#utility.yul\":2581:2584   */\n      dup3\n        /* \"#utility.yul\":2574:2610   */\n      mstore\n        /* \"#utility.yul\":2501:2616   */\n      pop\n      pop\n      jump\t// out\n        /* \"#utility.yul\":2622:2708   */\n    tag_150:\n        /* \"#utility.yul\":2657:2664   */\n      0x00\n        /* \"#utility.yul\":2697:2701   */\n      0xff\n        /* \"#utility.yul\":2690:2695   */\n      dup3\n        /* \"#utility.yul\":2686:2702   */\n      and\n        /* \"#utility.yul\":2675:2702   */\n      swap1\n      pop\n        /* \"#utility.yul\":2622:2708   */\n      swap2\n      swap1\n      pop\n      jump\t// out\n        /* \"#utility.yul\":2714:2826   */\n    tag_151:\n        /* \"#utility.yul\":2797:2819   */\n      tag_232\n        /* \"#utility.yul\":2813:2818   */\n      dup2\n        /* \"#utility.yul\":2797:2819   */\n      tag_150\n      jump\t// in\n    tag_232:\n        /* \"#utility.yul\":2792:2795   */\n      dup3\n        /* \"#utility.yul\":2785:2820   */\n      mstore\n        /* \"#utility.yul\":2714:2826   */\n      pop\n      pop\n      jump\t// out\n        /* \"#utility.yul\":2832:4474   */\n    tag_14:\n        /* \"#utility.yul\":3263:3267   */\n      0x00\n        /* \"#utility.yul\":3301:3304   */\n      0x0120\n        /* \"#utility.yul\":3290:3299   */\n      dup3\n        /* \"#utility.yul\":3286:3305   */\n      add\n        /* \"#utility.yul\":3278:3305   */\n      swap1\n      pop\n        /* \"#utility.yul\":3315:3386   */\n      tag_234\n        /* \"#utility.yul\":3383:3384   */\n      0x00\n        /* \"#utility.yul\":3372:3381   */\n      dup4\n        /* \"#utility.yul\":3368:3385   */\n      add\n        /* \"#utility.yul\":3359:3365   */\n      dup13\n        /* \"#utility.yul\":3315:3386   */\n      tag_142\n      jump\t// in\n    tag_234:\n        /* \"#utility.yul\":3433:3442   */\n      dup2\n        /* \"#utility.yul\":3427:3431   */\n      dup2\n        /* \"#utility.yul\":3423:3443   */\n      sub\n        /* \"#utility.yul\":3418:3420   */\n      0x20\n        /* \"#utility.yul\":3407:3416   */\n      dup4\n        /* \"#utility.yul\":3403:3421   */\n      add\n        /* \"#utility.yul\":3396:3444   */\n      mstore\n        /* \"#utility.yul\":3461:3539   */\n      tag_235\n        /* \"#utility.yul\":3534:3538   */\n      dup2\n        /* \"#utility.yul\":3525:3531   */\n      dup12\n        /* \"#utility.yul\":3461:3539   */\n      tag_147\n      jump\t// in\n    tag_235:\n        /* \"#utility.yul\":3453:3539   */\n      swap1\n      pop\n        /* \"#utility.yul\":3586:3595   */\n      dup2\n        /* \"#utility.yul\":3580:3584   */\n      dup2\n        /* \"#utility.yul\":3576:3596   */\n      sub\n        /* \"#utility.yul\":3571:3573   */\n      0x40\n        /* \"#utility.yul\":3560:3569   */\n      dup4\n        /* \"#utility.yul\":3556:3574   */\n      add\n        /* \"#utility.yul\":3549:3597   */\n      mstore\n        /* \"#utility.yul\":3614:3692   */\n      tag_236\n        /* \"#utility.yul\":3687:3691   */\n      dup2\n        /* \"#utility.yul\":3678:3684   */\n      dup11\n        /* \"#utility.yul\":3614:3692   */\n      tag_147\n      jump\t// in\n    tag_236:\n        /* \"#utility.yul\":3606:3692   */\n      swap1\n      pop\n        /* \"#utility.yul\":3739:3748   */\n      dup2\n        /* \"#utility.yul\":3733:3737   */\n      dup2\n        /* \"#utility.yul\":3729:3749   */\n      sub\n        /* \"#utility.yul\":3724:3726   */\n      0x60\n        /* \"#utility.yul\":3713:3722   */\n      dup4\n        /* \"#utility.yul\":3709:3727   */\n      add\n        /* \"#utility.yul\":3702:3750   */\n      mstore\n        /* \"#utility.yul\":3767:3845   */\n      tag_237\n        /* \"#utility.yul\":3840:3844   */\n      dup2\n        /* \"#utility.yul\":3831:3837   */\n      dup10\n        /* \"#utility.yul\":3767:3845   */\n      tag_147\n      jump\t// in\n    tag_237:\n        /* \"#utility.yul\":3759:3845   */\n      swap1\n      pop\n        /* \"#utility.yul\":3855:3926   */\n      tag_238\n        /* \"#utility.yul\":3921:3924   */\n      0x80\n        /* \"#utility.yul\":3910:3919   */\n      dup4\n        /* \"#utility.yul\":3906:3925   */\n      add\n        /* \"#utility.yul\":3897:3903   */\n      dup9\n        /* \"#utility.yul\":3855:3926   */\n      tag_149\n      jump\t// in\n    tag_238:\n        /* \"#utility.yul\":3974:3983   */\n      dup2\n        /* \"#utility.yul\":3968:3972   */\n      dup2\n        /* \"#utility.yul\":3964:3984   */\n      sub\n        /* \"#utility.yul\":3958:3961   */\n      0xa0\n        /* \"#utility.yul\":3947:3956   */\n      dup4\n        /* \"#utility.yul\":3943:3962   */\n      add\n        /* \"#utility.yul\":3936:3985   */\n      mstore\n        /* \"#utility.yul\":4002:4080   */\n      tag_239\n        /* \"#utility.yul\":4075:4079   */\n      dup2\n        /* \"#utility.yul\":4066:4072   */\n      dup8\n        /* \"#utility.yul\":4002:4080   */\n      tag_147\n      jump\t// in\n    tag_239:\n        /* \"#utility.yul\":3994:4080   */\n      swap1\n      pop\n        /* \"#utility.yul\":4090:4159   */\n      tag_240\n        /* \"#utility.yul\":4154:4157   */\n      0xc0\n        /* \"#utility.yul\":4143:4152   */\n      dup4\n        /* \"#utility.yul\":4139:4158   */\n      add\n        /* \"#utility.yul\":4130:4136   */\n      dup7\n        /* \"#utility.yul\":4090:4159   */\n      tag_151\n      jump\t// in\n    tag_240:\n        /* \"#utility.yul\":4207:4216   */\n      dup2\n        /* \"#utility.yul\":4201:4205   */\n      dup2\n        /* \"#utility.yul\":4197:4217   */\n      sub\n        /* \"#utility.yul\":4191:4194   */\n      0xe0\n        /* \"#utility.yul\":4180:4189   */\n      dup4\n        /* \"#utility.yul\":4176:4195   */\n      add\n        /* \"#utility.yul\":4169:4218   */\n      mstore\n        /* \"#utility.yul\":4235:4313   */\n      tag_241\n        /* \"#utility.yul\":4308:4312   */\n      dup2\n        /* \"#utility.yul\":4299:4305   */\n      dup6\n        /* \"#utility.yul\":4235:4313   */\n      tag_147\n      jump\t// in\n    tag_241:\n        /* \"#utility.yul\":4227:4313   */\n      swap1\n      pop\n        /* \"#utility.yul\":4361:4370   */\n      dup2\n        /* \"#utility.yul\":4355:4359   */\n      dup2\n        /* \"#utility.yul\":4351:4371   */\n      sub\n        /* \"#utility.yul\":4345:4348   */\n      0x0100\n        /* \"#utility.yul\":4334:4343   */\n      dup4\n        /* \"#utility.yul\":4330:4349   */\n      add\n        /* \"#utility.yul\":4323:4372   */\n      mstore\n        /* \"#utility.yul\":4389:4467   */\n      tag_242\n        /* \"#utility.yul\":4462:4466   */\n      dup2\n        /* \"#utility.yul\":4453:4459   */\n      dup5\n        /* \"#utility.yul\":4389:4467   */\n      tag_147\n      jump\t// in\n    tag_242:\n        /* \"#utility.yul\":4381:4467   */\n      swap1\n      pop\n        /* \"#utility.yul\":2832:4474   */\n      swap11\n      swap10\n      pop\n      pop\n      pop\n      pop\n      pop\n      pop\n      pop\n      pop\n      pop\n      pop\n      jump\t// out\n        /* \"#utility.yul\":4480:4598   */\n    tag_152:\n        /* \"#utility.yul\":4567:4591   */\n      tag_244\n        /* \"#utility.yul\":4585:4590   */\n      dup2\n        /* \"#utility.yul\":4567:4591   */\n      tag_137\n      jump\t// in\n    tag_244:\n        /* \"#utility.yul\":4562:4565   */\n      dup3\n        /* \"#utility.yul\":4555:4592   */\n      mstore\n        /* \"#utility.yul\":4480:4598   */\n      pop\n      pop\n      jump\t// out\n        /* \"#utility.yul\":4604:4826   */\n    tag_18:\n        /* \"#utility.yul\":4697:4701   */\n      0x00\n        /* \"#utility.yul\":4735:4737   */\n      0x20\n        /* \"#utility.yul\":4724:4733   */\n      dup3\n        /* \"#utility.yul\":4720:4738   */\n      add\n        /* \"#utility.yul\":4712:4738   */\n      swap1\n      pop\n        /* \"#utility.yul\":4748:4819   */\n      tag_246\n        /* \"#utility.yul\":4816:4817   */\n      0x00\n        /* \"#utility.yul\":4805:4814   */\n      dup4\n        /* \"#utility.yul\":4801:4818   */\n      add\n        /* \"#utility.yul\":4792:4798   */\n      dup5\n        /* \"#utility.yul\":4748:4819   */\n      tag_152\n      jump\t// in\n    tag_246:\n        /* \"#utility.yul\":4604:4826   */\n      swap3\n      swap2\n      pop\n      pop\n      jump\t// out\n        /* \"#utility.yul\":4832:4949   */\n    tag_153:\n        /* \"#utility.yul\":4941:4942   */\n      0x00\n        /* \"#utility.yul\":4938:4939   */\n      dup1\n        /* \"#utility.yul\":4931:4943   */\n      revert\n        /* \"#utility.yul\":4955:5072   */\n    tag_154:\n        /* \"#utility.yul\":5064:5065   */\n      0x00\n        /* \"#utility.yul\":5061:5062   */\n      dup1\n        /* \"#utility.yul\":5054:5066   */\n      revert\n        /* \"#utility.yul\":5078:5258   */\n    tag_155:\n        /* \"#utility.yul\":5126:5203   */\n      0x4e487b7100000000000000000000000000000000000000000000000000000000\n        /* \"#utility.yul\":5123:5124   */\n      0x00\n        /* \"#utility.yul\":5116:5204   */\n      mstore\n        /* \"#utility.yul\":5223:5227   */\n      0x41\n        /* \"#utility.yul\":5220:5221   */\n      0x04\n        /* \"#utility.yul\":5213:5228   */\n      mstore\n        /* \"#utility.yul\":5247:5251   */\n      0x24\n        /* \"#utility.yul\":5244:5245   */\n      0x00\n        /* \"#utility.yul\":5237:5252   */\n      revert\n        /* \"#utility.yul\":5264:5545   */\n    tag_156:\n        /* \"#utility.yul\":5347:5374   */\n      tag_251\n        /* \"#utility.yul\":5369:5373   */\n      dup3\n        /* \"#utility.yul\":5347:5374   */\n      tag_146\n      jump\t// in\n    tag_251:\n        /* \"#utility.yul\":5339:5345   */\n      dup2\n        /* \"#utility.yul\":5335:5375   */\n      add\n        /* \"#utility.yul\":5477:5483   */\n      dup2\n        /* \"#utility.yul\":5465:5475   */\n      dup2\n        /* \"#utility.yul\":5462:5484   */\n      lt\n        /* \"#utility.yul\":5441:5459   */\n      0xffffffffffffffff\n        /* \"#utility.yul\":5429:5439   */\n      dup3\n        /* \"#utility.yul\":5426:5460   */\n      gt\n        /* \"#utility.yul\":5423:5485   */\n      or\n        /* \"#utility.yul\":5420:5508   */\n      iszero\n      tag_252\n      jumpi\n        /* \"#utility.yul\":5488:5506   */\n      tag_253\n      tag_155\n      jump\t// in\n    tag_253:\n        /* \"#utility.yul\":5420:5508   */\n    tag_252:\n        /* \"#utility.yul\":5528:5538   */\n      dup1\n        /* \"#utility.yul\":5524:5526   */\n      0x40\n        /* \"#utility.yul\":5517:5539   */\n      mstore\n        /* \"#utility.yul\":5307:5545   */\n      pop\n        /* \"#utility.yul\":5264:5545   */\n      pop\n      pop\n      jump\t// out\n        /* \"#utility.yul\":5551:5680   */\n    tag_157:\n        /* \"#utility.yul\":5585:5591   */\n      0x00\n        /* \"#utility.yul\":5612:5632   */\n      tag_255\n      tag_134\n      jump\t// in\n    tag_255:\n        /* \"#utility.yul\":5602:5632   */\n      swap1\n      pop\n        /* \"#utility.yul\":5641:5674   */\n      tag_256\n        /* \"#utility.yul\":5669:5673   */\n      dup3\n        /* \"#utility.yul\":5661:5667   */\n      dup3\n        /* \"#utility.yul\":5641:5674   */\n      tag_156\n      jump\t// in\n    tag_256:\n        /* \"#utility.yul\":5551:5680   */\n      swap2\n      swap1\n      pop\n      jump\t// out\n        /* \"#utility.yul\":5686:5994   */\n    tag_158:\n        /* \"#utility.yul\":5748:5752   */\n      0x00\n        /* \"#utility.yul\":5838:5856   */\n      0xffffffffffffffff\n        /* \"#utility.yul\":5830:5836   */\n      dup3\n        /* \"#utility.yul\":5827:5857   */\n      gt\n        /* \"#utility.yul\":5824:5880   */\n      iszero\n      tag_258\n      jumpi\n        /* \"#utility.yul\":5860:5878   */\n      tag_259\n      tag_155\n      jump\t// in\n    tag_259:\n        /* \"#utility.yul\":5824:5880   */\n    tag_258:\n        /* \"#utility.yul\":5898:5927   */\n      tag_260\n        /* \"#utility.yul\":5920:5926   */\n      dup3\n        /* \"#utility.yul\":5898:5927   */\n      tag_146\n      jump\t// in\n    tag_260:\n        /* \"#utility.yul\":5890:5927   */\n      swap1\n      pop\n        /* \"#utility.yul\":5982:5986   */\n      0x20\n        /* \"#utility.yul\":5976:5980   */\n      dup2\n        /* \"#utility.yul\":5972:5987   */\n      add\n        /* \"#utility.yul\":5964:5987   */\n      swap1\n      pop\n        /* \"#utility.yul\":5686:5994   */\n      swap2\n      swap1\n      pop\n      jump\t// out\n        /* \"#utility.yul\":6000:6146   */\n    tag_159:\n        /* \"#utility.yul\":6097:6103   */\n      dup3\n        /* \"#utility.yul\":6092:6095   */\n      dup2\n        /* \"#utility.yul\":6087:6090   */\n      dup4\n        /* \"#utility.yul\":6074:6104   */\n      calldatacopy\n        /* \"#utility.yul\":6138:6139   */\n      0x00\n        /* \"#utility.yul\":6129:6135   */\n      dup4\n        /* \"#utility.yul\":6124:6127   */\n      dup4\n        /* \"#utility.yul\":6120:6136   */\n      add\n        /* \"#utility.yul\":6113:6140   */\n      mstore\n        /* \"#utility.yul\":6000:6146   */\n      pop\n      pop\n      pop\n      jump\t// out\n        /* \"#utility.yul\":6152:6577   */\n    tag_160:\n        /* \"#utility.yul\":6230:6235   */\n      0x00\n        /* \"#utility.yul\":6255:6321   */\n      tag_263\n        /* \"#utility.yul\":6271:6320   */\n      tag_264\n        /* \"#utility.yul\":6313:6319   */\n      dup5\n        /* \"#utility.yul\":6271:6320   */\n      tag_158\n      jump\t// in\n    tag_264:\n        /* \"#utility.yul\":6255:6321   */\n      tag_157\n      jump\t// in\n    tag_263:\n        /* \"#utility.yul\":6246:6321   */\n      swap1\n      pop\n        /* \"#utility.yul\":6344:6350   */\n      dup3\n        /* \"#utility.yul\":6337:6342   */\n      dup2\n        /* \"#utility.yul\":6330:6351   */\n      mstore\n        /* \"#utility.yul\":6382:6386   */\n      0x20\n        /* \"#utility.yul\":6375:6380   */\n      dup2\n        /* \"#utility.yul\":6371:6387   */\n      add\n        /* \"#utility.yul\":6420:6423   */\n      dup5\n        /* \"#utility.yul\":6411:6417   */\n      dup5\n        /* \"#utility.yul\":6406:6409   */\n      dup5\n        /* \"#utility.yul\":6402:6418   */\n      add\n        /* \"#utility.yul\":6399:6424   */\n      gt\n        /* \"#utility.yul\":6396:6508   */\n      iszero\n      tag_265\n      jumpi\n        /* \"#utility.yul\":6427:6506   */\n      tag_266\n      tag_154\n      jump\t// in\n    tag_266:\n        /* \"#utility.yul\":6396:6508   */\n    tag_265:\n        /* \"#utility.yul\":6517:6571   */\n      tag_267\n        /* \"#utility.yul\":6564:6570   */\n      dup5\n        /* \"#utility.yul\":6559:6562   */\n      dup3\n        /* \"#utility.yul\":6554:6557   */\n      dup6\n        /* \"#utility.yul\":6517:6571   */\n      tag_159\n      jump\t// in\n    tag_267:\n        /* \"#utility.yul\":6236:6577   */\n      pop\n        /* \"#utility.yul\":6152:6577   */\n      swap4\n      swap3\n      pop\n      pop\n      pop\n      jump\t// out\n        /* \"#utility.yul\":6597:6937   */\n    tag_161:\n        /* \"#utility.yul\":6653:6658   */\n      0x00\n        /* \"#utility.yul\":6702:6705   */\n      dup3\n        /* \"#utility.yul\":6695:6699   */\n      0x1f\n        /* \"#utility.yul\":6687:6693   */\n      dup4\n        /* \"#utility.yul\":6683:6700   */\n      add\n        /* \"#utility.yul\":6679:6706   */\n      slt\n        /* \"#utility.yul\":6669:6791   */\n      tag_269\n      jumpi\n        /* \"#utility.yul\":6710:6789   */\n      tag_270\n      tag_153\n      jump\t// in\n    tag_270:\n        /* \"#utility.yul\":6669:6791   */\n    tag_269:\n        /* \"#utility.yul\":6827:6833   */\n      dup2\n        /* \"#utility.yul\":6814:6834   */\n      calldataload\n        /* \"#utility.yul\":6852:6931   */\n      tag_271\n        /* \"#utility.yul\":6927:6930   */\n      dup5\n        /* \"#utility.yul\":6919:6925   */\n      dup3\n        /* \"#utility.yul\":6912:6916   */\n      0x20\n        /* \"#utility.yul\":6904:6910   */\n      dup7\n        /* \"#utility.yul\":6900:6917   */\n      add\n        /* \"#utility.yul\":6852:6931   */\n      tag_160\n      jump\t// in\n    tag_271:\n        /* \"#utility.yul\":6843:6931   */\n      swap2\n      pop\n        /* \"#utility.yul\":6659:6937   */\n      pop\n        /* \"#utility.yul\":6597:6937   */\n      swap3\n      swap2\n      pop\n      pop\n      jump\t// out\n        /* \"#utility.yul\":6943:7061   */\n    tag_162:\n        /* \"#utility.yul\":7014:7036   */\n      tag_273\n        /* \"#utility.yul\":7030:7035   */\n      dup2\n        /* \"#utility.yul\":7014:7036   */\n      tag_150\n      jump\t// in\n    tag_273:\n        /* \"#utility.yul\":7007:7012   */\n      dup2\n        /* \"#utility.yul\":7004:7037   */\n      eq\n        /* \"#utility.yul\":6994:7055   */\n      tag_274\n      jumpi\n        /* \"#utility.yul\":7051:7052   */\n      0x00\n        /* \"#utility.yul\":7048:7049   */\n      dup1\n        /* \"#utility.yul\":7041:7053   */\n      revert\n        /* \"#utility.yul\":6994:7055   */\n    tag_274:\n        /* \"#utility.yul\":6943:7061   */\n      pop\n      jump\t// out\n        /* \"#utility.yul\":7067:7202   */\n    tag_163:\n        /* \"#utility.yul\":7111:7116   */\n      0x00\n        /* \"#utility.yul\":7149:7155   */\n      dup2\n        /* \"#utility.yul\":7136:7156   */\n      calldataload\n        /* \"#utility.yul\":7127:7156   */\n      swap1\n      pop\n        /* \"#utility.yul\":7165:7196   */\n      tag_276\n        /* \"#utility.yul\":7190:7195   */\n      dup2\n        /* \"#utility.yul\":7165:7196   */\n      tag_162\n      jump\t// in\n    tag_276:\n        /* \"#utility.yul\":7067:7202   */\n      swap3\n      swap2\n      pop\n      pop\n      jump\t// out\n        /* \"#utility.yul\":7208:8475   */\n    tag_21:\n        /* \"#utility.yul\":7321:7327   */\n      0x00\n        /* \"#utility.yul\":7329:7335   */\n      dup1\n        /* \"#utility.yul\":7337:7343   */\n      0x00\n        /* \"#utility.yul\":7345:7351   */\n      dup1\n        /* \"#utility.yul\":7353:7359   */\n      0x00\n        /* \"#utility.yul\":7402:7405   */\n      0xa0\n        /* \"#utility.yul\":7390:7399   */\n      dup7\n        /* \"#utility.yul\":7381:7388   */\n      dup9\n        /* \"#utility.yul\":7377:7400   */\n      sub\n        /* \"#utility.yul\":7373:7406   */\n      slt\n        /* \"#utility.yul\":7370:7490   */\n      iszero\n      tag_278\n      jumpi\n        /* \"#utility.yul\":7409:7488   */\n      tag_279\n      tag_135\n      jump\t// in\n    tag_279:\n        /* \"#utility.yul\":7370:7490   */\n    tag_278:\n        /* \"#utility.yul\":7529:7530   */\n      0x00\n        /* \"#utility.yul\":7554:7607   */\n      tag_280\n        /* \"#utility.yul\":7599:7606   */\n      dup9\n        /* \"#utility.yul\":7590:7596   */\n      dup3\n        /* \"#utility.yul\":7579:7588   */\n      dup10\n        /* \"#utility.yul\":7575:7597   */\n      add\n        /* \"#utility.yul\":7554:7607   */\n      tag_139\n      jump\t// in\n    tag_280:\n        /* \"#utility.yul\":7544:7607   */\n      swap6\n      pop\n        /* \"#utility.yul\":7500:7617   */\n      pop\n        /* \"#utility.yul\":7656:7658   */\n      0x20\n        /* \"#utility.yul\":7682:7735   */\n      tag_281\n        /* \"#utility.yul\":7727:7734   */\n      dup9\n        /* \"#utility.yul\":7718:7724   */\n      dup3\n        /* \"#utility.yul\":7707:7716   */\n      dup10\n        /* \"#utility.yul\":7703:7725   */\n      add\n        /* \"#utility.yul\":7682:7735   */\n      tag_139\n      jump\t// in\n    tag_281:\n        /* \"#utility.yul\":7672:7735   */\n      swap5\n      pop\n        /* \"#utility.yul\":7627:7745   */\n      pop\n        /* \"#utility.yul\":7812:7814   */\n      0x40\n        /* \"#utility.yul\":7801:7810   */\n      dup7\n        /* \"#utility.yul\":7797:7815   */\n      add\n        /* \"#utility.yul\":7784:7816   */\n      calldataload\n        /* \"#utility.yul\":7843:7861   */\n      0xffffffffffffffff\n        /* \"#utility.yul\":7835:7841   */\n      dup2\n        /* \"#utility.yul\":7832:7862   */\n      gt\n        /* \"#utility.yul\":7829:7946   */\n      iszero\n      tag_282\n      jumpi\n        /* \"#utility.yul\":7865:7944   */\n      tag_283\n      tag_136\n      jump\t// in\n    tag_283:\n        /* \"#utility.yul\":7829:7946   */\n    tag_282:\n        /* \"#utility.yul\":7970:8033   */\n      tag_284\n        /* \"#utility.yul\":8025:8032   */\n      dup9\n        /* \"#utility.yul\":8016:8022   */\n      dup3\n        /* \"#utility.yul\":8005:8014   */\n      dup10\n        /* \"#utility.yul\":8001:8023   */\n      add\n        /* \"#utility.yul\":7970:8033   */\n      tag_161\n      jump\t// in\n    tag_284:\n        /* \"#utility.yul\":7960:8033   */\n      swap4\n      pop\n        /* \"#utility.yul\":7755:8043   */\n      pop\n        /* \"#utility.yul\":8082:8084   */\n      0x60\n        /* \"#utility.yul\":8108:8159   */\n      tag_285\n        /* \"#utility.yul\":8151:8158   */\n      dup9\n        /* \"#utility.yul\":8142:8148   */\n      dup3\n        /* \"#utility.yul\":8131:8140   */\n      dup10\n        /* \"#utility.yul\":8127:8149   */\n      add\n        /* \"#utility.yul\":8108:8159   */\n      tag_163\n      jump\t// in\n    tag_285:\n        /* \"#utility.yul\":8098:8159   */\n      swap3\n      pop\n        /* \"#utility.yul\":8053:8169   */\n      pop\n        /* \"#utility.yul\":8236:8239   */\n      0x80\n        /* \"#utility.yul\":8225:8234   */\n      dup7\n        /* \"#utility.yul\":8221:8240   */\n      add\n        /* \"#utility.yul\":8208:8241   */\n      calldataload\n        /* \"#utility.yul\":8268:8286   */\n      0xffffffffffffffff\n        /* \"#utility.yul\":8260:8266   */\n      dup2\n        /* \"#utility.yul\":8257:8287   */\n      gt\n        /* \"#utility.yul\":8254:8371   */\n      iszero\n      tag_286\n      jumpi\n        /* \"#utility.yul\":8290:8369   */\n      tag_287\n      tag_136\n      jump\t// in\n    tag_287:\n        /* \"#utility.yul\":8254:8371   */\n    tag_286:\n        /* \"#utility.yul\":8395:8458   */\n      tag_288\n        /* \"#utility.yul\":8450:8457   */\n      dup9\n        /* \"#utility.yul\":8441:8447   */\n      dup3\n        /* \"#utility.yul\":8430:8439   */\n      dup10\n        /* \"#utility.yul\":8426:8448   */\n      add\n        /* \"#utility.yul\":8395:8458   */\n      tag_161\n      jump\t// in\n    tag_288:\n        /* \"#utility.yul\":8385:8458   */\n      swap2\n      pop\n        /* \"#utility.yul\":8179:8468   */\n      pop\n        /* \"#utility.yul\":7208:8475   */\n      swap3\n      swap6\n      pop\n      swap3\n      swap6\n      swap1\n      swap4\n      pop\n      jump\t// out\n        /* \"#utility.yul\":8481:8904   */\n    tag_24:\n        /* \"#utility.yul\":8622:8626   */\n      0x00\n        /* \"#utility.yul\":8660:8662   */\n      0x40\n        /* \"#utility.yul\":8649:8658   */\n      dup3\n        /* \"#utility.yul\":8645:8663   */\n      add\n        /* \"#utility.yul\":8637:8663   */\n      swap1\n      pop\n        /* \"#utility.yul\":8709:8718   */\n      dup2\n        /* \"#utility.yul\":8703:8707   */\n      dup2\n        /* \"#utility.yul\":8699:8719   */\n      sub\n        /* \"#utility.yul\":8695:8696   */\n      0x00\n        /* \"#utility.yul\":8684:8693   */\n      dup4\n        /* \"#utility.yul\":8680:8697   */\n      add\n        /* \"#utility.yul\":8673:8720   */\n      mstore\n        /* \"#utility.yul\":8737:8815   */\n      tag_290\n        /* \"#utility.yul\":8810:8814   */\n      dup2\n        /* \"#utility.yul\":8801:8807   */\n      dup6\n        /* \"#utility.yul\":8737:8815   */\n      tag_147\n      jump\t// in\n    tag_290:\n        /* \"#utility.yul\":8729:8815   */\n      swap1\n      pop\n        /* \"#utility.yul\":8825:8897   */\n      tag_291\n        /* \"#utility.yul\":8893:8895   */\n      0x20\n        /* \"#utility.yul\":8882:8891   */\n      dup4\n        /* \"#utility.yul\":8878:8896   */\n      add\n        /* \"#utility.yul\":8869:8875   */\n      dup5\n        /* \"#utility.yul\":8825:8897   */\n      tag_152\n      jump\t// in\n    tag_291:\n        /* \"#utility.yul\":8481:8904   */\n      swap4\n      swap3\n      pop\n      pop\n      pop\n      jump\t// out\n        /* \"#utility.yul\":8910:10441   */\n    tag_29:\n        /* \"#utility.yul\":9313:9317   */\n      0x00\n        /* \"#utility.yul\":9351:9354   */\n      0x0100\n        /* \"#utility.yul\":9340:9349   */\n      dup3\n        /* \"#utility.yul\":9336:9355   */\n      add\n        /* \"#utility.yul\":9328:9355   */\n      swap1\n      pop\n        /* \"#utility.yul\":9401:9410   */\n      dup2\n        /* \"#utility.yul\":9395:9399   */\n      dup2\n        /* \"#utility.yul\":9391:9411   */\n      sub\n        /* \"#utility.yul\":9387:9388   */\n      0x00\n        /* \"#utility.yul\":9376:9385   */\n      dup4\n        /* \"#utility.yul\":9372:9389   */\n      add\n        /* \"#utility.yul\":9365:9412   */\n      mstore\n        /* \"#utility.yul\":9429:9507   */\n      tag_293\n        /* \"#utility.yul\":9502:9506   */\n      dup2\n        /* \"#utility.yul\":9493:9499   */\n      dup12\n        /* \"#utility.yul\":9429:9507   */\n      tag_147\n      jump\t// in\n    tag_293:\n        /* \"#utility.yul\":9421:9507   */\n      swap1\n      pop\n        /* \"#utility.yul\":9554:9563   */\n      dup2\n        /* \"#utility.yul\":9548:9552   */\n      dup2\n        /* \"#utility.yul\":9544:9564   */\n      sub\n        /* \"#utility.yul\":9539:9541   */\n      0x20\n        /* \"#utility.yul\":9528:9537   */\n      dup4\n        /* \"#utility.yul\":9524:9542   */\n      add\n        /* \"#utility.yul\":9517:9565   */\n      mstore\n        /* \"#utility.yul\":9582:9660   */\n      tag_294\n        /* \"#utility.yul\":9655:9659   */\n      dup2\n        /* \"#utility.yul\":9646:9652   */\n      dup11\n        /* \"#utility.yul\":9582:9660   */\n      tag_147\n      jump\t// in\n    tag_294:\n        /* \"#utility.yul\":9574:9660   */\n      swap1\n      pop\n        /* \"#utility.yul\":9707:9716   */\n      dup2\n        /* \"#utility.yul\":9701:9705   */\n      dup2\n        /* \"#utility.yul\":9697:9717   */\n      sub\n        /* \"#utility.yul\":9692:9694   */\n      0x40\n        /* \"#utility.yul\":9681:9690   */\n      dup4\n        /* \"#utility.yul\":9677:9695   */\n      add\n        /* \"#utility.yul\":9670:9718   */\n      mstore\n        /* \"#utility.yul\":9735:9813   */\n      tag_295\n        /* \"#utility.yul\":9808:9812   */\n      dup2\n        /* \"#utility.yul\":9799:9805   */\n      dup10\n        /* \"#utility.yul\":9735:9813   */\n      tag_147\n      jump\t// in\n    tag_295:\n        /* \"#utility.yul\":9727:9813   */\n      swap1\n      pop\n        /* \"#utility.yul\":9823:9893   */\n      tag_296\n        /* \"#utility.yul\":9889:9891   */\n      0x60\n        /* \"#utility.yul\":9878:9887   */\n      dup4\n        /* \"#utility.yul\":9874:9892   */\n      add\n        /* \"#utility.yul\":9865:9871   */\n      dup9\n        /* \"#utility.yul\":9823:9893   */\n      tag_149\n      jump\t// in\n    tag_296:\n        /* \"#utility.yul\":9941:9950   */\n      dup2\n        /* \"#utility.yul\":9935:9939   */\n      dup2\n        /* \"#utility.yul\":9931:9951   */\n      sub\n        /* \"#utility.yul\":9925:9928   */\n      0x80\n        /* \"#utility.yul\":9914:9923   */\n      dup4\n        /* \"#utility.yul\":9910:9929   */\n      add\n        /* \"#utility.yul\":9903:9952   */\n      mstore\n        /* \"#utility.yul\":9969:10047   */\n      tag_297\n        /* \"#utility.yul\":10042:10046   */\n      dup2\n        /* \"#utility.yul\":10033:10039   */\n      dup8\n        /* \"#utility.yul\":9969:10047   */\n      tag_147\n      jump\t// in\n    tag_297:\n        /* \"#utility.yul\":9961:10047   */\n      swap1\n      pop\n        /* \"#utility.yul\":10057:10126   */\n      tag_298\n        /* \"#utility.yul\":10121:10124   */\n      0xa0\n        /* \"#utility.yul\":10110:10119   */\n      dup4\n        /* \"#utility.yul\":10106:10125   */\n      add\n        /* \"#utility.yul\":10097:10103   */\n      dup7\n        /* \"#utility.yul\":10057:10126   */\n      tag_151\n      jump\t// in\n    tag_298:\n        /* \"#utility.yul\":10174:10183   */\n      dup2\n        /* \"#utility.yul\":10168:10172   */\n      dup2\n        /* \"#utility.yul\":10164:10184   */\n      sub\n        /* \"#utility.yul\":10158:10161   */\n      0xc0\n        /* \"#utility.yul\":10147:10156   */\n      dup4\n        /* \"#utility.yul\":10143:10162   */\n      add\n        /* \"#utility.yul\":10136:10185   */\n      mstore\n        /* \"#utility.yul\":10202:10280   */\n      tag_299\n        /* \"#utility.yul\":10275:10279   */\n      dup2\n        /* \"#utility.yul\":10266:10272   */\n      dup6\n        /* \"#utility.yul\":10202:10280   */\n      tag_147\n      jump\t// in\n    tag_299:\n        /* \"#utility.yul\":10194:10280   */\n      swap1\n      pop\n        /* \"#utility.yul\":10328:10337   */\n      dup2\n        /* \"#utility.yul\":10322:10326   */\n      dup2\n        /* \"#utility.yul\":10318:10338   */\n      sub\n        /* \"#utility.yul\":10312:10315   */\n      0xe0\n        /* \"#utility.yul\":10301:10310   */\n      dup4\n        /* \"#utility.yul\":10297:10316   */\n      add\n        /* \"#utility.yul\":10290:10339   */\n      mstore\n        /* \"#utility.yul\":10356:10434   */\n      tag_300\n        /* \"#utility.yul\":10429:10433   */\n      dup2\n        /* \"#utility.yul\":10420:10426   */\n      dup5\n        /* \"#utility.yul\":10356:10434   */\n      tag_147\n      jump\t// in\n    tag_300:\n        /* \"#utility.yul\":10348:10434   */\n      swap1\n      pop\n        /* \"#utility.yul\":8910:10441   */\n      swap10\n      swap9\n      pop\n      pop\n      pop\n      pop\n      pop\n      pop\n      pop\n      pop\n      pop\n      jump\t// out\n        /* \"#utility.yul\":10447:10569   */\n    tag_164:\n        /* \"#utility.yul\":10520:10544   */\n      tag_302\n        /* \"#utility.yul\":10538:10543   */\n      dup2\n        /* \"#utility.yul\":10520:10544   */\n      tag_141\n      jump\t// in\n    tag_302:\n        /* \"#utility.yul\":10513:10518   */\n      dup2\n        /* \"#utility.yul\":10510:10545   */\n      eq\n        /* \"#utility.yul\":10500:10563   */\n      tag_303\n      jumpi\n        /* \"#utility.yul\":10559:10560   */\n      0x00\n        /* \"#utility.yul\":10556:10557   */\n      dup1\n        /* \"#utility.yul\":10549:10561   */\n      revert\n        /* \"#utility.yul\":10500:10563   */\n    tag_303:\n        /* \"#utility.yul\":10447:10569   */\n      pop\n      jump\t// out\n        /* \"#utility.yul\":10575:10714   */\n    tag_165:\n        /* \"#utility.yul\":10621:10626   */\n      0x00\n        /* \"#utility.yul\":10659:10665   */\n      dup2\n        /* \"#utility.yul\":10646:10666   */\n      calldataload\n        /* \"#utility.yul\":10637:10666   */\n      swap1\n      pop\n        /* \"#utility.yul\":10675:10708   */\n      tag_305\n        /* \"#utility.yul\":10702:10707   */\n      dup2\n        /* \"#utility.yul\":10675:10708   */\n      tag_164\n      jump\t// in\n    tag_305:\n        /* \"#utility.yul\":10575:10714   */\n      swap3\n      swap2\n      pop\n      pop\n      jump\t// out\n        /* \"#utility.yul\":10720:10840   */\n    tag_166:\n        /* \"#utility.yul\":10792:10815   */\n      tag_307\n        /* \"#utility.yul\":10809:10814   */\n      dup2\n        /* \"#utility.yul\":10792:10815   */\n      tag_148\n      jump\t// in\n    tag_307:\n        /* \"#utility.yul\":10785:10790   */\n      dup2\n        /* \"#utility.yul\":10782:10816   */\n      eq\n        /* \"#utility.yul\":10772:10834   */\n      tag_308\n      jumpi\n        /* \"#utility.yul\":10830:10831   */\n      0x00\n        /* \"#utility.yul\":10827:10828   */\n      dup1\n        /* \"#utility.yul\":10820:10832   */\n      revert\n        /* \"#utility.yul\":10772:10834   */\n    tag_308:\n        /* \"#utility.yul\":10720:10840   */\n      pop\n      jump\t// out\n        /* \"#utility.yul\":10846:10983   */\n    tag_167:\n        /* \"#utility.yul\":10891:10896   */\n      0x00\n        /* \"#utility.yul\":10929:10935   */\n      dup2\n        /* \"#utility.yul\":10916:10936   */\n      calldataload\n        /* \"#utility.yul\":10907:10936   */\n      swap1\n      pop\n        /* \"#utility.yul\":10945:10977   */\n      tag_310\n        /* \"#utility.yul\":10971:10976   */\n      dup2\n        /* \"#utility.yul\":10945:10977   */\n      tag_166\n      jump\t// in\n    tag_310:\n        /* \"#utility.yul\":10846:10983   */\n      swap3\n      swap2\n      pop\n      pop\n      jump\t// out\n        /* \"#utility.yul\":10989:13558   */\n    tag_35:\n        /* \"#utility.yul\":11177:11183   */\n      0x00\n        /* \"#utility.yul\":11185:11191   */\n      dup1\n        /* \"#utility.yul\":11193:11199   */\n      0x00\n        /* \"#utility.yul\":11201:11207   */\n      dup1\n        /* \"#utility.yul\":11209:11215   */\n      0x00\n        /* \"#utility.yul\":11217:11223   */\n      dup1\n        /* \"#utility.yul\":11225:11231   */\n      0x00\n        /* \"#utility.yul\":11233:11239   */\n      dup1\n        /* \"#utility.yul\":11241:11247   */\n      0x00\n        /* \"#utility.yul\":11290:11293   */\n      0x0120\n        /* \"#utility.yul\":11278:11287   */\n      dup11\n        /* \"#utility.yul\":11269:11276   */\n      dup13\n        /* \"#utility.yul\":11265:11288   */\n      sub\n        /* \"#utility.yul\":11261:11294   */\n      slt\n        /* \"#utility.yul\":11258:11378   */\n      iszero\n      tag_312\n      jumpi\n        /* \"#utility.yul\":11297:11376   */\n      tag_313\n      tag_135\n      jump\t// in\n    tag_313:\n        /* \"#utility.yul\":11258:11378   */\n    tag_312:\n        /* \"#utility.yul\":11417:11418   */\n      0x00\n        /* \"#utility.yul\":11442:11495   */\n      tag_314\n        /* \"#utility.yul\":11487:11494   */\n      dup13\n        /* \"#utility.yul\":11478:11484   */\n      dup3\n        /* \"#utility.yul\":11467:11476   */\n      dup14\n        /* \"#utility.yul\":11463:11485   */\n      add\n        /* \"#utility.yul\":11442:11495   */\n      tag_165\n      jump\t// in\n    tag_314:\n        /* \"#utility.yul\":11432:11495   */\n      swap10\n      pop\n        /* \"#utility.yul\":11388:11505   */\n      pop\n        /* \"#utility.yul\":11572:11574   */\n      0x20\n        /* \"#utility.yul\":11561:11570   */\n      dup11\n        /* \"#utility.yul\":11557:11575   */\n      add\n        /* \"#utility.yul\":11544:11576   */\n      calldataload\n        /* \"#utility.yul\":11603:11621   */\n      0xffffffffffffffff\n        /* \"#utility.yul\":11595:11601   */\n      dup2\n        /* \"#utility.yul\":11592:11622   */\n      gt\n        /* \"#utility.yul\":11589:11706   */\n      iszero\n      tag_315\n      jumpi\n        /* \"#utility.yul\":11625:11704   */\n      tag_316\n      tag_136\n      jump\t// in\n    tag_316:\n        /* \"#utility.yul\":11589:11706   */\n    tag_315:\n        /* \"#utility.yul\":11730:11793   */\n      tag_317\n        /* \"#utility.yul\":11785:11792   */\n      dup13\n        /* \"#utility.yul\":11776:11782   */\n      dup3\n        /* \"#utility.yul\":11765:11774   */\n      dup14\n        /* \"#utility.yul\":11761:11783   */\n      add\n        /* \"#utility.yul\":11730:11793   */\n      tag_161\n      jump\t// in\n    tag_317:\n        /* \"#utility.yul\":11720:11793   */\n      swap9\n      pop\n        /* \"#utility.yul\":11515:11803   */\n      pop\n        /* \"#utility.yul\":11870:11872   */\n      0x40\n        /* \"#utility.yul\":11859:11868   */\n      dup11\n        /* \"#utility.yul\":11855:11873   */\n      add\n        /* \"#utility.yul\":11842:11874   */\n      calldataload\n        /* \"#utility.yul\":11901:11919   */\n      0xffffffffffffffff\n        /* \"#utility.yul\":11893:11899   */\n      dup2\n        /* \"#utility.yul\":11890:11920   */\n      gt\n        /* \"#utility.yul\":11887:12004   */\n      iszero\n      tag_318\n      jumpi\n        /* \"#utility.yul\":11923:12002   */\n      tag_319\n      tag_136\n      jump\t// in\n    tag_319:\n        /* \"#utility.yul\":11887:12004   */\n    tag_318:\n        /* \"#utility.yul\":12028:12091   */\n      tag_320\n        /* \"#utility.yul\":12083:12090   */\n      dup13\n        /* \"#utility.yul\":12074:12080   */\n      dup3\n        /* \"#utility.yul\":12063:12072   */\n      dup14\n        /* \"#utility.yul\":12059:12081   */\n      add\n        /* \"#utility.yul\":12028:12091   */\n      tag_161\n      jump\t// in\n    tag_320:\n        /* \"#utility.yul\":12018:12091   */\n      swap8\n      pop\n        /* \"#utility.yul\":11813:12101   */\n      pop\n        /* \"#utility.yul\":12168:12170   */\n      0x60\n        /* \"#utility.yul\":12157:12166   */\n      dup11\n        /* \"#utility.yul\":12153:12171   */\n      add\n        /* \"#utility.yul\":12140:12172   */\n      calldataload\n        /* \"#utility.yul\":12199:12217   */\n      0xffffffffffffffff\n        /* \"#utility.yul\":12191:12197   */\n      dup2\n        /* \"#utility.yul\":12188:12218   */\n      gt\n        /* \"#utility.yul\":12185:12302   */\n      iszero\n      tag_321\n      jumpi\n        /* \"#utility.yul\":12221:12300   */\n      tag_322\n      tag_136\n      jump\t// in\n    tag_322:\n        /* \"#utility.yul\":12185:12302   */\n    tag_321:\n        /* \"#utility.yul\":12326:12389   */\n      tag_323\n        /* \"#utility.yul\":12381:12388   */\n      dup13\n        /* \"#utility.yul\":12372:12378   */\n      dup3\n        /* \"#utility.yul\":12361:12370   */\n      dup14\n        /* \"#utility.yul\":12357:12379   */\n      add\n        /* \"#utility.yul\":12326:12389   */\n      tag_161\n      jump\t// in\n    tag_323:\n        /* \"#utility.yul\":12316:12389   */\n      swap7\n      pop\n        /* \"#utility.yul\":12111:12399   */\n      pop\n        /* \"#utility.yul\":12438:12441   */\n      0x80\n        /* \"#utility.yul\":12465:12517   */\n      tag_324\n        /* \"#utility.yul\":12509:12516   */\n      dup13\n        /* \"#utility.yul\":12500:12506   */\n      dup3\n        /* \"#utility.yul\":12489:12498   */\n      dup14\n        /* \"#utility.yul\":12485:12507   */\n      add\n        /* \"#utility.yul\":12465:12517   */\n      tag_167\n      jump\t// in\n    tag_324:\n        /* \"#utility.yul\":12455:12517   */\n      swap6\n      pop\n        /* \"#utility.yul\":12409:12527   */\n      pop\n        /* \"#utility.yul\":12594:12597   */\n      0xa0\n        /* \"#utility.yul\":12583:12592   */\n      dup11\n        /* \"#utility.yul\":12579:12598   */\n      add\n        /* \"#utility.yul\":12566:12599   */\n      calldataload\n        /* \"#utility.yul\":12626:12644   */\n      0xffffffffffffffff\n        /* \"#utility.yul\":12618:12624   */\n      dup2\n        /* \"#utility.yul\":12615:12645   */\n      gt\n        /* \"#utility.yul\":12612:12729   */\n      iszero\n      tag_325\n      jumpi\n        /* \"#utility.yul\":12648:12727   */\n      tag_326\n      tag_136\n      jump\t// in\n    tag_326:\n        /* \"#utility.yul\":12612:12729   */\n    tag_325:\n        /* \"#utility.yul\":12753:12816   */\n      tag_327\n        /* \"#utility.yul\":12808:12815   */\n      dup13\n        /* \"#utility.yul\":12799:12805   */\n      dup3\n        /* \"#utility.yul\":12788:12797   */\n      dup14\n        /* \"#utility.yul\":12784:12806   */\n      add\n        /* \"#utility.yul\":12753:12816   */\n      tag_161\n      jump\t// in\n    tag_327:\n        /* \"#utility.yul\":12743:12816   */\n      swap5\n      pop\n        /* \"#utility.yul\":12537:12826   */\n      pop\n        /* \"#utility.yul\":12865:12868   */\n      0xc0\n        /* \"#utility.yul\":12892:12943   */\n      tag_328\n        /* \"#utility.yul\":12935:12942   */\n      dup13\n        /* \"#utility.yul\":12926:12932   */\n      dup3\n        /* \"#utility.yul\":12915:12924   */\n      dup14\n        /* \"#utility.yul\":12911:12933   */\n      add\n        /* \"#utility.yul\":12892:12943   */\n      tag_163\n      jump\t// in\n    tag_328:\n        /* \"#utility.yul\":12882:12943   */\n      swap4\n      pop\n        /* \"#utility.yul\":12836:12953   */\n      pop\n        /* \"#utility.yul\":13020:13023   */\n      0xe0\n        /* \"#utility.yul\":13009:13018   */\n      dup11\n        /* \"#utility.yul\":13005:13024   */\n      add\n        /* \"#utility.yul\":12992:13025   */\n      calldataload\n        /* \"#utility.yul\":13052:13070   */\n      0xffffffffffffffff\n        /* \"#utility.yul\":13044:13050   */\n      dup2\n        /* \"#utility.yul\":13041:13071   */\n      gt\n        /* \"#utility.yul\":13038:13155   */\n      iszero\n      tag_329\n      jumpi\n        /* \"#utility.yul\":13074:13153   */\n      tag_330\n      tag_136\n      jump\t// in\n    tag_330:\n        /* \"#utility.yul\":13038:13155   */\n    tag_329:\n        /* \"#utility.yul\":13179:13242   */\n      tag_331\n        /* \"#utility.yul\":13234:13241   */\n      dup13\n        /* \"#utility.yul\":13225:13231   */\n      dup3\n        /* \"#utility.yul\":13214:13223   */\n      dup14\n        /* \"#utility.yul\":13210:13232   */\n      add\n        /* \"#utility.yul\":13179:13242   */\n      tag_161\n      jump\t// in\n    tag_331:\n        /* \"#utility.yul\":13169:13242   */\n      swap3\n      pop\n        /* \"#utility.yul\":12963:13252   */\n      pop\n        /* \"#utility.yul\":13319:13322   */\n      0x0100\n        /* \"#utility.yul\":13308:13317   */\n      dup11\n        /* \"#utility.yul\":13304:13323   */\n      add\n        /* \"#utility.yul\":13291:13324   */\n      calldataload\n        /* \"#utility.yul\":13351:13369   */\n      0xffffffffffffffff\n        /* \"#utility.yul\":13343:13349   */\n      dup2\n        /* \"#utility.yul\":13340:13370   */\n      gt\n        /* \"#utility.yul\":13337:13454   */\n      iszero\n      tag_332\n      jumpi\n        /* \"#utility.yul\":13373:13452   */\n      tag_333\n      tag_136\n      jump\t// in\n    tag_333:\n        /* \"#utility.yul\":13337:13454   */\n    tag_332:\n        /* \"#utility.yul\":13478:13541   */\n      tag_334\n        /* \"#utility.yul\":13533:13540   */\n      dup13\n        /* \"#utility.yul\":13524:13530   */\n      dup3\n        /* \"#utility.yul\":13513:13522   */\n      dup14\n        /* \"#utility.yul\":13509:13531   */\n      add\n        /* \"#utility.yul\":13478:13541   */\n      tag_161\n      jump\t// in\n    tag_334:\n        /* \"#utility.yul\":13468:13541   */\n      swap2\n      pop\n        /* \"#utility.yul\":13262:13551   */\n      pop\n        /* \"#utility.yul\":10989:13558   */\n      swap3\n      swap6\n      swap9\n      pop\n      swap3\n      swap6\n      swap9\n      pop\n      swap3\n      swap6\n      swap9\n      jump\t// out\n        /* \"#utility.yul\":13564:13987   */\n    tag_38:\n        /* \"#utility.yul\":13705:13709   */\n      0x00\n        /* \"#utility.yul\":13743:13745   */\n      0x40\n        /* \"#utility.yul\":13732:13741   */\n      dup3\n        /* \"#utility.yul\":13728:13746   */\n      add\n        /* \"#utility.yul\":13720:13746   */\n      swap1\n      pop\n        /* \"#utility.yul\":13756:13827   */\n      tag_336\n        /* \"#utility.yul\":13824:13825   */\n      0x00\n        /* \"#utility.yul\":13813:13822   */\n      dup4\n        /* \"#utility.yul\":13809:13826   */\n      add\n        /* \"#utility.yul\":13800:13806   */\n      dup6\n        /* \"#utility.yul\":13756:13827   */\n      tag_152\n      jump\t// in\n    tag_336:\n        /* \"#utility.yul\":13874:13883   */\n      dup2\n        /* \"#utility.yul\":13868:13872   */\n      dup2\n        /* \"#utility.yul\":13864:13884   */\n      sub\n        /* \"#utility.yul\":13859:13861   */\n      0x20\n        /* \"#utility.yul\":13848:13857   */\n      dup4\n        /* \"#utility.yul\":13844:13862   */\n      add\n        /* \"#utility.yul\":13837:13885   */\n      mstore\n        /* \"#utility.yul\":13902:13980   */\n      tag_337\n        /* \"#utility.yul\":13975:13979   */\n      dup2\n        /* \"#utility.yul\":13966:13972   */\n      dup5\n        /* \"#utility.yul\":13902:13980   */\n      tag_147\n      jump\t// in\n    tag_337:\n        /* \"#utility.yul\":13894:13980   */\n      swap1\n      pop\n        /* \"#utility.yul\":13564:13987   */\n      swap4\n      swap3\n      pop\n      pop\n      pop\n      jump\t// out\n        /* \"#utility.yul\":13993:14173   */\n    tag_168:\n        /* \"#utility.yul\":14041:14118   */\n      0x4e487b7100000000000000000000000000000000000000000000000000000000\n        /* \"#utility.yul\":14038:14039   */\n      0x00\n        /* \"#utility.yul\":14031:14119   */\n      mstore\n        /* \"#utility.yul\":14138:14142   */\n      0x22\n        /* \"#utility.yul\":14135:14136   */\n      0x04\n        /* \"#utility.yul\":14128:14143   */\n      mstore\n        /* \"#utility.yul\":14162:14166   */\n      0x24\n        /* \"#utility.yul\":14159:14160   */\n      0x00\n        /* \"#utility.yul\":14152:14167   */\n      revert\n        /* \"#utility.yul\":14179:14499   */\n    tag_42:\n        /* \"#utility.yul\":14223:14229   */\n      0x00\n        /* \"#utility.yul\":14260:14261   */\n      0x02\n        /* \"#utility.yul\":14254:14258   */\n      dup3\n        /* \"#utility.yul\":14250:14262   */\n      div\n        /* \"#utility.yul\":14240:14262   */\n      swap1\n      pop\n        /* \"#utility.yul\":14307:14308   */\n      0x01\n        /* \"#utility.yul\":14301:14305   */\n      dup3\n        /* \"#utility.yul\":14297:14309   */\n      and\n        /* \"#utility.yul\":14328:14346   */\n      dup1\n        /* \"#utility.yul\":14318:14399   */\n      tag_340\n      jumpi\n        /* \"#utility.yul\":14384:14388   */\n      0x7f\n        /* \"#utility.yul\":14376:14382   */\n      dup3\n        /* \"#utility.yul\":14372:14389   */\n      and\n        /* \"#utility.yul\":14362:14389   */\n      swap2\n      pop\n        /* \"#utility.yul\":14318:14399   */\n    tag_340:\n        /* \"#utility.yul\":14446:14448   */\n      0x20\n        /* \"#utility.yul\":14438:14444   */\n      dup3\n        /* \"#utility.yul\":14435:14449   */\n      lt\n        /* \"#utility.yul\":14415:14433   */\n      dup2\n        /* \"#utility.yul\":14412:14450   */\n      sub\n        /* \"#utility.yul\":14409:14493   */\n      tag_341\n      jumpi\n        /* \"#utility.yul\":14465:14483   */\n      tag_342\n      tag_168\n      jump\t// in\n    tag_342:\n        /* \"#utility.yul\":14409:14493   */\n    tag_341:\n        /* \"#utility.yul\":14230:14499   */\n      pop\n        /* \"#utility.yul\":14179:14499   */\n      swap2\n      swap1\n      pop\n      jump\t// out\n        /* \"#utility.yul\":14505:14685   */\n    tag_169:\n        /* \"#utility.yul\":14553:14630   */\n      0x4e487b7100000000000000000000000000000000000000000000000000000000\n        /* \"#utility.yul\":14550:14551   */\n      0x00\n        /* \"#utility.yul\":14543:14631   */\n      mstore\n        /* \"#utility.yul\":14650:14654   */\n      0x11\n        /* \"#utility.yul\":14647:14648   */\n      0x04\n        /* \"#utility.yul\":14640:14655   */\n      mstore\n        /* \"#utility.yul\":14674:14678   */\n      0x24\n        /* \"#utility.yul\":14671:14672   */\n      0x00\n        /* \"#utility.yul\":14664:14679   */\n      revert\n        /* \"#utility.yul\":14691:14924   */\n    tag_74:\n        /* \"#utility.yul\":14730:14733   */\n      0x00\n        /* \"#utility.yul\":14753:14777   */\n      tag_345\n        /* \"#utility.yul\":14771:14776   */\n      dup3\n        /* \"#utility.yul\":14753:14777   */\n      tag_137\n      jump\t// in\n    tag_345:\n        /* \"#utility.yul\":14744:14777   */\n      swap2\n      pop\n        /* \"#utility.yul\":14799:14865   */\n      0xffffffffffffffffffffffffffffffffffffffffffffffffffffffffffffffff\n        /* \"#utility.yul\":14792:14797   */\n      dup3\n        /* \"#utility.yul\":14789:14866   */\n      sub\n        /* \"#utility.yul\":14786:14889   */\n      tag_346\n      jumpi\n        /* \"#utility.yul\":14869:14887   */\n      tag_347\n      tag_169\n      jump\t// in\n    tag_347:\n        /* \"#utility.yul\":14786:14889   */\n    tag_346:\n        /* \"#utility.yul\":14916:14917   */\n      0x01\n        /* \"#utility.yul\":14909:14914   */\n      dup3\n        /* \"#utility.yul\":14905:14918   */\n      add\n        /* \"#utility.yul\":14898:14918   */\n      swap1\n      pop\n        /* \"#utility.yul\":14691:14924   */\n      swap2\n      swap1\n      pop\n      jump\t// out\n        /* \"#utility.yul\":14930:15108   */\n    tag_170:\n        /* \"#utility.yul\":15070:15100   */\n      0x496e76616c696420496e707574206170706c69636174696f6e20696400000000\n        /* \"#utility.yul\":15066:15067   */\n      0x00\n        /* \"#utility.yul\":15058:15064   */\n      dup3\n        /* \"#utility.yul\":15054:15068   */\n      add\n        /* \"#utility.yul\":15047:15101   */\n      mstore\n        /* \"#utility.yul\":14930:15108   */\n      pop\n      jump\t// out\n        /* \"#utility.yul\":15114:15480   */\n    tag_171:\n        /* \"#utility.yul\":15256:15259   */\n      0x00\n        /* \"#utility.yul\":15277:15344   */\n      tag_350\n        /* \"#utility.yul\":15341:15343   */\n      0x1c\n        /* \"#utility.yul\":15336:15339   */\n      dup4\n        /* \"#utility.yul\":15277:15344   */\n      tag_144\n      jump\t// in\n    tag_350:\n        /* \"#utility.yul\":15270:15344   */\n      swap2\n      pop\n        /* \"#utility.yul\":15353:15446   */\n      tag_351\n        /* \"#utility.yul\":15442:15445   */\n      dup3\n        /* \"#utility.yul\":15353:15446   */\n      tag_170\n      jump\t// in\n    tag_351:\n        /* \"#utility.yul\":15471:15473   */\n      0x20\n        /* \"#utility.yul\":15466:15469   */\n      dup3\n        /* \"#utility.yul\":15462:15474   */\n      add\n        /* \"#utility.yul\":15455:15474   */\n      swap1\n      pop\n        /* \"#utility.yul\":15114:15480   */\n      swap2\n      swap1\n      pop\n      jump\t// out\n        /* \"#utility.yul\":15486:15905   */\n    tag_77:\n        /* \"#utility.yul\":15652:15656   */\n      0x00\n        /* \"#utility.yul\":15690:15692   */\n      0x20\n        /* \"#utility.yul\":15679:15688   */\n      dup3\n        /* \"#utility.yul\":15675:15693   */\n      add\n        /* \"#utility.yul\":15667:15693   */\n      swap1\n      pop\n        /* \"#utility.yul\":15739:15748   */\n      dup2\n        /* \"#utility.yul\":15733:15737   */\n      dup2\n        /* \"#utility.yul\":15729:15749   */\n      sub\n        /* \"#utility.yul\":15725:15726   */\n      0x00\n        /* \"#utility.yul\":15714:15723   */\n      dup4\n        /* \"#utility.yul\":15710:15727   */\n      add\n        /* \"#utility.yul\":15703:15750   */\n      mstore\n        /* \"#utility.yul\":15767:15898   */\n      tag_353\n        /* \"#utility.yul\":15893:15897   */\n      dup2\n        /* \"#utility.yul\":15767:15898   */\n      tag_171\n      jump\t// in\n    tag_353:\n        /* \"#utility.yul\":15759:15898   */\n      swap1\n      pop\n        /* \"#utility.yul\":15486:15905   */\n      swap2\n      swap1\n      pop\n      jump\t// out\n        /* \"#utility.yul\":15911:16075   */\n    tag_172:\n        /* \"#utility.yul\":16051:16067   */\n      0x496e76616c6964204a6f62204944000000000000000000000000000000000000\n        /* \"#utility.yul\":16047:16048   */\n      0x00\n        /* \"#utility.yul\":16039:16045   */\n      dup3\n        /* \"#utility.yul\":16035:16049   */\n      add\n        /* \"#utility.yul\":16028:16068   */\n      mstore\n        /* \"#utility.yul\":15911:16075   */\n      pop\n      jump\t// out\n        /* \"#utility.yul\":16081:16447   */\n    tag_173:\n        /* \"#utility.yul\":16223:16226   */\n      0x00\n        /* \"#utility.yul\":16244:16311   */\n      tag_356\n        /* \"#utility.yul\":16308:16310   */\n      0x0e\n        /* \"#utility.yul\":16303:16306   */\n      dup4\n        /* \"#utility.yul\":16244:16311   */\n      tag_144\n      jump\t// in\n    tag_356:\n        /* \"#utility.yul\":16237:16311   */\n      swap2\n      pop\n        /* \"#utility.yul\":16320:16413   */\n      tag_357\n        /* \"#utility.yul\":16409:16412   */\n      dup3\n        /* \"#utility.yul\":16320:16413   */\n      tag_172\n      jump\t// in\n    tag_357:\n        /* \"#utility.yul\":16438:16440   */\n      0x20\n        /* \"#utility.yul\":16433:16436   */\n      dup3\n        /* \"#utility.yul\":16429:16441   */\n      add\n        /* \"#utility.yul\":16422:16441   */\n      swap1\n      pop\n        /* \"#utility.yul\":16081:16447   */\n      swap2\n      swap1\n      pop\n      jump\t// out\n        /* \"#utility.yul\":16453:16872   */\n    tag_80:\n        /* \"#utility.yul\":16619:16623   */\n      0x00\n        /* \"#utility.yul\":16657:16659   */\n      0x20\n        /* \"#utility.yul\":16646:16655   */\n      dup3\n        /* \"#utility.yul\":16642:16660   */\n      add\n        /* \"#utility.yul\":16634:16660   */\n      swap1\n      pop\n        /* \"#utility.yul\":16706:16715   */\n      dup2\n        /* \"#utility.yul\":16700:16704   */\n      dup2\n        /* \"#utility.yul\":16696:16716   */\n      sub\n        /* \"#utility.yul\":16692:16693   */\n      0x00\n        /* \"#utility.yul\":16681:16690   */\n      dup4\n        /* \"#utility.yul\":16677:16694   */\n      add\n        /* \"#utility.yul\":16670:16717   */\n      mstore\n        /* \"#utility.yul\":16734:16865   */\n      tag_359\n        /* \"#utility.yul\":16860:16864   */\n      dup2\n        /* \"#utility.yul\":16734:16865   */\n      tag_173\n      jump\t// in\n    tag_359:\n        /* \"#utility.yul\":16726:16865   */\n      swap1\n      pop\n        /* \"#utility.yul\":16453:16872   */\n      swap2\n      swap1\n      pop\n      jump\t// out\n        /* \"#utility.yul\":16878:17046   */\n    tag_174:\n        /* \"#utility.yul\":17018:17038   */\n      0x556e6465726167652063616e6469646174650000000000000000000000000000\n        /* \"#utility.yul\":17014:17015   */\n      0x00\n        /* \"#utility.yul\":17006:17012   */\n      dup3\n        /* \"#utility.yul\":17002:17016   */\n      add\n        /* \"#utility.yul\":16995:17039   */\n      mstore\n        /* \"#utility.yul\":16878:17046   */\n      pop\n      jump\t// out\n        /* \"#utility.yul\":17052:17418   */\n    tag_175:\n        /* \"#utility.yul\":17194:17197   */\n      0x00\n        /* \"#utility.yul\":17215:17282   */\n      tag_362\n        /* \"#utility.yul\":17279:17281   */\n      0x12\n        /* \"#utility.yul\":17274:17277   */\n      dup4\n        /* \"#utility.yul\":17215:17282   */\n      tag_144\n      jump\t// in\n    tag_362:\n        /* \"#utility.yul\":17208:17282   */\n      swap2\n      pop\n        /* \"#utility.yul\":17291:17384   */\n      tag_363\n        /* \"#utility.yul\":17380:17383   */\n      dup3\n        /* \"#utility.yul\":17291:17384   */\n      tag_174\n      jump\t// in\n    tag_363:\n        /* \"#utility.yul\":17409:17411   */\n      0x20\n        /* \"#utility.yul\":17404:17407   */\n      dup3\n        /* \"#utility.yul\":17400:17412   */\n      add\n        /* \"#utility.yul\":17393:17412   */\n      swap1\n      pop\n        /* \"#utility.yul\":17052:17418   */\n      swap2\n      swap1\n      pop\n      jump\t// out\n        /* \"#utility.yul\":17424:17843   */\n    tag_83:\n        /* \"#utility.yul\":17590:17594   */\n      0x00\n        /* \"#utility.yul\":17628:17630   */\n      0x20\n        /* \"#utility.yul\":17617:17626   */\n      dup3\n        /* \"#utility.yul\":17613:17631   */\n      add\n        /* \"#utility.yul\":17605:17631   */\n      swap1\n      pop\n        /* \"#utility.yul\":17677:17686   */\n      dup2\n        /* \"#utility.yul\":17671:17675   */\n      dup2\n        /* \"#utility.yul\":17667:17687   */\n      sub\n        /* \"#utility.yul\":17663:17664   */\n      0x00\n        /* \"#utility.yul\":17652:17661   */\n      dup4\n        /* \"#utility.yul\":17648:17665   */\n      add\n        /* \"#utility.yul\":17641:17688   */\n      mstore\n        /* \"#utility.yul\":17705:17836   */\n      tag_365\n        /* \"#utility.yul\":17831:17835   */\n      dup2\n        /* \"#utility.yul\":17705:17836   */\n      tag_175\n      jump\t// in\n    tag_365:\n        /* \"#utility.yul\":17697:17836   */\n      swap1\n      pop\n        /* \"#utility.yul\":17424:17843   */\n      swap2\n      swap1\n      pop\n      jump\t// out\n        /* \"#utility.yul\":17849:17997   */\n    tag_176:\n        /* \"#utility.yul\":17951:17962   */\n      0x00\n        /* \"#utility.yul\":17988:17991   */\n      dup2\n        /* \"#utility.yul\":17973:17991   */\n      swap1\n      pop\n        /* \"#utility.yul\":17849:17997   */\n      swap3\n      swap2\n      pop\n      pop\n      jump\t// out\n        /* \"#utility.yul\":18003:18144   */\n    tag_177:\n        /* \"#utility.yul\":18052:18056   */\n      0x00\n        /* \"#utility.yul\":18075:18078   */\n      dup2\n        /* \"#utility.yul\":18067:18078   */\n      swap1\n      pop\n        /* \"#utility.yul\":18098:18101   */\n      dup2\n        /* \"#utility.yul\":18095:18096   */\n      0x00\n        /* \"#utility.yul\":18088:18102   */\n      mstore\n        /* \"#utility.yul\":18132:18136   */\n      0x20\n        /* \"#utility.yul\":18129:18130   */\n      0x00\n        /* \"#utility.yul\":18119:18137   */\n      keccak256\n        /* \"#utility.yul\":18111:18137   */\n      swap1\n      pop\n        /* \"#utility.yul\":18003:18144   */\n      swap2\n      swap1\n      pop\n      jump\t// out\n        /* \"#utility.yul\":18174:19048   */\n    tag_178:\n        /* \"#utility.yul\":18277:18280   */\n      0x00\n        /* \"#utility.yul\":18314:18319   */\n      dup2\n        /* \"#utility.yul\":18308:18320   */\n      sload\n        /* \"#utility.yul\":18343:18379   */\n      tag_369\n        /* \"#utility.yul\":18369:18378   */\n      dup2\n        /* \"#utility.yul\":18343:18379   */\n      tag_42\n      jump\t// in\n    tag_369:\n        /* \"#utility.yul\":18395:18484   */\n      tag_370\n        /* \"#utility.yul\":18477:18483   */\n      dup2\n        /* \"#utility.yul\":18472:18475   */\n      dup7\n        /* \"#utility.yul\":18395:18484   */\n      tag_176\n      jump\t// in\n    tag_370:\n        /* \"#utility.yul\":18388:18484   */\n      swap5\n      pop\n        /* \"#utility.yul\":18515:18516   */\n      0x01\n        /* \"#utility.yul\":18504:18513   */\n      dup3\n        /* \"#utility.yul\":18500:18517   */\n      and\n        /* \"#utility.yul\":18531:18532   */\n      0x00\n        /* \"#utility.yul\":18526:18692   */\n      dup2\n      eq\n      tag_372\n      jumpi\n        /* \"#utility.yul\":18706:18707   */\n      0x01\n        /* \"#utility.yul\":18701:19042   */\n      dup2\n      eq\n      tag_373\n      jumpi\n        /* \"#utility.yul\":18493:19042   */\n      jump(tag_371)\n        /* \"#utility.yul\":18526:18692   */\n    tag_372:\n        /* \"#utility.yul\":18610:18614   */\n      0xff\n        /* \"#utility.yul\":18606:18615   */\n      not\n        /* \"#utility.yul\":18595:18604   */\n      dup4\n        /* \"#utility.yul\":18591:18616   */\n      and\n        /* \"#utility.yul\":18586:18589   */\n      dup7\n        /* \"#utility.yul\":18579:18617   */\n      mstore\n        /* \"#utility.yul\":18672:18678   */\n      dup2\n        /* \"#utility.yul\":18665:18679   */\n      iszero\n        /* \"#utility.yul\":18658:18680   */\n      iszero\n        /* \"#utility.yul\":18650:18656   */\n      dup3\n        /* \"#utility.yul\":18646:18681   */\n      mul\n        /* \"#utility.yul\":18641:18644   */\n      dup7\n        /* \"#utility.yul\":18637:18682   */\n      add\n        /* \"#utility.yul\":18630:18682   */\n      swap4\n      pop\n        /* \"#utility.yul\":18526:18692   */\n      jump(tag_371)\n        /* \"#utility.yul\":18701:19042   */\n    tag_373:\n        /* \"#utility.yul\":18768:18806   */\n      tag_374\n        /* \"#utility.yul\":18800:18805   */\n      dup6\n        /* \"#utility.yul\":18768:18806   */\n      tag_177\n      jump\t// in\n    tag_374:\n        /* \"#utility.yul\":18828:18829   */\n      0x00\n        /* \"#utility.yul\":18842:18996   */\n    tag_375:\n        /* \"#utility.yul\":18856:18862   */\n      dup4\n        /* \"#utility.yul\":18853:18854   */\n      dup2\n        /* \"#utility.yul\":18850:18863   */\n      lt\n        /* \"#utility.yul\":18842:18996   */\n      iszero\n      tag_377\n      jumpi\n        /* \"#utility.yul\":18930:18937   */\n      dup2\n        /* \"#utility.yul\":18924:18938   */\n      sload\n        /* \"#utility.yul\":18920:18921   */\n      dup2\n        /* \"#utility.yul\":18915:18918   */\n      dup10\n        /* \"#utility.yul\":18911:18922   */\n      add\n        /* \"#utility.yul\":18904:18939   */\n      mstore\n        /* \"#utility.yul\":18980:18981   */\n      0x01\n        /* \"#utility.yul\":18971:18978   */\n      dup3\n        /* \"#utility.yul\":18967:18982   */\n      add\n        /* \"#utility.yul\":18956:18982   */\n      swap2\n      pop\n        /* \"#utility.yul\":18878:18882   */\n      0x20\n        /* \"#utility.yul\":18875:18876   */\n      dup2\n        /* \"#utility.yul\":18871:18883   */\n      add\n        /* \"#utility.yul\":18866:18883   */\n      swap1\n      pop\n        /* \"#utility.yul\":18842:18996   */\n      jump(tag_375)\n    tag_377:\n        /* \"#utility.yul\":19025:19031   */\n      dup4\n        /* \"#utility.yul\":19020:19023   */\n      dup9\n        /* \"#utility.yul\":19016:19032   */\n      add\n        /* \"#utility.yul\":19009:19032   */\n      swap6\n      pop\n        /* \"#utility.yul\":18708:19042   */\n      pop\n      pop\n        /* \"#utility.yul\":18493:19042   */\n    tag_371:\n      pop\n        /* \"#utility.yul\":18281:19048   */\n      pop\n      pop\n        /* \"#utility.yul\":18174:19048   */\n      swap3\n      swap2\n      pop\n      pop\n      jump\t// out\n        /* \"#utility.yul\":19054:19323   */\n    tag_85:\n        /* \"#utility.yul\":19183:19186   */\n      0x00\n        /* \"#utility.yul\":19205:19297   */\n      tag_379\n        /* \"#utility.yul\":19293:19296   */\n      dup3\n        /* \"#utility.yul\":19284:19290   */\n      dup5\n        /* \"#utility.yul\":19205:19297   */\n      tag_178\n      jump\t// in\n    tag_379:\n        /* \"#utility.yul\":19198:19297   */\n      swap2\n      pop\n        /* \"#utility.yul\":19314:19317   */\n      dup2\n        /* \"#utility.yul\":19307:19317   */\n      swap1\n      pop\n        /* \"#utility.yul\":19054:19323   */\n      swap3\n      swap2\n      pop\n      pop\n      jump\t// out\n        /* \"#utility.yul\":19329:19719   */\n    tag_179:\n        /* \"#utility.yul\":19435:19438   */\n      0x00\n        /* \"#utility.yul\":19463:19502   */\n      tag_381\n        /* \"#utility.yul\":19496:19501   */\n      dup3\n        /* \"#utility.yul\":19463:19502   */\n      tag_143\n      jump\t// in\n    tag_381:\n        /* \"#utility.yul\":19518:19607   */\n      tag_382\n        /* \"#utility.yul\":19600:19606   */\n      dup2\n        /* \"#utility.yul\":19595:19598   */\n      dup6\n        /* \"#utility.yul\":19518:19607   */\n      tag_176\n      jump\t// in\n    tag_382:\n        /* \"#utility.yul\":19511:19607   */\n      swap4\n      pop\n        /* \"#utility.yul\":19616:19681   */\n      tag_383\n        /* \"#utility.yul\":19674:19680   */\n      dup2\n        /* \"#utility.yul\":19669:19672   */\n      dup6\n        /* \"#utility.yul\":19662:19666   */\n      0x20\n        /* \"#utility.yul\":19655:19660   */\n      dup7\n        /* \"#utility.yul\":19651:19667   */\n      add\n        /* \"#utility.yul\":19616:19681   */\n      tag_145\n      jump\t// in\n    tag_383:\n        /* \"#utility.yul\":19706:19712   */\n      dup1\n        /* \"#utility.yul\":19701:19704   */\n      dup5\n        /* \"#utility.yul\":19697:19713   */\n      add\n        /* \"#utility.yul\":19690:19713   */\n      swap2\n      pop\n        /* \"#utility.yul\":19439:19719   */\n      pop\n        /* \"#utility.yul\":19329:19719   */\n      swap3\n      swap2\n      pop\n      pop\n      jump\t// out\n        /* \"#utility.yul\":19725:20000   */\n    tag_87:\n        /* \"#utility.yul\":19857:19860   */\n      0x00\n        /* \"#utility.yul\":19879:19974   */\n      tag_385\n        /* \"#utility.yul\":19970:19973   */\n      dup3\n        /* \"#utility.yul\":19961:19967   */\n      dup5\n        /* \"#utility.yul\":19879:19974   */\n      tag_179\n      jump\t// in\n    tag_385:\n        /* \"#utility.yul\":19872:19974   */\n      swap2\n      pop\n        /* \"#utility.yul\":19991:19994   */\n      dup2\n        /* \"#utility.yul\":19984:19994   */\n      swap1\n      pop\n        /* \"#utility.yul\":19725:20000   */\n      swap3\n      swap2\n      pop\n      pop\n      jump\t// out\n        /* \"#utility.yul\":20006:20175   */\n    tag_180:\n        /* \"#utility.yul\":20146:20167   */\n      0x536b696c6c7320646f206e6f74206d6174636800000000000000000000000000\n        /* \"#utility.yul\":20142:20143   */\n      0x00\n        /* \"#utility.yul\":20134:20140   */\n      dup3\n        /* \"#utility.yul\":20130:20144   */\n      add\n        /* \"#utility.yul\":20123:20168   */\n      mstore\n        /* \"#utility.yul\":20006:20175   */\n      pop\n      jump\t// out\n        /* \"#utility.yul\":20181:20547   */\n    tag_181:\n        /* \"#utility.yul\":20323:20326   */\n      0x00\n        /* \"#utility.yul\":20344:20411   */\n      tag_388\n        /* \"#utility.yul\":20408:20410   */\n      0x13\n        /* \"#utility.yul\":20403:20406   */\n      dup4\n        /* \"#utility.yul\":20344:20411   */\n      tag_144\n      jump\t// in\n    tag_388:\n        /* \"#utility.yul\":20337:20411   */\n      swap2\n      pop\n        /* \"#utility.yul\":20420:20513   */\n      tag_389\n        /* \"#utility.yul\":20509:20512   */\n      dup3\n        /* \"#utility.yul\":20420:20513   */\n      tag_180\n      jump\t// in\n    tag_389:\n        /* \"#utility.yul\":20538:20540   */\n      0x20\n        /* \"#utility.yul\":20533:20536   */\n      dup3\n        /* \"#utility.yul\":20529:20541   */\n      add\n        /* \"#utility.yul\":20522:20541   */\n      swap1\n      pop\n        /* \"#utility.yul\":20181:20547   */\n      swap2\n      swap1\n      pop\n      jump\t// out\n        /* \"#utility.yul\":20553:20972   */\n    tag_90:\n        /* \"#utility.yul\":20719:20723   */\n      0x00\n        /* \"#utility.yul\":20757:20759   */\n      0x20\n        /* \"#utility.yul\":20746:20755   */\n      dup3\n        /* \"#utility.yul\":20742:20760   */\n      add\n        /* \"#utility.yul\":20734:20760   */\n      swap1\n      pop\n        /* \"#utility.yul\":20806:20815   */\n      dup2\n        /* \"#utility.yul\":20800:20804   */\n      dup2\n        /* \"#utility.yul\":20796:20816   */\n      sub\n        /* \"#utility.yul\":20792:20793   */\n      0x00\n        /* \"#utility.yul\":20781:20790   */\n      dup4\n        /* \"#utility.yul\":20777:20794   */\n      add\n        /* \"#utility.yul\":20770:20817   */\n      mstore\n        /* \"#utility.yul\":20834:20965   */\n      tag_391\n        /* \"#utility.yul\":20960:20964   */\n      dup2\n        /* \"#utility.yul\":20834:20965   */\n      tag_181\n      jump\t// in\n    tag_391:\n        /* \"#utility.yul\":20826:20965   */\n      swap1\n      pop\n        /* \"#utility.yul\":20553:20972   */\n      swap2\n      swap1\n      pop\n      jump\t// out\n        /* \"#utility.yul\":20978:21071   */\n    tag_182:\n        /* \"#utility.yul\":21015:21021   */\n      0x00\n        /* \"#utility.yul\":21062:21064   */\n      0x20\n        /* \"#utility.yul\":21057:21059   */\n      0x1f\n        /* \"#utility.yul\":21050:21055   */\n      dup4\n        /* \"#utility.yul\":21046:21060   */\n      add\n        /* \"#utility.yul\":21042:21065   */\n      div\n        /* \"#utility.yul\":21032:21065   */\n      swap1\n      pop\n        /* \"#utility.yul\":20978:21071   */\n      swap2\n      swap1\n      pop\n      jump\t// out\n        /* \"#utility.yul\":21077:21184   */\n    tag_183:\n        /* \"#utility.yul\":21121:21129   */\n      0x00\n        /* \"#utility.yul\":21171:21176   */\n      dup3\n        /* \"#utility.yul\":21165:21169   */\n      dup3\n        /* \"#utility.yul\":21161:21177   */\n      shl\n        /* \"#utility.yul\":21140:21177   */\n      swap1\n      pop\n        /* \"#utility.yul\":21077:21184   */\n      swap3\n      swap2\n      pop\n      pop\n      jump\t// out\n        /* \"#utility.yul\":21190:21583   */\n    tag_184:\n        /* \"#utility.yul\":21259:21265   */\n      0x00\n        /* \"#utility.yul\":21309:21310   */\n      0x08\n        /* \"#utility.yul\":21297:21307   */\n      dup4\n        /* \"#utility.yul\":21293:21311   */\n      mul\n        /* \"#utility.yul\":21332:21429   */\n      tag_395\n        /* \"#utility.yul\":21362:21428   */\n      0xffffffffffffffffffffffffffffffffffffffffffffffffffffffffffffffff\n        /* \"#utility.yul\":21351:21360   */\n      dup3\n        /* \"#utility.yul\":21332:21429   */\n      tag_183\n      jump\t// in\n    tag_395:\n        /* \"#utility.yul\":21450:21489   */\n      tag_396\n        /* \"#utility.yul\":21480:21488   */\n      dup7\n        /* \"#utility.yul\":21469:21478   */\n      dup4\n        /* \"#utility.yul\":21450:21489   */\n      tag_183\n      jump\t// in\n    tag_396:\n        /* \"#utility.yul\":21438:21489   */\n      swap6\n      pop\n        /* \"#utility.yul\":21522:21526   */\n      dup1\n        /* \"#utility.yul\":21518:21527   */\n      not\n        /* \"#utility.yul\":21511:21516   */\n      dup5\n        /* \"#utility.yul\":21507:21528   */\n      and\n        /* \"#utility.yul\":21498:21528   */\n      swap4\n      pop\n        /* \"#utility.yul\":21571:21575   */\n      dup1\n        /* \"#utility.yul\":21561:21569   */\n      dup7\n        /* \"#utility.yul\":21557:21576   */\n      and\n        /* \"#utility.yul\":21550:21555   */\n      dup5\n        /* \"#utility.yul\":21547:21577   */\n      or\n        /* \"#utility.yul\":21537:21577   */\n      swap3\n      pop\n        /* \"#utility.yul\":21266:21583   */\n      pop\n      pop\n        /* \"#utility.yul\":21190:21583   */\n      swap4\n      swap3\n      pop\n      pop\n      pop\n      jump\t// out\n        /* \"#utility.yul\":21589:21649   */\n    tag_185:\n        /* \"#utility.yul\":21617:21620   */\n      0x00\n        /* \"#utility.yul\":21638:21643   */\n      dup2\n        /* \"#utility.yul\":21631:21643   */\n      swap1\n      pop\n        /* \"#utility.yul\":21589:21649   */\n      swap2\n      swap1\n      pop\n      jump\t// out\n        /* \"#utility.yul\":21655:21797   */\n    tag_186:\n        /* \"#utility.yul\":21705:21714   */\n      0x00\n        /* \"#utility.yul\":21738:21791   */\n      tag_399\n        /* \"#utility.yul\":21756:21790   */\n      tag_400\n        /* \"#utility.yul\":21765:21789   */\n      tag_401\n        /* \"#utility.yul\":21783:21788   */\n      dup5\n        /* \"#utility.yul\":21765:21789   */\n      tag_137\n      jump\t// in\n    tag_401:\n        /* \"#utility.yul\":21756:21790   */\n      tag_185\n      jump\t// in\n    tag_400:\n        /* \"#utility.yul\":21738:21791   */\n      tag_137\n      jump\t// in\n    tag_399:\n        /* \"#utility.yul\":21725:21791   */\n      swap1\n      pop\n        /* \"#utility.yul\":21655:21797   */\n      swap2\n      swap1\n      pop\n      jump\t// out\n        /* \"#utility.yul\":21803:21878   */\n    tag_187:\n        /* \"#utility.yul\":21846:21849   */\n      0x00\n        /* \"#utility.yul\":21867:21872   */\n      dup2\n        /* \"#utility.yul\":21860:21872   */\n      swap1\n      pop\n        /* \"#utility.yul\":21803:21878   */\n      swap2\n      swap1\n      pop\n      jump\t// out\n        /* \"#utility.yul\":21884:22153   */\n    tag_188:\n        /* \"#utility.yul\":21994:22033   */\n      tag_404\n        /* \"#utility.yul\":22025:22032   */\n      dup4\n        /* \"#utility.yul\":21994:22033   */\n      tag_186\n      jump\t// in\n    tag_404:\n        /* \"#utility.yul\":22055:22146   */\n      tag_405\n        /* \"#utility.yul\":22104:22145   */\n      tag_406\n        /* \"#utility.yul\":22128:22144   */\n      dup3\n        /* \"#utility.yul\":22104:22145   */\n      tag_187\n      jump\t// in\n    tag_406:\n        /* \"#utility.yul\":22096:22102   */\n      dup5\n        /* \"#utility.yul\":22089:22093   */\n      dup5\n        /* \"#utility.yul\":22083:22094   */\n      sload\n        /* \"#utility.yul\":22055:22146   */\n      tag_184\n      jump\t// in\n    tag_405:\n        /* \"#utility.yul\":22049:22053   */\n      dup3\n        /* \"#utility.yul\":22042:22147   */\n      sstore\n        /* \"#utility.yul\":21960:22153   */\n      pop\n        /* \"#utility.yul\":21884:22153   */\n      pop\n      pop\n      pop\n      jump\t// out\n        /* \"#utility.yul\":22159:22232   */\n    tag_189:\n        /* \"#utility.yul\":22204:22207   */\n      0x00\n        /* \"#utility.yul\":22159:22232   */\n      swap1\n      jump\t// out\n        /* \"#utility.yul\":22238:22427   */\n    tag_190:\n        /* \"#utility.yul\":22315:22347   */\n      tag_409\n      tag_189\n      jump\t// in\n    tag_409:\n        /* \"#utility.yul\":22356:22421   */\n      tag_410\n        /* \"#utility.yul\":22414:22420   */\n      dup2\n        /* \"#utility.yul\":22406:22412   */\n      dup5\n        /* \"#utility.yul\":22400:22404   */\n      dup5\n        /* \"#utility.yul\":22356:22421   */\n      tag_188\n      jump\t// in\n    tag_410:\n        /* \"#utility.yul\":22291:22427   */\n      pop\n        /* \"#utility.yul\":22238:22427   */\n      pop\n      pop\n      jump\t// out\n        /* \"#utility.yul\":22433:22619   */\n    tag_191:\n        /* \"#utility.yul\":22493:22613   */\n    tag_412:\n        /* \"#utility.yul\":22510:22513   */\n      dup2\n        /* \"#utility.yul\":22503:22508   */\n      dup2\n        /* \"#utility.yul\":22500:22514   */\n      lt\n        /* \"#utility.yul\":22493:22613   */\n      iszero\n      tag_414\n      jumpi\n        /* \"#utility.yul\":22564:22603   */\n      tag_415\n        /* \"#utility.yul\":22601:22602   */\n      0x00\n        /* \"#utility.yul\":22594:22599   */\n      dup3\n        /* \"#utility.yul\":22564:22603   */\n      tag_190\n      jump\t// in\n    tag_415:\n        /* \"#utility.yul\":22537:22538   */\n      0x01\n        /* \"#utility.yul\":22530:22535   */\n      dup2\n        /* \"#utility.yul\":22526:22539   */\n      add\n        /* \"#utility.yul\":22517:22539   */\n      swap1\n      pop\n        /* \"#utility.yul\":22493:22613   */\n      jump(tag_412)\n    tag_414:\n        /* \"#utility.yul\":22433:22619   */\n      pop\n      pop\n      jump\t// out\n        /* \"#utility.yul\":22625:23168   */\n    tag_192:\n        /* \"#utility.yul\":22726:22728   */\n      0x1f\n        /* \"#utility.yul\":22721:22724   */\n      dup3\n        /* \"#utility.yul\":22718:22729   */\n      gt\n        /* \"#utility.yul\":22715:23161   */\n      iszero\n      tag_417\n      jumpi\n        /* \"#utility.yul\":22760:22798   */\n      tag_418\n        /* \"#utility.yul\":22792:22797   */\n      dup2\n        /* \"#utility.yul\":22760:22798   */\n      tag_177\n      jump\t// in\n    tag_418:\n        /* \"#utility.yul\":22844:22873   */\n      tag_419\n        /* \"#utility.yul\":22862:22872   */\n      dup5\n        /* \"#utility.yul\":22844:22873   */\n      tag_182\n      jump\t// in\n    tag_419:\n        /* \"#utility.yul\":22834:22842   */\n      dup2\n        /* \"#utility.yul\":22830:22874   */\n      add\n        /* \"#utility.yul\":23027:23029   */\n      0x20\n        /* \"#utility.yul\":23015:23025   */\n      dup6\n        /* \"#utility.yul\":23012:23030   */\n      lt\n        /* \"#utility.yul\":23009:23058   */\n      iszero\n      tag_420\n      jumpi\n        /* \"#utility.yul\":23048:23056   */\n      dup2\n        /* \"#utility.yul\":23033:23056   */\n      swap1\n      pop\n        /* \"#utility.yul\":23009:23058   */\n    tag_420:\n        /* \"#utility.yul\":23071:23151   */\n      tag_421\n        /* \"#utility.yul\":23127:23149   */\n      tag_422\n        /* \"#utility.yul\":23145:23148   */\n      dup6\n        /* \"#utility.yul\":23127:23149   */\n      tag_182\n      jump\t// in\n    tag_422:\n        /* \"#utility.yul\":23117:23125   */\n      dup4\n        /* \"#utility.yul\":23113:23150   */\n      add\n        /* \"#utility.yul\":23100:23111   */\n      dup3\n        /* \"#utility.yul\":23071:23151   */\n      tag_191\n      jump\t// in\n    tag_421:\n        /* \"#utility.yul\":22730:23161   */\n      pop\n      pop\n        /* \"#utility.yul\":22715:23161   */\n    tag_417:\n        /* \"#utility.yul\":22625:23168   */\n      pop\n      pop\n      pop\n      jump\t// out\n        /* \"#utility.yul\":23174:23291   */\n    tag_193:\n        /* \"#utility.yul\":23228:23236   */\n      0x00\n        /* \"#utility.yul\":23278:23283   */\n      dup3\n        /* \"#utility.yul\":23272:23276   */\n      dup3\n        /* \"#utility.yul\":23268:23284   */\n      shr\n        /* \"#utility.yul\":23247:23284   */\n      swap1\n      pop\n        /* \"#utility.yul\":23174:23291   */\n      swap3\n      swap2\n      pop\n      pop\n      jump\t// out\n        /* \"#utility.yul\":23297:23466   */\n    tag_194:\n        /* \"#utility.yul\":23341:23347   */\n      0x00\n        /* \"#utility.yul\":23374:23425   */\n      tag_425\n        /* \"#utility.yul\":23422:23423   */\n      0x00\n        /* \"#utility.yul\":23418:23424   */\n      not\n        /* \"#utility.yul\":23410:23415   */\n      dup5\n        /* \"#utility.yul\":23407:23408   */\n      0x08\n        /* \"#utility.yul\":23403:23416   */\n      mul\n        /* \"#utility.yul\":23374:23425   */\n      tag_193\n      jump\t// in\n    tag_425:\n        /* \"#utility.yul\":23370:23426   */\n      not\n        /* \"#utility.yul\":23455:23459   */\n      dup1\n        /* \"#utility.yul\":23449:23453   */\n      dup4\n        /* \"#utility.yul\":23445:23460   */\n      and\n        /* \"#utility.yul\":23435:23460   */\n      swap2\n      pop\n        /* \"#utility.yul\":23348:23466   */\n      pop\n        /* \"#utility.yul\":23297:23466   */\n      swap3\n      swap2\n      pop\n      pop\n      jump\t// out\n        /* \"#utility.yul\":23471:23766   */\n    tag_195:\n        /* \"#utility.yul\":23547:23551   */\n      0x00\n        /* \"#utility.yul\":23693:23722   */\n      tag_427\n        /* \"#utility.yul\":23718:23721   */\n      dup4\n        /* \"#utility.yul\":23712:23716   */\n      dup4\n        /* \"#utility.yul\":23693:23722   */\n      tag_194\n      jump\t// in\n    tag_427:\n        /* \"#utility.yul\":23685:23722   */\n      swap2\n      pop\n        /* \"#utility.yul\":23755:23758   */\n      dup3\n        /* \"#utility.yul\":23752:23753   */\n      0x02\n        /* \"#utility.yul\":23748:23759   */\n      mul\n        /* \"#utility.yul\":23742:23746   */\n      dup3\n        /* \"#utility.yul\":23739:23760   */\n      or\n        /* \"#utility.yul\":23731:23760   */\n      swap1\n      pop\n        /* \"#utility.yul\":23471:23766   */\n      swap3\n      swap2\n      pop\n      pop\n      jump\t// out\n        /* \"#utility.yul\":23771:25166   */\n    tag_93:\n        /* \"#utility.yul\":23888:23925   */\n      tag_429\n        /* \"#utility.yul\":23921:23924   */\n      dup3\n        /* \"#utility.yul\":23888:23925   */\n      tag_143\n      jump\t// in\n    tag_429:\n        /* \"#utility.yul\":23990:24008   */\n      0xffffffffffffffff\n        /* \"#utility.yul\":23982:23988   */\n      dup2\n        /* \"#utility.yul\":23979:24009   */\n      gt\n        /* \"#utility.yul\":23976:24032   */\n      iszero\n      tag_430\n      jumpi\n        /* \"#utility.yul\":24012:24030   */\n      tag_431\n      tag_155\n      jump\t// in\n    tag_431:\n        /* \"#utility.yul\":23976:24032   */\n    tag_430:\n        /* \"#utility.yul\":24056:24094   */\n      tag_432\n        /* \"#utility.yul\":24088:24092   */\n      dup3\n        /* \"#utility.yul\":24082:24093   */\n      sload\n        /* \"#utility.yul\":24056:24094   */\n      tag_42\n      jump\t// in\n    tag_432:\n        /* \"#utility.yul\":24141:24208   */\n      tag_433\n        /* \"#utility.yul\":24201:24207   */\n      dup3\n        /* \"#utility.yul\":24193:24199   */\n      dup3\n        /* \"#utility.yul\":24187:24191   */\n      dup6\n        /* \"#utility.yul\":24141:24208   */\n      tag_192\n      jump\t// in\n    tag_433:\n        /* \"#utility.yul\":24235:24236   */\n      0x00\n        /* \"#utility.yul\":24259:24263   */\n      0x20\n        /* \"#utility.yul\":24246:24263   */\n      swap1\n      pop\n        /* \"#utility.yul\":24291:24293   */\n      0x1f\n        /* \"#utility.yul\":24283:24289   */\n      dup4\n        /* \"#utility.yul\":24280:24294   */\n      gt\n        /* \"#utility.yul\":24308:24309   */\n      0x01\n        /* \"#utility.yul\":24303:24921   */\n      dup2\n      eq\n      tag_435\n      jumpi\n        /* \"#utility.yul\":24965:24966   */\n      0x00\n        /* \"#utility.yul\":24982:24988   */\n      dup5\n        /* \"#utility.yul\":24979:25056   */\n      iszero\n      tag_436\n      jumpi\n        /* \"#utility.yul\":25031:25040   */\n      dup3\n        /* \"#utility.yul\":25026:25029   */\n      dup8\n        /* \"#utility.yul\":25022:25041   */\n      add\n        /* \"#utility.yul\":25016:25042   */\n      mload\n        /* \"#utility.yul\":25007:25042   */\n      swap1\n      pop\n        /* \"#utility.yul\":24979:25056   */\n    tag_436:\n        /* \"#utility.yul\":25082:25149   */\n      tag_437\n        /* \"#utility.yul\":25142:25148   */\n      dup6\n        /* \"#utility.yul\":25135:25140   */\n      dup3\n        /* \"#utility.yul\":25082:25149   */\n      tag_195\n      jump\t// in\n    tag_437:\n        /* \"#utility.yul\":25076:25080   */\n      dup7\n        /* \"#utility.yul\":25069:25150   */\n      sstore\n        /* \"#utility.yul\":24938:25160   */\n      pop\n        /* \"#utility.yul\":24273:25160   */\n      jump(tag_434)\n        /* \"#utility.yul\":24303:24921   */\n    tag_435:\n        /* \"#utility.yul\":24355:24359   */\n      0x1f\n        /* \"#utility.yul\":24351:24360   */\n      not\n        /* \"#utility.yul\":24343:24349   */\n      dup5\n        /* \"#utility.yul\":24339:24361   */\n      and\n        /* \"#utility.yul\":24389:24426   */\n      tag_438\n        /* \"#utility.yul\":24421:24425   */\n      dup7\n        /* \"#utility.yul\":24389:24426   */\n      tag_177\n      jump\t// in\n    tag_438:\n        /* \"#utility.yul\":24448:24449   */\n      0x00\n        /* \"#utility.yul\":24462:24670   */\n    tag_439:\n        /* \"#utility.yul\":24476:24483   */\n      dup3\n        /* \"#utility.yul\":24473:24474   */\n      dup2\n        /* \"#utility.yul\":24470:24484   */\n      lt\n        /* \"#utility.yul\":24462:24670   */\n      iszero\n      tag_441\n      jumpi\n        /* \"#utility.yul\":24555:24564   */\n      dup5\n        /* \"#utility.yul\":24550:24553   */\n      dup10\n        /* \"#utility.yul\":24546:24565   */\n      add\n        /* \"#utility.yul\":24540:24566   */\n      mload\n        /* \"#utility.yul\":24532:24538   */\n      dup3\n        /* \"#utility.yul\":24525:24567   */\n      sstore\n        /* \"#utility.yul\":24606:24607   */\n      0x01\n        /* \"#utility.yul\":24598:24604   */\n      dup3\n        /* \"#utility.yul\":24594:24608   */\n      add\n        /* \"#utility.yul\":24584:24608   */\n      swap2\n      pop\n        /* \"#utility.yul\":24653:24655   */\n      0x20\n        /* \"#utility.yul\":24642:24651   */\n      dup6\n        /* \"#utility.yul\":24638:24656   */\n      add\n        /* \"#utility.yul\":24625:24656   */\n      swap5\n      pop\n        /* \"#utility.yul\":24499:24503   */\n      0x20\n        /* \"#utility.yul\":24496:24497   */\n      dup2\n        /* \"#utility.yul\":24492:24504   */\n      add\n        /* \"#utility.yul\":24487:24504   */\n      swap1\n      pop\n        /* \"#utility.yul\":24462:24670   */\n      jump(tag_439)\n    tag_441:\n        /* \"#utility.yul\":24698:24704   */\n      dup7\n        /* \"#utility.yul\":24689:24696   */\n      dup4\n        /* \"#utility.yul\":24686:24705   */\n      lt\n        /* \"#utility.yul\":24683:24862   */\n      iszero\n      tag_442\n      jumpi\n        /* \"#utility.yul\":24756:24765   */\n      dup5\n        /* \"#utility.yul\":24751:24754   */\n      dup10\n        /* \"#utility.yul\":24747:24766   */\n      add\n        /* \"#utility.yul\":24741:24767   */\n      mload\n        /* \"#utility.yul\":24799:24847   */\n      tag_443\n        /* \"#utility.yul\":24841:24845   */\n      0x1f\n        /* \"#utility.yul\":24833:24839   */\n      dup10\n        /* \"#utility.yul\":24829:24846   */\n      and\n        /* \"#utility.yul\":24818:24827   */\n      dup3\n        /* \"#utility.yul\":24799:24847   */\n      tag_194\n      jump\t// in\n    tag_443:\n        /* \"#utility.yul\":24791:24797   */\n      dup4\n        /* \"#utility.yul\":24784:24848   */\n      sstore\n        /* \"#utility.yul\":24706:24862   */\n      pop\n        /* \"#utility.yul\":24683:24862   */\n    tag_442:\n        /* \"#utility.yul\":24908:24909   */\n      0x01\n        /* \"#utility.yul\":24904:24905   */\n      0x02\n        /* \"#utility.yul\":24896:24902   */\n      dup9\n        /* \"#utility.yul\":24892:24906   */\n      mul\n        /* \"#utility.yul\":24888:24910   */\n      add\n        /* \"#utility.yul\":24882:24886   */\n      dup9\n        /* \"#utility.yul\":24875:24911   */\n      sstore\n        /* \"#utility.yul\":24310:24921   */\n      pop\n      pop\n      pop\n        /* \"#utility.yul\":24273:25160   */\n    tag_434:\n      pop\n        /* \"#utility.yul\":23863:25166   */\n      pop\n      pop\n      pop\n        /* \"#utility.yul\":23771:25166   */\n      pop\n      pop\n      jump\t// out\n\n    auxdata: 0xa2646970667358221220c611ad7b7afe306b0d4d4eb5cfd696a58506f075056a454af325e007e8e0decb64736f6c63430008120033\n}\n",
				"bytecode": {
					"linkReferences": {},
					"object": "608060405234801561001057600080fd5b50611b16806100206000396000f3fe608060405234801561001057600080fd5b50600436106100625760003560e01c80632cc772f0146100675780638ad104191461009f578063b144f378146100bd578063bf22c457146100ee578063c2939d9714610125578063e8b780cf14610143575b600080fd5b610081600480360381019061007c9190610df0565b610174565b60405161009699989796959493929190610f27565b60405180910390f35b6100a761053d565b6040516100b49190610fed565b60405180910390f35b6100d760048036038101906100d29190611169565b610543565b6040516100e592919061121c565b60405180910390f35b61010860048036038101906101039190610df0565b6107f0565b60405161011c98979695949392919061124c565b60405180910390f35b61012d610bb5565b60405161013a9190610fed565b60405180910390f35b61015d6004803603810190610158919061134c565b610bbb565b60405161016b9291906114be565b60405180910390f35b6002818154811061018457600080fd5b90600052602060002090600902016000915090508060000160009054906101000a900473ffffffffffffffffffffffffffffffffffffffff16908060010180546101cd9061151d565b80601f01602080910402602001604051908101604052809291908181526020018280546101f99061151d565b80156102465780601f1061021b57610100808354040283529160200191610246565b820191906000526020600020905b81548152906001019060200180831161022957829003601f168201915b50505050509080600201805461025b9061151d565b80601f01602080910402602001604051908101604052809291908181526020018280546102879061151d565b80156102d45780601f106102a9576101008083540402835291602001916102d4565b820191906000526020600020905b8154815290600101906020018083116102b757829003601f168201915b5050505050908060030180546102e99061151d565b80601f01602080910402602001604051908101604052809291908181526020018280546103159061151d565b80156103625780601f1061033757610100808354040283529160200191610362565b820191906000526020600020905b81548152906001019060200180831161034557829003601f168201915b5050505050908060040160009054906101000a900461ffff169080600501805461038b9061151d565b80601f01602080910402602001604051908101604052809291908181526020018280546103b79061151d565b80156104045780601f106103d957610100808354040283529160200191610404565b820191906000526020600020905b8154815290600101906020018083116103e757829003601f168201915b5050505050908060060160009054906101000a900460ff169080600701805461042c9061151d565b80601f01602080910402602001604051908101604052809291908181526020018280546104589061151d565b80156104a55780601f1061047a576101008083540402835291602001916104a5565b820191906000526020600020905b81548152906001019060200180831161048857829003601f168201915b5050505050908060080180546104ba9061151d565b80601f01602080910402602001604051908101604052809291908181526020018280546104e69061151d565b80156105335780601f1061050857610100808354040283529160200191610533565b820191906000526020600020905b81548152906001019060200180831161051657829003601f168201915b5050505050905089565b60045481565b606060006004600081548092919061055a9061157d565b9190505550600087116105a2576040517f08c379a000000000000000000000000000000000000000000000000000000000815260040161059990611611565b60405180910390fd5b6003548611156105e7576040517f08c379a00000000000000000000000000000000000000000000000000000000081526004016105de9061167d565b60405180910390fd5b600080600088815260200190815260200160002090508060060160009054906101000a900460ff1660ff168560ff161015610657576040517f08c379a000000000000000000000000000000000000000000000000000000000815260040161064e906116e9565b60405180910390fd5b8060070160405160200161066b91906117ac565b604051602081830303815290604052805190602001208460405160200161069291906117f4565b60405160208183030381529060405280519060200120146106e8576040517f08c379a00000000000000000000000000000000000000000000000000000000081526004016106df90611857565b60405180910390fd5b600060405180608001604052808a81526020018881526020018760ff1681526020018681525090506001600089815260200190815260200160002081908060018154018082558091505060019003906000526020600020906004020160009091909190915060008201518160000155602082015181600101908161076c9190611a0e565b5060408201518160020160006101000a81548160ff021916908360ff16021790555060608201518160030190816107a39190611a0e565b5050506004546040518060400160405280601781526020017f4170706c69636174696f6e207375636365737366756c6c000000000000000000815250909350935050509550959350505050565b606080606060006060600060608060008060008b815260200190815260200160002090508060010181600201826003018360040160009054906101000a900461ffff16846005018560060160009054906101000a900460ff16866007018760080187805461085d9061151d565b80601f01602080910402602001604051908101604052809291908181526020018280546108899061151d565b80156108d65780601f106108ab576101008083540402835291602001916108d6565b820191906000526020600020905b8154815290600101906020018083116108b957829003601f168201915b505050505097508680546108e99061151d565b80601f01602080910402602001604051908101604052809291908181526020018280546109159061151d565b80156109625780601f1061093757610100808354040283529160200191610962565b820191906000526020600020905b81548152906001019060200180831161094557829003601f168201915b505050505096508580546109759061151d565b80601f01602080910402602001604051908101604052809291908181526020018280546109a19061151d565b80156109ee5780601f106109c3576101008083540402835291602001916109ee565b820191906000526020600020905b8154815290600101906020018083116109d157829003601f168201915b50505050509550838054610a019061151d565b80601f0160208091040260200160405190810160405280929190818152602001828054610a2d9061151d565b8015610a7a5780601f10610a4f57610100808354040283529160200191610a7a565b820191906000526020600020905b815481529060010190602001808311610a5d57829003601f168201915b50505050509350818054610a8d9061151d565b80601f0160208091040260200160405190810160405280929190818152602001828054610ab99061151d565b8015610b065780601f10610adb57610100808354040283529160200191610b06565b820191906000526020600020905b815481529060010190602001808311610ae957829003601f168201915b50505050509150808054610b199061151d565b80601f0160208091040260200160405190810160405280929190818152602001828054610b459061151d565b8015610b925780601f10610b6757610100808354040283529160200191610b92565b820191906000526020600020905b815481529060010190602001808311610b7557829003601f168201915b505050505090509850985098509850985098509850985050919395975091939597565b60035481565b6000606060036000815480929190610bd29061157d565b91905055506040518061012001604052808c73ffffffffffffffffffffffffffffffffffffffff1681526020018b81526020018a81526020018981526020018861ffff1681526020018781526020018660ff16815260200185815260200184815250600080600354815260200190815260200160002060008201518160000160006101000a81548173ffffffffffffffffffffffffffffffffffffffff021916908373ffffffffffffffffffffffffffffffffffffffff1602179055506020820151816001019081610ca49190611a0e565b506040820151816002019081610cba9190611a0e565b506060820151816003019081610cd09190611a0e565b5060808201518160040160006101000a81548161ffff021916908361ffff16021790555060a0820151816005019081610d099190611a0e565b5060c08201518160060160006101000a81548160ff021916908360ff16021790555060e0820151816007019081610d409190611a0e565b50610100820151816008019081610d579190611a0e565b509050506003546040518060400160405280601781526020017f4a6f6220506f73746564205375636365737366756c6c7900000000000000000081525091509150995099975050505050505050565b6000604051905090565b600080fd5b600080fd5b6000819050919050565b610dcd81610dba565b8114610dd857600080fd5b50565b600081359050610dea81610dc4565b92915050565b600060208284031215610e0657610e05610db0565b5b6000610e1484828501610ddb565b91505092915050565b600073ffffffffffffffffffffffffffffffffffffffff82169050919050565b6000610e4882610e1d565b9050919050565b610e5881610e3d565b82525050565b600081519050919050565b600082825260208201905092915050565b60005b83811015610e98578082015181840152602081019050610e7d565b60008484015250505050565b6000601f19601f8301169050919050565b6000610ec082610e5e565b610eca8185610e69565b9350610eda818560208601610e7a565b610ee381610ea4565b840191505092915050565b600061ffff82169050919050565b610f0581610eee565b82525050565b600060ff82169050919050565b610f2181610f0b565b82525050565b600061012082019050610f3d600083018c610e4f565b8181036020830152610f4f818b610eb5565b90508181036040830152610f63818a610eb5565b90508181036060830152610f778189610eb5565b9050610f866080830188610efc565b81810360a0830152610f988187610eb5565b9050610fa760c0830186610f18565b81810360e0830152610fb98185610eb5565b9050818103610100830152610fce8184610eb5565b90509a9950505050505050505050565b610fe781610dba565b82525050565b60006020820190506110026000830184610fde565b92915050565b600080fd5b600080fd5b7f4e487b7100000000000000000000000000000000000000000000000000000000600052604160045260246000fd5b61104a82610ea4565b810181811067ffffffffffffffff8211171561106957611068611012565b5b80604052505050565b600061107c610da6565b90506110888282611041565b919050565b600067ffffffffffffffff8211156110a8576110a7611012565b5b6110b182610ea4565b9050602081019050919050565b82818337600083830152505050565b60006110e06110db8461108d565b611072565b9050828152602081018484840111156110fc576110fb61100d565b5b6111078482856110be565b509392505050565b600082601f83011261112457611123611008565b5b81356111348482602086016110cd565b91505092915050565b61114681610f0b565b811461115157600080fd5b50565b6000813590506111638161113d565b92915050565b600080600080600060a0868803121561118557611184610db0565b5b600061119388828901610ddb565b95505060206111a488828901610ddb565b945050604086013567ffffffffffffffff8111156111c5576111c4610db5565b5b6111d18882890161110f565b93505060606111e288828901611154565b925050608086013567ffffffffffffffff81111561120357611202610db5565b5b61120f8882890161110f565b9150509295509295909350565b600060408201905081810360008301526112368185610eb5565b90506112456020830184610fde565b9392505050565b6000610100820190508181036000830152611267818b610eb5565b9050818103602083015261127b818a610eb5565b9050818103604083015261128f8189610eb5565b905061129e6060830188610efc565b81810360808301526112b08187610eb5565b90506112bf60a0830186610f18565b81810360c08301526112d18185610eb5565b905081810360e08301526112e58184610eb5565b90509998505050505050505050565b6112fd81610e3d565b811461130857600080fd5b50565b60008135905061131a816112f4565b92915050565b61132981610eee565b811461133457600080fd5b50565b60008135905061134681611320565b92915050565b60008060008060008060008060006101208a8c03121561136f5761136e610db0565b5b600061137d8c828d0161130b565b99505060208a013567ffffffffffffffff81111561139e5761139d610db5565b5b6113aa8c828d0161110f565b98505060408a013567ffffffffffffffff8111156113cb576113ca610db5565b5b6113d78c828d0161110f565b97505060608a013567ffffffffffffffff8111156113f8576113f7610db5565b5b6114048c828d0161110f565b96505060806114158c828d01611337565b95505060a08a013567ffffffffffffffff81111561143657611435610db5565b5b6114428c828d0161110f565b94505060c06114538c828d01611154565b93505060e08a013567ffffffffffffffff81111561147457611473610db5565b5b6114808c828d0161110f565b9250506101008a013567ffffffffffffffff8111156114a2576114a1610db5565b5b6114ae8c828d0161110f565b9150509295985092959850929598565b60006040820190506114d36000830185610fde565b81810360208301526114e58184610eb5565b90509392505050565b7f4e487b7100000000000000000000000000000000000000000000000000000000600052602260045260246000fd5b6000600282049050600182168061153557607f821691505b602082108103611548576115476114ee565b5b50919050565b7f4e487b7100000000000000000000000000000000000000000000000000000000600052601160045260246000fd5b600061158882610dba565b91507fffffffffffffffffffffffffffffffffffffffffffffffffffffffffffffffff82036115ba576115b961154e565b5b600182019050919050565b7f496e76616c696420496e707574206170706c69636174696f6e20696400000000600082015250565b60006115fb601c83610e69565b9150611606826115c5565b602082019050919050565b6000602082019050818103600083015261162a816115ee565b9050919050565b7f496e76616c6964204a6f62204944000000000000000000000000000000000000600082015250565b6000611667600e83610e69565b915061167282611631565b602082019050919050565b600060208201905081810360008301526116968161165a565b9050919050565b7f556e6465726167652063616e6469646174650000000000000000000000000000600082015250565b60006116d3601283610e69565b91506116de8261169d565b602082019050919050565b60006020820190508181036000830152611702816116c6565b9050919050565b600081905092915050565b60008190508160005260206000209050919050565b600081546117368161151d565b6117408186611709565b9450600182166000811461175b5760018114611770576117a3565b60ff19831686528115158202860193506117a3565b61177985611714565b60005b8381101561179b5781548189015260018201915060208101905061177c565b838801955050505b50505092915050565b60006117b88284611729565b915081905092915050565b60006117ce82610e5e565b6117d88185611709565b93506117e8818560208601610e7a565b80840191505092915050565b600061180082846117c3565b915081905092915050565b7f536b696c6c7320646f206e6f74206d6174636800000000000000000000000000600082015250565b6000611841601383610e69565b915061184c8261180b565b602082019050919050565b6000602082019050818103600083015261187081611834565b9050919050565b60006020601f8301049050919050565b600082821b905092915050565b6000600883026118c47fffffffffffffffffffffffffffffffffffffffffffffffffffffffffffffffff82611887565b6118ce8683611887565b95508019841693508086168417925050509392505050565b6000819050919050565b600061190b61190661190184610dba565b6118e6565b610dba565b9050919050565b6000819050919050565b611925836118f0565b61193961193182611912565b848454611894565b825550505050565b600090565b61194e611941565b61195981848461191c565b505050565b5b8181101561197d57611972600082611946565b60018101905061195f565b5050565b601f8211156119c25761199381611714565b61199c84611877565b810160208510156119ab578190505b6119bf6119b785611877565b83018261195e565b50505b505050565b600082821c905092915050565b60006119e5600019846008026119c7565b1980831691505092915050565b60006119fe83836119d4565b9150826002028217905092915050565b611a1782610e5e565b67ffffffffffffffff811115611a3057611a2f611012565b5b611a3a825461151d565b611a45828285611981565b600060209050601f831160018114611a785760008415611a66578287015190505b611a7085826119f2565b865550611ad8565b601f198416611a8686611714565b60005b82811015611aae57848901518255600182019150602085019450602081019050611a89565b86831015611acb5784890151611ac7601f8916826119d4565b8355505b6001600288020188555050505b50505050505056fea2646970667358221220c611ad7b7afe306b0d4d4eb5cfd696a58506f075056a454af325e007e8e0decb64736f6c63430008120033",
					"opcodes": "PUSH1 0x80 PUSH1 0x40 MSTORE CALLVALUE DUP1 ISZERO PUSH2 0x10 JUMPI PUSH1 0x0 DUP1 REVERT JUMPDEST POP PUSH2 0x1B16 DUP1 PUSH2 0x20 PUSH1 0x0 CODECOPY PUSH1 0x0 RETURN INVALID PUSH1 0x80 PUSH1 0x40 MSTORE CALLVALUE DUP1 ISZERO PUSH2 0x10 JUMPI PUSH1 0x0 DUP1 REVERT JUMPDEST POP PUSH1 0x4 CALLDATASIZE LT PUSH2 0x62 JUMPI PUSH1 0x0 CALLDATALOAD PUSH1 0xE0 SHR DUP1 PUSH4 0x2CC772F0 EQ PUSH2 0x67 JUMPI DUP1 PUSH4 0x8AD10419 EQ PUSH2 0x9F JUMPI DUP1 PUSH4 0xB144F378 EQ PUSH2 0xBD JUMPI DUP1 PUSH4 0xBF22C457 EQ PUSH2 0xEE JUMPI DUP1 PUSH4 0xC2939D97 EQ PUSH2 0x125 JUMPI DUP1 PUSH4 0xE8B780CF EQ PUSH2 0x143 JUMPI JUMPDEST PUSH1 0x0 DUP1 REVERT JUMPDEST PUSH2 0x81 PUSH1 0x4 DUP1 CALLDATASIZE SUB DUP2 ADD SWAP1 PUSH2 0x7C SWAP2 SWAP1 PUSH2 0xDF0 JUMP JUMPDEST PUSH2 0x174 JUMP JUMPDEST PUSH1 0x40 MLOAD PUSH2 0x96 SWAP10 SWAP9 SWAP8 SWAP7 SWAP6 SWAP5 SWAP4 SWAP3 SWAP2 SWAP1 PUSH2 0xF27 JUMP JUMPDEST PUSH1 0x40 MLOAD DUP1 SWAP2 SUB SWAP1 RETURN JUMPDEST PUSH2 0xA7 PUSH2 0x53D JUMP JUMPDEST PUSH1 0x40 MLOAD PUSH2 0xB4 SWAP2 SWAP1 PUSH2 0xFED JUMP JUMPDEST PUSH1 0x40 MLOAD DUP1 SWAP2 SUB SWAP1 RETURN JUMPDEST PUSH2 0xD7 PUSH1 0x4 DUP1 CALLDATASIZE SUB DUP2 ADD SWAP1 PUSH2 0xD2 SWAP2 SWAP1 PUSH2 0x1169 JUMP JUMPDEST PUSH2 0x543 JUMP JUMPDEST PUSH1 0x40 MLOAD PUSH2 0xE5 SWAP3 SWAP2 SWAP1 PUSH2 0x121C JUMP JUMPDEST PUSH1 0x40 MLOAD DUP1 SWAP2 SUB SWAP1 RETURN JUMPDEST PUSH2 0x108 PUSH1 0x4 DUP1 CALLDATASIZE SUB DUP2 ADD SWAP1 PUSH2 0x103 SWAP2 SWAP1 PUSH2 0xDF0 JUMP JUMPDEST PUSH2 0x7F0 JUMP JUMPDEST PUSH1 0x40 MLOAD PUSH2 0x11C SWAP9 SWAP8 SWAP7 SWAP6 SWAP5 SWAP4 SWAP3 SWAP2 SWAP1 PUSH2 0x124C JUMP JUMPDEST PUSH1 0x40 MLOAD DUP1 SWAP2 SUB SWAP1 RETURN JUMPDEST PUSH2 0x12D PUSH2 0xBB5 JUMP JUMPDEST PUSH1 0x40 MLOAD PUSH2 0x13A SWAP2 SWAP1 PUSH2 0xFED JUMP JUMPDEST PUSH1 0x40 MLOAD DUP1 SWAP2 SUB SWAP1 RETURN JUMPDEST PUSH2 0x15D PUSH1 0x4 DUP1 CALLDATASIZE SUB DUP2 ADD SWAP1 PUSH2 0x158 SWAP2 SWAP1 PUSH2 0x134C JUMP JUMPDEST PUSH2 0xBBB JUMP JUMPDEST PUSH1 0x40 MLOAD PUSH2 0x16B SWAP3 SWAP2 SWAP1 PUSH2 0x14BE JUMP JUMPDEST PUSH1 0x40 MLOAD DUP1 SWAP2 SUB SWAP1 RETURN JUMPDEST PUSH1 0x2 DUP2 DUP2 SLOAD DUP2 LT PUSH2 0x184 JUMPI PUSH1 0x0 DUP1 REVERT JUMPDEST SWAP1 PUSH1 0x0 MSTORE PUSH1 0x20 PUSH1 0x0 KECCAK256 SWAP1 PUSH1 0x9 MUL ADD PUSH1 0x0 SWAP2 POP SWAP1 POP DUP1 PUSH1 0x0 ADD PUSH1 0x0 SWAP1 SLOAD SWAP1 PUSH2 0x100 EXP SWAP1 DIV PUSH20 0xFFFFFFFFFFFFFFFFFFFFFFFFFFFFFFFFFFFFFFFF AND SWAP1 DUP1 PUSH1 0x1 ADD DUP1 SLOAD PUSH2 0x1CD SWAP1 PUSH2 0x151D JUMP JUMPDEST DUP1 PUSH1 0x1F ADD PUSH1 0x20 DUP1 SWAP2 DIV MUL PUSH1 0x20 ADD PUSH1 0x40 MLOAD SWAP1 DUP2 ADD PUSH1 0x40 MSTORE DUP1 SWAP3 SWAP2 SWAP1 DUP2 DUP2 MSTORE PUSH1 0x20 ADD DUP3 DUP1 SLOAD PUSH2 0x1F9 SWAP1 PUSH2 0x151D JUMP JUMPDEST DUP1 ISZERO PUSH2 0x246 JUMPI DUP1 PUSH1 0x1F LT PUSH2 0x21B JUMPI PUSH2 0x100 DUP1 DUP4 SLOAD DIV MUL DUP4 MSTORE SWAP2 PUSH1 0x20 ADD SWAP2 PUSH2 0x246 JUMP JUMPDEST DUP3 ADD SWAP2 SWAP1 PUSH1 0x0 MSTORE PUSH1 0x20 PUSH1 0x0 KECCAK256 SWAP1 JUMPDEST DUP2 SLOAD DUP2 MSTORE SWAP1 PUSH1 0x1 ADD SWAP1 PUSH1 0x20 ADD DUP1 DUP4 GT PUSH2 0x229 JUMPI DUP3 SWAP1 SUB PUSH1 0x1F AND DUP3 ADD SWAP2 JUMPDEST POP POP POP POP POP SWAP1 DUP1 PUSH1 0x2 ADD DUP1 SLOAD PUSH2 0x25B SWAP1 PUSH2 0x151D JUMP JUMPDEST DUP1 PUSH1 0x1F ADD PUSH1 0x20 DUP1 SWAP2 DIV MUL PUSH1 0x20 ADD PUSH1 0x40 MLOAD SWAP1 DUP2 ADD PUSH1 0x40 MSTORE DUP1 SWAP3 SWAP2 SWAP1 DUP2 DUP2 MSTORE PUSH1 0x20 ADD DUP3 DUP1 SLOAD PUSH2 0x287 SWAP1 PUSH2 0x151D JUMP JUMPDEST DUP1 ISZERO PUSH2 0x2D4 JUMPI DUP1 PUSH1 0x1F LT PUSH2 0x2A9 JUMPI PUSH2 0x100 DUP1 DUP4 SLOAD DIV MUL DUP4 MSTORE SWAP2 PUSH1 0x20 ADD SWAP2 PUSH2 0x2D4 JUMP JUMPDEST DUP3 ADD SWAP2 SWAP1 PUSH1 0x0 MSTORE PUSH1 0x20 PUSH1 0x0 KECCAK256 SWAP1 JUMPDEST DUP2 SLOAD DUP2 MSTORE SWAP1 PUSH1 0x1 ADD SWAP1 PUSH1 0x20 ADD DUP1 DUP4 GT PUSH2 0x2B7 JUMPI DUP3 SWAP1 SUB PUSH1 0x1F AND DUP3 ADD SWAP2 JUMPDEST POP POP POP POP POP SWAP1 DUP1 PUSH1 0x3 ADD DUP1 SLOAD PUSH2 0x2E9 SWAP1 PUSH2 0x151D JUMP JUMPDEST DUP1 PUSH1 0x1F ADD PUSH1 0x20 DUP1 SWAP2 DIV MUL PUSH1 0x20 ADD PUSH1 0x40 MLOAD SWAP1 DUP2 ADD PUSH1 0x40 MSTORE DUP1 SWAP3 SWAP2 SWAP1 DUP2 DUP2 MSTORE PUSH1 0x20 ADD DUP3 DUP1 SLOAD PUSH2 0x315 SWAP1 PUSH2 0x151D JUMP JUMPDEST DUP1 ISZERO PUSH2 0x362 JUMPI DUP1 PUSH1 0x1F LT PUSH2 0x337 JUMPI PUSH2 0x100 DUP1 DUP4 SLOAD DIV MUL DUP4 MSTORE SWAP2 PUSH1 0x20 ADD SWAP2 PUSH2 0x362 JUMP JUMPDEST DUP3 ADD SWAP2 SWAP1 PUSH1 0x0 MSTORE PUSH1 0x20 PUSH1 0x0 KECCAK256 SWAP1 JUMPDEST DUP2 SLOAD DUP2 MSTORE SWAP1 PUSH1 0x1 ADD SWAP1 PUSH1 0x20 ADD DUP1 DUP4 GT PUSH2 0x345 JUMPI DUP3 SWAP1 SUB PUSH1 0x1F AND DUP3 ADD SWAP2 JUMPDEST POP POP POP POP POP SWAP1 DUP1 PUSH1 0x4 ADD PUSH1 0x0 SWAP1 SLOAD SWAP1 PUSH2 0x100 EXP SWAP1 DIV PUSH2 0xFFFF AND SWAP1 DUP1 PUSH1 0x5 ADD DUP1 SLOAD PUSH2 0x38B SWAP1 PUSH2 0x151D JUMP JUMPDEST DUP1 PUSH1 0x1F ADD PUSH1 0x20 DUP1 SWAP2 DIV MUL PUSH1 0x20 ADD PUSH1 0x40 MLOAD SWAP1 DUP2 ADD PUSH1 0x40 MSTORE DUP1 SWAP3 SWAP2 SWAP1 DUP2 DUP2 MSTORE PUSH1 0x20 ADD DUP3 DUP1 SLOAD PUSH2 0x3B7 SWAP1 PUSH2 0x151D JUMP JUMPDEST DUP1 ISZERO PUSH2 0x404 JUMPI DUP1 PUSH1 0x1F LT PUSH2 0x3D9 JUMPI PUSH2 0x100 DUP1 DUP4 SLOAD DIV MUL DUP4 MSTORE SWAP2 PUSH1 0x20 ADD SWAP2 PUSH2 0x404 JUMP JUMPDEST DUP3 ADD SWAP2 SWAP1 PUSH1 0x0 MSTORE PUSH1 0x20 PUSH1 0x0 KECCAK256 SWAP1 JUMPDEST DUP2 SLOAD DUP2 MSTORE SWAP1 PUSH1 0x1 ADD SWAP1 PUSH1 0x20 ADD DUP1 DUP4 GT PUSH2 0x3E7 JUMPI DUP3 SWAP1 SUB PUSH1 0x1F AND DUP3 ADD SWAP2 JUMPDEST POP POP POP POP POP SWAP1 DUP1 PUSH1 0x6 ADD PUSH1 0x0 SWAP1 SLOAD SWAP1 PUSH2 0x100 EXP SWAP1 DIV PUSH1 0xFF AND SWAP1 DUP1 PUSH1 0x7 ADD DUP1 SLOAD PUSH2 0x42C SWAP1 PUSH2 0x151D JUMP JUMPDEST DUP1 PUSH1 0x1F ADD PUSH1 0x20 DUP1 SWAP2 DIV MUL PUSH1 0x20 ADD PUSH1 0x40 MLOAD SWAP1 DUP2 ADD PUSH1 0x40 MSTORE DUP1 SWAP3 SWAP2 SWAP1 DUP2 DUP2 MSTORE PUSH1 0x20 ADD DUP3 DUP1 SLOAD PUSH2 0x458 SWAP1 PUSH2 0x151D JUMP JUMPDEST DUP1 ISZERO PUSH2 0x4A5 JUMPI DUP1 PUSH1 0x1F LT PUSH2 0x47A JUMPI PUSH2 0x100 DUP1 DUP4 SLOAD DIV MUL DUP4 MSTORE SWAP2 PUSH1 0x20 ADD SWAP2 PUSH2 0x4A5 JUMP JUMPDEST DUP3 ADD SWAP2 SWAP1 PUSH1 0x0 MSTORE PUSH1 0x20 PUSH1 0x0 KECCAK256 SWAP1 JUMPDEST DUP2 SLOAD DUP2 MSTORE SWAP1 PUSH1 0x1 ADD SWAP1 PUSH1 0x20 ADD DUP1 DUP4 GT PUSH2 0x488 JUMPI DUP3 SWAP1 SUB PUSH1 0x1F AND DUP3 ADD SWAP2 JUMPDEST POP POP POP POP POP SWAP1 DUP1 PUSH1 0x8 ADD DUP1 SLOAD PUSH2 0x4BA SWAP1 PUSH2 0x151D JUMP JUMPDEST DUP1 PUSH1 0x1F ADD PUSH1 0x20 DUP1 SWAP2 DIV MUL PUSH1 0x20 ADD PUSH1 0x40 MLOAD SWAP1 DUP2 ADD PUSH1 0x40 MSTORE DUP1 SWAP3 SWAP2 SWAP1 DUP2 DUP2 MSTORE PUSH1 0x20 ADD DUP3 DUP1 SLOAD PUSH2 0x4E6 SWAP1 PUSH2 0x151D JUMP JUMPDEST DUP1 ISZERO PUSH2 0x533 JUMPI DUP1 PUSH1 0x1F LT PUSH2 0x508 JUMPI PUSH2 0x100 DUP1 DUP4 SLOAD DIV MUL DUP4 MSTORE SWAP2 PUSH1 0x20 ADD SWAP2 PUSH2 0x533 JUMP JUMPDEST DUP3 ADD SWAP2 SWAP1 PUSH1 0x0 MSTORE PUSH1 0x20 PUSH1 0x0 KECCAK256 SWAP1 JUMPDEST DUP2 SLOAD DUP2 MSTORE SWAP1 PUSH1 0x1 ADD SWAP1 PUSH1 0x20 ADD DUP1 DUP4 GT PUSH2 0x516 JUMPI DUP3 SWAP1 SUB PUSH1 0x1F AND DUP3 ADD SWAP2 JUMPDEST POP POP POP POP POP SWAP1 POP DUP10 JUMP JUMPDEST PUSH1 0x4 SLOAD DUP2 JUMP JUMPDEST PUSH1 0x60 PUSH1 0x0 PUSH1 0x4 PUSH1 0x0 DUP2 SLOAD DUP1 SWAP3 SWAP2 SWAP1 PUSH2 0x55A SWAP1 PUSH2 0x157D JUMP JUMPDEST SWAP2 SWAP1 POP SSTORE POP PUSH1 0x0 DUP8 GT PUSH2 0x5A2 JUMPI PUSH1 0x40 MLOAD PUSH32 0x8C379A000000000000000000000000000000000000000000000000000000000 DUP2 MSTORE PUSH1 0x4 ADD PUSH2 0x599 SWAP1 PUSH2 0x1611 JUMP JUMPDEST PUSH1 0x40 MLOAD DUP1 SWAP2 SUB SWAP1 REVERT JUMPDEST PUSH1 0x3 SLOAD DUP7 GT ISZERO PUSH2 0x5E7 JUMPI PUSH1 0x40 MLOAD PUSH32 0x8C379A000000000000000000000000000000000000000000000000000000000 DUP2 MSTORE PUSH1 0x4 ADD PUSH2 0x5DE SWAP1 PUSH2 0x167D JUMP JUMPDEST PUSH1 0x40 MLOAD DUP1 SWAP2 SUB SWAP1 REVERT JUMPDEST PUSH1 0x0 DUP1 PUSH1 0x0 DUP9 DUP2 MSTORE PUSH1 0x20 ADD SWAP1 DUP2 MSTORE PUSH1 0x20 ADD PUSH1 0x0 KECCAK256 SWAP1 POP DUP1 PUSH1 0x6 ADD PUSH1 0x0 SWAP1 SLOAD SWAP1 PUSH2 0x100 EXP SWAP1 DIV PUSH1 0xFF AND PUSH1 0xFF AND DUP6 PUSH1 0xFF AND LT ISZERO PUSH2 0x657 JUMPI PUSH1 0x40 MLOAD PUSH32 0x8C379A000000000000000000000000000000000000000000000000000000000 DUP2 MSTORE PUSH1 0x4 ADD PUSH2 0x64E SWAP1 PUSH2 0x16E9 JUMP JUMPDEST PUSH1 0x40 MLOAD DUP1 SWAP2 SUB SWAP1 REVERT JUMPDEST DUP1 PUSH1 0x7 ADD PUSH1 0x40 MLOAD PUSH1 0x20 ADD PUSH2 0x66B SWAP2 SWAP1 PUSH2 0x17AC JUMP JUMPDEST PUSH1 0x40 MLOAD PUSH1 0x20 DUP2 DUP4 SUB SUB DUP2 MSTORE SWAP1 PUSH1 0x40 MSTORE DUP1 MLOAD SWAP1 PUSH1 0x20 ADD KECCAK256 DUP5 PUSH1 0x40 MLOAD PUSH1 0x20 ADD PUSH2 0x692 SWAP2 SWAP1 PUSH2 0x17F4 JUMP JUMPDEST PUSH1 0x40 MLOAD PUSH1 0x20 DUP2 DUP4 SUB SUB DUP2 MSTORE SWAP1 PUSH1 0x40 MSTORE DUP1 MLOAD SWAP1 PUSH1 0x20 ADD KECCAK256 EQ PUSH2 0x6E8 JUMPI PUSH1 0x40 MLOAD PUSH32 0x8C379A000000000000000000000000000000000000000000000000000000000 DUP2 MSTORE PUSH1 0x4 ADD PUSH2 0x6DF SWAP1 PUSH2 0x1857 JUMP JUMPDEST PUSH1 0x40 MLOAD DUP1 SWAP2 SUB SWAP1 REVERT JUMPDEST PUSH1 0x0 PUSH1 0x40 MLOAD DUP1 PUSH1 0x80 ADD PUSH1 0x40 MSTORE DUP1 DUP11 DUP2 MSTORE PUSH1 0x20 ADD DUP9 DUP2 MSTORE PUSH1 0x20 ADD DUP8 PUSH1 0xFF AND DUP2 MSTORE PUSH1 0x20 ADD DUP7 DUP2 MSTORE POP SWAP1 POP PUSH1 0x1 PUSH1 0x0 DUP10 DUP2 MSTORE PUSH1 0x20 ADD SWAP1 DUP2 MSTORE PUSH1 0x20 ADD PUSH1 0x0 KECCAK256 DUP2 SWAP1 DUP1 PUSH1 0x1 DUP2 SLOAD ADD DUP1 DUP3 SSTORE DUP1 SWAP2 POP POP PUSH1 0x1 SWAP1 SUB SWAP1 PUSH1 0x0 MSTORE PUSH1 0x20 PUSH1 0x0 KECCAK256 SWAP1 PUSH1 0x4 MUL ADD PUSH1 0x0 SWAP1 SWAP2 SWAP1 SWAP2 SWAP1 SWAP2 POP PUSH1 0x0 DUP3 ADD MLOAD DUP2 PUSH1 0x0 ADD SSTORE PUSH1 0x20 DUP3 ADD MLOAD DUP2 PUSH1 0x1 ADD SWAP1 DUP2 PUSH2 0x76C SWAP2 SWAP1 PUSH2 0x1A0E JUMP JUMPDEST POP PUSH1 0x40 DUP3 ADD MLOAD DUP2 PUSH1 0x2 ADD PUSH1 0x0 PUSH2 0x100 EXP DUP2 SLOAD DUP2 PUSH1 0xFF MUL NOT AND SWAP1 DUP4 PUSH1 0xFF AND MUL OR SWAP1 SSTORE POP PUSH1 0x60 DUP3 ADD MLOAD DUP2 PUSH1 0x3 ADD SWAP1 DUP2 PUSH2 0x7A3 SWAP2 SWAP1 PUSH2 0x1A0E JUMP JUMPDEST POP POP POP PUSH1 0x4 SLOAD PUSH1 0x40 MLOAD DUP1 PUSH1 0x40 ADD PUSH1 0x40 MSTORE DUP1 PUSH1 0x17 DUP2 MSTORE PUSH1 0x20 ADD PUSH32 0x4170706C69636174696F6E207375636365737366756C6C000000000000000000 DUP2 MSTORE POP SWAP1 SWAP4 POP SWAP4 POP POP POP SWAP6 POP SWAP6 SWAP4 POP POP POP POP JUMP JUMPDEST PUSH1 0x60 DUP1 PUSH1 0x60 PUSH1 0x0 PUSH1 0x60 PUSH1 0x0 PUSH1 0x60 DUP1 PUSH1 0x0 DUP1 PUSH1 0x0 DUP12 DUP2 MSTORE PUSH1 0x20 ADD SWAP1 DUP2 MSTORE PUSH1 0x20 ADD PUSH1 0x0 KECCAK256 SWAP1 POP DUP1 PUSH1 0x1 ADD DUP2 PUSH1 0x2 ADD DUP3 PUSH1 0x3 ADD DUP4 PUSH1 0x4 ADD PUSH1 0x0 SWAP1 SLOAD SWAP1 PUSH2 0x100 EXP SWAP1 DIV PUSH2 0xFFFF AND DUP5 PUSH1 0x5 ADD DUP6 PUSH1 0x6 ADD PUSH1 0x0 SWAP1 SLOAD SWAP1 PUSH2 0x100 EXP SWAP1 DIV PUSH1 0xFF AND DUP7 PUSH1 0x7 ADD DUP8 PUSH1 0x8 ADD DUP8 DUP1 SLOAD PUSH2 0x85D SWAP1 PUSH2 0x151D JUMP JUMPDEST DUP1 PUSH1 0x1F ADD PUSH1 0x20 DUP1 SWAP2 DIV MUL PUSH1 0x20 ADD PUSH1 0x40 MLOAD SWAP1 DUP2 ADD PUSH1 0x40 MSTORE DUP1 SWAP3 SWAP2 SWAP1 DUP2 DUP2 MSTORE PUSH1 0x20 ADD DUP3 DUP1 SLOAD PUSH2 0x889 SWAP1 PUSH2 0x151D JUMP JUMPDEST DUP1 ISZERO PUSH2 0x8D6 JUMPI DUP1 PUSH1 0x1F LT PUSH2 0x8AB JUMPI PUSH2 0x100 DUP1 DUP4 SLOAD DIV MUL DUP4 MSTORE SWAP2 PUSH1 0x20 ADD SWAP2 PUSH2 0x8D6 JUMP JUMPDEST DUP3 ADD SWAP2 SWAP1 PUSH1 0x0 MSTORE PUSH1 0x20 PUSH1 0x0 KECCAK256 SWAP1 JUMPDEST DUP2 SLOAD DUP2 MSTORE SWAP1 PUSH1 0x1 ADD SWAP1 PUSH1 0x20 ADD DUP1 DUP4 GT PUSH2 0x8B9 JUMPI DUP3 SWAP1 SUB PUSH1 0x1F AND DUP3 ADD SWAP2 JUMPDEST POP POP POP POP POP SWAP8 POP DUP7 DUP1 SLOAD PUSH2 0x8E9 SWAP1 PUSH2 0x151D JUMP JUMPDEST DUP1 PUSH1 0x1F ADD PUSH1 0x20 DUP1 SWAP2 DIV MUL PUSH1 0x20 ADD PUSH1 0x40 MLOAD SWAP1 DUP2 ADD PUSH1 0x40 MSTORE DUP1 SWAP3 SWAP2 SWAP1 DUP2 DUP2 MSTORE PUSH1 0x20 ADD DUP3 DUP1 SLOAD PUSH2 0x915 SWAP1 PUSH2 0x151D JUMP JUMPDEST DUP1 ISZERO PUSH2 0x962 JUMPI DUP1 PUSH1 0x1F LT PUSH2 0x937 JUMPI PUSH2 0x100 DUP1 DUP4 SLOAD DIV MUL DUP4 MSTORE SWAP2 PUSH1 0x20 ADD SWAP2 PUSH2 0x962 JUMP JUMPDEST DUP3 ADD SWAP2 SWAP1 PUSH1 0x0 MSTORE PUSH1 0x20 PUSH1 0x0 KECCAK256 SWAP1 JUMPDEST DUP2 SLOAD DUP2 MSTORE SWAP1 PUSH1 0x1 ADD SWAP1 PUSH1 0x20 ADD DUP1 DUP4 GT PUSH2 0x945 JUMPI DUP3 SWAP1 SUB PUSH1 0x1F AND DUP3 ADD SWAP2 JUMPDEST POP POP POP POP POP SWAP7 POP DUP6 DUP1 SLOAD PUSH2 0x975 SWAP1 PUSH2 0x151D JUMP JUMPDEST DUP1 PUSH1 0x1F ADD PUSH1 0x20 DUP1 SWAP2 DIV MUL PUSH1 0x20 ADD PUSH1 0x40 MLOAD SWAP1 DUP2 ADD PUSH1 0x40 MSTORE DUP1 SWAP3 SWAP2 SWAP1 DUP2 DUP2 MSTORE PUSH1 0x20 ADD DUP3 DUP1 SLOAD PUSH2 0x9A1 SWAP1 PUSH2 0x151D JUMP JUMPDEST DUP1 ISZERO PUSH2 0x9EE JUMPI DUP1 PUSH1 0x1F LT PUSH2 0x9C3 JUMPI PUSH2 0x100 DUP1 DUP4 SLOAD DIV MUL DUP4 MSTORE SWAP2 PUSH1 0x20 ADD SWAP2 PUSH2 0x9EE JUMP JUMPDEST DUP3 ADD SWAP2 SWAP1 PUSH1 0x0 MSTORE PUSH1 0x20 PUSH1 0x0 KECCAK256 SWAP1 JUMPDEST DUP2 SLOAD DUP2 MSTORE SWAP1 PUSH1 0x1 ADD SWAP1 PUSH1 0x20 ADD DUP1 DUP4 GT PUSH2 0x9D1 JUMPI DUP3 SWAP1 SUB PUSH1 0x1F AND DUP3 ADD SWAP2 JUMPDEST POP POP POP POP POP SWAP6 POP DUP4 DUP1 SLOAD PUSH2 0xA01 SWAP1 PUSH2 0x151D JUMP JUMPDEST DUP1 PUSH1 0x1F ADD PUSH1 0x20 DUP1 SWAP2 DIV MUL PUSH1 0x20 ADD PUSH1 0x40 MLOAD SWAP1 DUP2 ADD PUSH1 0x40 MSTORE DUP1 SWAP3 SWAP2 SWAP1 DUP2 DUP2 MSTORE PUSH1 0x20 ADD DUP3 DUP1 SLOAD PUSH2 0xA2D SWAP1 PUSH2 0x151D JUMP JUMPDEST DUP1 ISZERO PUSH2 0xA7A JUMPI DUP1 PUSH1 0x1F LT PUSH2 0xA4F JUMPI PUSH2 0x100 DUP1 DUP4 SLOAD DIV MUL DUP4 MSTORE SWAP2 PUSH1 0x20 ADD SWAP2 PUSH2 0xA7A JUMP JUMPDEST DUP3 ADD SWAP2 SWAP1 PUSH1 0x0 MSTORE PUSH1 0x20 PUSH1 0x0 KECCAK256 SWAP1 JUMPDEST DUP2 SLOAD DUP2 MSTORE SWAP1 PUSH1 0x1 ADD SWAP1 PUSH1 0x20 ADD DUP1 DUP4 GT PUSH2 0xA5D JUMPI DUP3 SWAP1 SUB PUSH1 0x1F AND DUP3 ADD SWAP2 JUMPDEST POP POP POP POP POP SWAP4 POP DUP2 DUP1 SLOAD PUSH2 0xA8D SWAP1 PUSH2 0x151D JUMP JUMPDEST DUP1 PUSH1 0x1F ADD PUSH1 0x20 DUP1 SWAP2 DIV MUL PUSH1 0x20 ADD PUSH1 0x40 MLOAD SWAP1 DUP2 ADD PUSH1 0x40 MSTORE DUP1 SWAP3 SWAP2 SWAP1 DUP2 DUP2 MSTORE PUSH1 0x20 ADD DUP3 DUP1 SLOAD PUSH2 0xAB9 SWAP1 PUSH2 0x151D JUMP JUMPDEST DUP1 ISZERO PUSH2 0xB06 JUMPI DUP1 PUSH1 0x1F LT PUSH2 0xADB JUMPI PUSH2 0x100 DUP1 DUP4 SLOAD DIV MUL DUP4 MSTORE SWAP2 PUSH1 0x20 ADD SWAP2 PUSH2 0xB06 JUMP JUMPDEST DUP3 ADD SWAP2 SWAP1 PUSH1 0x0 MSTORE PUSH1 0x20 PUSH1 0x0 KECCAK256 SWAP1 JUMPDEST DUP2 SLOAD DUP2 MSTORE SWAP1 PUSH1 0x1 ADD SWAP1 PUSH1 0x20 ADD DUP1 DUP4 GT PUSH2 0xAE9 JUMPI DUP3 SWAP1 SUB PUSH1 0x1F AND DUP3 ADD SWAP2 JUMPDEST POP POP POP POP POP SWAP2 POP DUP1 DUP1 SLOAD PUSH2 0xB19 SWAP1 PUSH2 0x151D JUMP JUMPDEST DUP1 PUSH1 0x1F ADD PUSH1 0x20 DUP1 SWAP2 DIV MUL PUSH1 0x20 ADD PUSH1 0x40 MLOAD SWAP1 DUP2 ADD PUSH1 0x40 MSTORE DUP1 SWAP3 SWAP2 SWAP1 DUP2 DUP2 MSTORE PUSH1 0x20 ADD DUP3 DUP1 SLOAD PUSH2 0xB45 SWAP1 PUSH2 0x151D JUMP JUMPDEST DUP1 ISZERO PUSH2 0xB92 JUMPI DUP1 PUSH1 0x1F LT PUSH2 0xB67 JUMPI PUSH2 0x100 DUP1 DUP4 SLOAD DIV MUL DUP4 MSTORE SWAP2 PUSH1 0x20 ADD SWAP2 PUSH2 0xB92 JUMP JUMPDEST DUP3 ADD SWAP2 SWAP1 PUSH1 0x0 MSTORE PUSH1 0x20 PUSH1 0x0 KECCAK256 SWAP1 JUMPDEST DUP2 SLOAD DUP2 MSTORE SWAP1 PUSH1 0x1 ADD SWAP1 PUSH1 0x20 ADD DUP1 DUP4 GT PUSH2 0xB75 JUMPI DUP3 SWAP1 SUB PUSH1 0x1F AND DUP3 ADD SWAP2 JUMPDEST POP POP POP POP POP SWAP1 POP SWAP9 POP SWAP9 POP SWAP9 POP SWAP9 POP SWAP9 POP SWAP9 POP SWAP9 POP SWAP9 POP POP SWAP2 SWAP4 SWAP6 SWAP8 POP SWAP2 SWAP4 SWAP6 SWAP8 JUMP JUMPDEST PUSH1 0x3 SLOAD DUP2 JUMP JUMPDEST PUSH1 0x0 PUSH1 0x60 PUSH1 0x3 PUSH1 0x0 DUP2 SLOAD DUP1 SWAP3 SWAP2 SWAP1 PUSH2 0xBD2 SWAP1 PUSH2 0x157D JUMP JUMPDEST SWAP2 SWAP1 POP SSTORE POP PUSH1 0x40 MLOAD DUP1 PUSH2 0x120 ADD PUSH1 0x40 MSTORE DUP1 DUP13 PUSH20 0xFFFFFFFFFFFFFFFFFFFFFFFFFFFFFFFFFFFFFFFF AND DUP2 MSTORE PUSH1 0x20 ADD DUP12 DUP2 MSTORE PUSH1 0x20 ADD DUP11 DUP2 MSTORE PUSH1 0x20 ADD DUP10 DUP2 MSTORE PUSH1 0x20 ADD DUP9 PUSH2 0xFFFF AND DUP2 MSTORE PUSH1 0x20 ADD DUP8 DUP2 MSTORE PUSH1 0x20 ADD DUP7 PUSH1 0xFF AND DUP2 MSTORE PUSH1 0x20 ADD DUP6 DUP2 MSTORE PUSH1 0x20 ADD DUP5 DUP2 MSTORE POP PUSH1 0x0 DUP1 PUSH1 0x3 SLOAD DUP2 MSTORE PUSH1 0x20 ADD SWAP1 DUP2 MSTORE PUSH1 0x20 ADD PUSH1 0x0 KECCAK256 PUSH1 0x0 DUP3 ADD MLOAD DUP2 PUSH1 0x0 ADD PUSH1 0x0 PUSH2 0x100 EXP DUP2 SLOAD DUP2 PUSH20 0xFFFFFFFFFFFFFFFFFFFFFFFFFFFFFFFFFFFFFFFF MUL NOT AND SWAP1 DUP4 PUSH20 0xFFFFFFFFFFFFFFFFFFFFFFFFFFFFFFFFFFFFFFFF AND MUL OR SWAP1 SSTORE POP PUSH1 0x20 DUP3 ADD MLOAD DUP2 PUSH1 0x1 ADD SWAP1 DUP2 PUSH2 0xCA4 SWAP2 SWAP1 PUSH2 0x1A0E JUMP JUMPDEST POP PUSH1 0x40 DUP3 ADD MLOAD DUP2 PUSH1 0x2 ADD SWAP1 DUP2 PUSH2 0xCBA SWAP2 SWAP1 PUSH2 0x1A0E JUMP JUMPDEST POP PUSH1 0x60 DUP3 ADD MLOAD DUP2 PUSH1 0x3 ADD SWAP1 DUP2 PUSH2 0xCD0 SWAP2 SWAP1 PUSH2 0x1A0E JUMP JUMPDEST POP PUSH1 0x80 DUP3 ADD MLOAD DUP2 PUSH1 0x4 ADD PUSH1 0x0 PUSH2 0x100 EXP DUP2 SLOAD DUP2 PUSH2 0xFFFF MUL NOT AND SWAP1 DUP4 PUSH2 0xFFFF AND MUL OR SWAP1 SSTORE POP PUSH1 0xA0 DUP3 ADD MLOAD DUP2 PUSH1 0x5 ADD SWAP1 DUP2 PUSH2 0xD09 SWAP2 SWAP1 PUSH2 0x1A0E JUMP JUMPDEST POP PUSH1 0xC0 DUP3 ADD MLOAD DUP2 PUSH1 0x6 ADD PUSH1 0x0 PUSH2 0x100 EXP DUP2 SLOAD DUP2 PUSH1 0xFF MUL NOT AND SWAP1 DUP4 PUSH1 0xFF AND MUL OR SWAP1 SSTORE POP PUSH1 0xE0 DUP3 ADD MLOAD DUP2 PUSH1 0x7 ADD SWAP1 DUP2 PUSH2 0xD40 SWAP2 SWAP1 PUSH2 0x1A0E JUMP JUMPDEST POP PUSH2 0x100 DUP3 ADD MLOAD DUP2 PUSH1 0x8 ADD SWAP1 DUP2 PUSH2 0xD57 SWAP2 SWAP1 PUSH2 0x1A0E JUMP JUMPDEST POP SWAP1 POP POP PUSH1 0x3 SLOAD PUSH1 0x40 MLOAD DUP1 PUSH1 0x40 ADD PUSH1 0x40 MSTORE DUP1 PUSH1 0x17 DUP2 MSTORE PUSH1 0x20 ADD PUSH32 0x4A6F6220506F73746564205375636365737366756C6C79000000000000000000 DUP2 MSTORE POP SWAP2 POP SWAP2 POP SWAP10 POP SWAP10 SWAP8 POP POP POP POP POP POP POP POP JUMP JUMPDEST PUSH1 0x0 PUSH1 0x40 MLOAD SWAP1 POP SWAP1 JUMP JUMPDEST PUSH1 0x0 DUP1 REVERT JUMPDEST PUSH1 0x0 DUP1 REVERT JUMPDEST PUSH1 0x0 DUP2 SWAP1 POP SWAP2 SWAP1 POP JUMP JUMPDEST PUSH2 0xDCD DUP2 PUSH2 0xDBA JUMP JUMPDEST DUP2 EQ PUSH2 0xDD8 JUMPI PUSH1 0x0 DUP1 REVERT JUMPDEST POP JUMP JUMPDEST PUSH1 0x0 DUP2 CALLDATALOAD SWAP1 POP PUSH2 0xDEA DUP2 PUSH2 0xDC4 JUMP JUMPDEST SWAP3 SWAP2 POP POP JUMP JUMPDEST PUSH1 0x0 PUSH1 0x20 DUP3 DUP5 SUB SLT ISZERO PUSH2 0xE06 JUMPI PUSH2 0xE05 PUSH2 0xDB0 JUMP JUMPDEST JUMPDEST PUSH1 0x0 PUSH2 0xE14 DUP5 DUP3 DUP6 ADD PUSH2 0xDDB JUMP JUMPDEST SWAP2 POP POP SWAP3 SWAP2 POP POP JUMP JUMPDEST PUSH1 0x0 PUSH20 0xFFFFFFFFFFFFFFFFFFFFFFFFFFFFFFFFFFFFFFFF DUP3 AND SWAP1 POP SWAP2 SWAP1 POP JUMP JUMPDEST PUSH1 0x0 PUSH2 0xE48 DUP3 PUSH2 0xE1D JUMP JUMPDEST SWAP1 POP SWAP2 SWAP1 POP JUMP JUMPDEST PUSH2 0xE58 DUP2 PUSH2 0xE3D JUMP JUMPDEST DUP3 MSTORE POP POP JUMP JUMPDEST PUSH1 0x0 DUP2 MLOAD SWAP1 POP SWAP2 SWAP1 POP JUMP JUMPDEST PUSH1 0x0 DUP3 DUP3 MSTORE PUSH1 0x20 DUP3 ADD SWAP1 POP SWAP3 SWAP2 POP POP JUMP JUMPDEST PUSH1 0x0 JUMPDEST DUP4 DUP2 LT ISZERO PUSH2 0xE98 JUMPI DUP1 DUP3 ADD MLOAD DUP2 DUP5 ADD MSTORE PUSH1 0x20 DUP2 ADD SWAP1 POP PUSH2 0xE7D JUMP JUMPDEST PUSH1 0x0 DUP5 DUP5 ADD MSTORE POP POP POP POP JUMP JUMPDEST PUSH1 0x0 PUSH1 0x1F NOT PUSH1 0x1F DUP4 ADD AND SWAP1 POP SWAP2 SWAP1 POP JUMP JUMPDEST PUSH1 0x0 PUSH2 0xEC0 DUP3 PUSH2 0xE5E JUMP JUMPDEST PUSH2 0xECA DUP2 DUP6 PUSH2 0xE69 JUMP JUMPDEST SWAP4 POP PUSH2 0xEDA DUP2 DUP6 PUSH1 0x20 DUP7 ADD PUSH2 0xE7A JUMP JUMPDEST PUSH2 0xEE3 DUP2 PUSH2 0xEA4 JUMP JUMPDEST DUP5 ADD SWAP2 POP POP SWAP3 SWAP2 POP POP JUMP JUMPDEST PUSH1 0x0 PUSH2 0xFFFF DUP3 AND SWAP1 POP SWAP2 SWAP1 POP JUMP JUMPDEST PUSH2 0xF05 DUP2 PUSH2 0xEEE JUMP JUMPDEST DUP3 MSTORE POP POP JUMP JUMPDEST PUSH1 0x0 PUSH1 0xFF DUP3 AND SWAP1 POP SWAP2 SWAP1 POP JUMP JUMPDEST PUSH2 0xF21 DUP2 PUSH2 0xF0B JUMP JUMPDEST DUP3 MSTORE POP POP JUMP JUMPDEST PUSH1 0x0 PUSH2 0x120 DUP3 ADD SWAP1 POP PUSH2 0xF3D PUSH1 0x0 DUP4 ADD DUP13 PUSH2 0xE4F JUMP JUMPDEST DUP2 DUP2 SUB PUSH1 0x20 DUP4 ADD MSTORE PUSH2 0xF4F DUP2 DUP12 PUSH2 0xEB5 JUMP JUMPDEST SWAP1 POP DUP2 DUP2 SUB PUSH1 0x40 DUP4 ADD MSTORE PUSH2 0xF63 DUP2 DUP11 PUSH2 0xEB5 JUMP JUMPDEST SWAP1 POP DUP2 DUP2 SUB PUSH1 0x60 DUP4 ADD MSTORE PUSH2 0xF77 DUP2 DUP10 PUSH2 0xEB5 JUMP JUMPDEST SWAP1 POP PUSH2 0xF86 PUSH1 0x80 DUP4 ADD DUP9 PUSH2 0xEFC JUMP JUMPDEST DUP2 DUP2 SUB PUSH1 0xA0 DUP4 ADD MSTORE PUSH2 0xF98 DUP2 DUP8 PUSH2 0xEB5 JUMP JUMPDEST SWAP1 POP PUSH2 0xFA7 PUSH1 0xC0 DUP4 ADD DUP7 PUSH2 0xF18 JUMP JUMPDEST DUP2 DUP2 SUB PUSH1 0xE0 DUP4 ADD MSTORE PUSH2 0xFB9 DUP2 DUP6 PUSH2 0xEB5 JUMP JUMPDEST SWAP1 POP DUP2 DUP2 SUB PUSH2 0x100 DUP4 ADD MSTORE PUSH2 0xFCE DUP2 DUP5 PUSH2 0xEB5 JUMP JUMPDEST SWAP1 POP SWAP11 SWAP10 POP POP POP POP POP POP POP POP POP POP JUMP JUMPDEST PUSH2 0xFE7 DUP2 PUSH2 0xDBA JUMP JUMPDEST DUP3 MSTORE POP POP JUMP JUMPDEST PUSH1 0x0 PUSH1 0x20 DUP3 ADD SWAP1 POP PUSH2 0x1002 PUSH1 0x0 DUP4 ADD DUP5 PUSH2 0xFDE JUMP JUMPDEST SWAP3 SWAP2 POP POP JUMP JUMPDEST PUSH1 0x0 DUP1 REVERT JUMPDEST PUSH1 0x0 DUP1 REVERT JUMPDEST PUSH32 0x4E487B7100000000000000000000000000000000000000000000000000000000 PUSH1 0x0 MSTORE PUSH1 0x41 PUSH1 0x4 MSTORE PUSH1 0x24 PUSH1 0x0 REVERT JUMPDEST PUSH2 0x104A DUP3 PUSH2 0xEA4 JUMP JUMPDEST DUP2 ADD DUP2 DUP2 LT PUSH8 0xFFFFFFFFFFFFFFFF DUP3 GT OR ISZERO PUSH2 0x1069 JUMPI PUSH2 0x1068 PUSH2 0x1012 JUMP JUMPDEST JUMPDEST DUP1 PUSH1 0x40 MSTORE POP POP POP JUMP JUMPDEST PUSH1 0x0 PUSH2 0x107C PUSH2 0xDA6 JUMP JUMPDEST SWAP1 POP PUSH2 0x1088 DUP3 DUP3 PUSH2 0x1041 JUMP JUMPDEST SWAP2 SWAP1 POP JUMP JUMPDEST PUSH1 0x0 PUSH8 0xFFFFFFFFFFFFFFFF DUP3 GT ISZERO PUSH2 0x10A8 JUMPI PUSH2 0x10A7 PUSH2 0x1012 JUMP JUMPDEST JUMPDEST PUSH2 0x10B1 DUP3 PUSH2 0xEA4 JUMP JUMPDEST SWAP1 POP PUSH1 0x20 DUP2 ADD SWAP1 POP SWAP2 SWAP1 POP JUMP JUMPDEST DUP3 DUP2 DUP4 CALLDATACOPY PUSH1 0x0 DUP4 DUP4 ADD MSTORE POP POP POP JUMP JUMPDEST PUSH1 0x0 PUSH2 0x10E0 PUSH2 0x10DB DUP5 PUSH2 0x108D JUMP JUMPDEST PUSH2 0x1072 JUMP JUMPDEST SWAP1 POP DUP3 DUP2 MSTORE PUSH1 0x20 DUP2 ADD DUP5 DUP5 DUP5 ADD GT ISZERO PUSH2 0x10FC JUMPI PUSH2 0x10FB PUSH2 0x100D JUMP JUMPDEST JUMPDEST PUSH2 0x1107 DUP5 DUP3 DUP6 PUSH2 0x10BE JUMP JUMPDEST POP SWAP4 SWAP3 POP POP POP JUMP JUMPDEST PUSH1 0x0 DUP3 PUSH1 0x1F DUP4 ADD SLT PUSH2 0x1124 JUMPI PUSH2 0x1123 PUSH2 0x1008 JUMP JUMPDEST JUMPDEST DUP2 CALLDATALOAD PUSH2 0x1134 DUP5 DUP3 PUSH1 0x20 DUP7 ADD PUSH2 0x10CD JUMP JUMPDEST SWAP2 POP POP SWAP3 SWAP2 POP POP JUMP JUMPDEST PUSH2 0x1146 DUP2 PUSH2 0xF0B JUMP JUMPDEST DUP2 EQ PUSH2 0x1151 JUMPI PUSH1 0x0 DUP1 REVERT JUMPDEST POP JUMP JUMPDEST PUSH1 0x0 DUP2 CALLDATALOAD SWAP1 POP PUSH2 0x1163 DUP2 PUSH2 0x113D JUMP JUMPDEST SWAP3 SWAP2 POP POP JUMP JUMPDEST PUSH1 0x0 DUP1 PUSH1 0x0 DUP1 PUSH1 0x0 PUSH1 0xA0 DUP7 DUP9 SUB SLT ISZERO PUSH2 0x1185 JUMPI PUSH2 0x1184 PUSH2 0xDB0 JUMP JUMPDEST JUMPDEST PUSH1 0x0 PUSH2 0x1193 DUP9 DUP3 DUP10 ADD PUSH2 0xDDB JUMP JUMPDEST SWAP6 POP POP PUSH1 0x20 PUSH2 0x11A4 DUP9 DUP3 DUP10 ADD PUSH2 0xDDB JUMP JUMPDEST SWAP5 POP POP PUSH1 0x40 DUP7 ADD CALLDATALOAD PUSH8 0xFFFFFFFFFFFFFFFF DUP2 GT ISZERO PUSH2 0x11C5 JUMPI PUSH2 0x11C4 PUSH2 0xDB5 JUMP JUMPDEST JUMPDEST PUSH2 0x11D1 DUP9 DUP3 DUP10 ADD PUSH2 0x110F JUMP JUMPDEST SWAP4 POP POP PUSH1 0x60 PUSH2 0x11E2 DUP9 DUP3 DUP10 ADD PUSH2 0x1154 JUMP JUMPDEST SWAP3 POP POP PUSH1 0x80 DUP7 ADD CALLDATALOAD PUSH8 0xFFFFFFFFFFFFFFFF DUP2 GT ISZERO PUSH2 0x1203 JUMPI PUSH2 0x1202 PUSH2 0xDB5 JUMP JUMPDEST JUMPDEST PUSH2 0x120F DUP9 DUP3 DUP10 ADD PUSH2 0x110F JUMP JUMPDEST SWAP2 POP POP SWAP3 SWAP6 POP SWAP3 SWAP6 SWAP1 SWAP4 POP JUMP JUMPDEST PUSH1 0x0 PUSH1 0x40 DUP3 ADD SWAP1 POP DUP2 DUP2 SUB PUSH1 0x0 DUP4 ADD MSTORE PUSH2 0x1236 DUP2 DUP6 PUSH2 0xEB5 JUMP JUMPDEST SWAP1 POP PUSH2 0x1245 PUSH1 0x20 DUP4 ADD DUP5 PUSH2 0xFDE JUMP JUMPDEST SWAP4 SWAP3 POP POP POP JUMP JUMPDEST PUSH1 0x0 PUSH2 0x100 DUP3 ADD SWAP1 POP DUP2 DUP2 SUB PUSH1 0x0 DUP4 ADD MSTORE PUSH2 0x1267 DUP2 DUP12 PUSH2 0xEB5 JUMP JUMPDEST SWAP1 POP DUP2 DUP2 SUB PUSH1 0x20 DUP4 ADD MSTORE PUSH2 0x127B DUP2 DUP11 PUSH2 0xEB5 JUMP JUMPDEST SWAP1 POP DUP2 DUP2 SUB PUSH1 0x40 DUP4 ADD MSTORE PUSH2 0x128F DUP2 DUP10 PUSH2 0xEB5 JUMP JUMPDEST SWAP1 POP PUSH2 0x129E PUSH1 0x60 DUP4 ADD DUP9 PUSH2 0xEFC JUMP JUMPDEST DUP2 DUP2 SUB PUSH1 0x80 DUP4 ADD MSTORE PUSH2 0x12B0 DUP2 DUP8 PUSH2 0xEB5 JUMP JUMPDEST SWAP1 POP PUSH2 0x12BF PUSH1 0xA0 DUP4 ADD DUP7 PUSH2 0xF18 JUMP JUMPDEST DUP2 DUP2 SUB PUSH1 0xC0 DUP4 ADD MSTORE PUSH2 0x12D1 DUP2 DUP6 PUSH2 0xEB5 JUMP JUMPDEST SWAP1 POP DUP2 DUP2 SUB PUSH1 0xE0 DUP4 ADD MSTORE PUSH2 0x12E5 DUP2 DUP5 PUSH2 0xEB5 JUMP JUMPDEST SWAP1 POP SWAP10 SWAP9 POP POP POP POP POP POP POP POP POP JUMP JUMPDEST PUSH2 0x12FD DUP2 PUSH2 0xE3D JUMP JUMPDEST DUP2 EQ PUSH2 0x1308 JUMPI PUSH1 0x0 DUP1 REVERT JUMPDEST POP JUMP JUMPDEST PUSH1 0x0 DUP2 CALLDATALOAD SWAP1 POP PUSH2 0x131A DUP2 PUSH2 0x12F4 JUMP JUMPDEST SWAP3 SWAP2 POP POP JUMP JUMPDEST PUSH2 0x1329 DUP2 PUSH2 0xEEE JUMP JUMPDEST DUP2 EQ PUSH2 0x1334 JUMPI PUSH1 0x0 DUP1 REVERT JUMPDEST POP JUMP JUMPDEST PUSH1 0x0 DUP2 CALLDATALOAD SWAP1 POP PUSH2 0x1346 DUP2 PUSH2 0x1320 JUMP JUMPDEST SWAP3 SWAP2 POP POP JUMP JUMPDEST PUSH1 0x0 DUP1 PUSH1 0x0 DUP1 PUSH1 0x0 DUP1 PUSH1 0x0 DUP1 PUSH1 0x0 PUSH2 0x120 DUP11 DUP13 SUB SLT ISZERO PUSH2 0x136F JUMPI PUSH2 0x136E PUSH2 0xDB0 JUMP JUMPDEST JUMPDEST PUSH1 0x0 PUSH2 0x137D DUP13 DUP3 DUP14 ADD PUSH2 0x130B JUMP JUMPDEST SWAP10 POP POP PUSH1 0x20 DUP11 ADD CALLDATALOAD PUSH8 0xFFFFFFFFFFFFFFFF DUP2 GT ISZERO PUSH2 0x139E JUMPI PUSH2 0x139D PUSH2 0xDB5 JUMP JUMPDEST JUMPDEST PUSH2 0x13AA DUP13 DUP3 DUP14 ADD PUSH2 0x110F JUMP JUMPDEST SWAP9 POP POP PUSH1 0x40 DUP11 ADD CALLDATALOAD PUSH8 0xFFFFFFFFFFFFFFFF DUP2 GT ISZERO PUSH2 0x13CB JUMPI PUSH2 0x13CA PUSH2 0xDB5 JUMP JUMPDEST JUMPDEST PUSH2 0x13D7 DUP13 DUP3 DUP14 ADD PUSH2 0x110F JUMP JUMPDEST SWAP8 POP POP PUSH1 0x60 DUP11 ADD CALLDATALOAD PUSH8 0xFFFFFFFFFFFFFFFF DUP2 GT ISZERO PUSH2 0x13F8 JUMPI PUSH2 0x13F7 PUSH2 0xDB5 JUMP JUMPDEST JUMPDEST PUSH2 0x1404 DUP13 DUP3 DUP14 ADD PUSH2 0x110F JUMP JUMPDEST SWAP7 POP POP PUSH1 0x80 PUSH2 0x1415 DUP13 DUP3 DUP14 ADD PUSH2 0x1337 JUMP JUMPDEST SWAP6 POP POP PUSH1 0xA0 DUP11 ADD CALLDATALOAD PUSH8 0xFFFFFFFFFFFFFFFF DUP2 GT ISZERO PUSH2 0x1436 JUMPI PUSH2 0x1435 PUSH2 0xDB5 JUMP JUMPDEST JUMPDEST PUSH2 0x1442 DUP13 DUP3 DUP14 ADD PUSH2 0x110F JUMP JUMPDEST SWAP5 POP POP PUSH1 0xC0 PUSH2 0x1453 DUP13 DUP3 DUP14 ADD PUSH2 0x1154 JUMP JUMPDEST SWAP4 POP POP PUSH1 0xE0 DUP11 ADD CALLDATALOAD PUSH8 0xFFFFFFFFFFFFFFFF DUP2 GT ISZERO PUSH2 0x1474 JUMPI PUSH2 0x1473 PUSH2 0xDB5 JUMP JUMPDEST JUMPDEST PUSH2 0x1480 DUP13 DUP3 DUP14 ADD PUSH2 0x110F JUMP JUMPDEST SWAP3 POP POP PUSH2 0x100 DUP11 ADD CALLDATALOAD PUSH8 0xFFFFFFFFFFFFFFFF DUP2 GT ISZERO PUSH2 0x14A2 JUMPI PUSH2 0x14A1 PUSH2 0xDB5 JUMP JUMPDEST JUMPDEST PUSH2 0x14AE DUP13 DUP3 DUP14 ADD PUSH2 0x110F JUMP JUMPDEST SWAP2 POP POP SWAP3 SWAP6 SWAP9 POP SWAP3 SWAP6 SWAP9 POP SWAP3 SWAP6 SWAP9 JUMP JUMPDEST PUSH1 0x0 PUSH1 0x40 DUP3 ADD SWAP1 POP PUSH2 0x14D3 PUSH1 0x0 DUP4 ADD DUP6 PUSH2 0xFDE JUMP JUMPDEST DUP2 DUP2 SUB PUSH1 0x20 DUP4 ADD MSTORE PUSH2 0x14E5 DUP2 DUP5 PUSH2 0xEB5 JUMP JUMPDEST SWAP1 POP SWAP4 SWAP3 POP POP POP JUMP JUMPDEST PUSH32 0x4E487B7100000000000000000000000000000000000000000000000000000000 PUSH1 0x0 MSTORE PUSH1 0x22 PUSH1 0x4 MSTORE PUSH1 0x24 PUSH1 0x0 REVERT JUMPDEST PUSH1 0x0 PUSH1 0x2 DUP3 DIV SWAP1 POP PUSH1 0x1 DUP3 AND DUP1 PUSH2 0x1535 JUMPI PUSH1 0x7F DUP3 AND SWAP2 POP JUMPDEST PUSH1 0x20 DUP3 LT DUP2 SUB PUSH2 0x1548 JUMPI PUSH2 0x1547 PUSH2 0x14EE JUMP JUMPDEST JUMPDEST POP SWAP2 SWAP1 POP JUMP JUMPDEST PUSH32 0x4E487B7100000000000000000000000000000000000000000000000000000000 PUSH1 0x0 MSTORE PUSH1 0x11 PUSH1 0x4 MSTORE PUSH1 0x24 PUSH1 0x0 REVERT JUMPDEST PUSH1 0x0 PUSH2 0x1588 DUP3 PUSH2 0xDBA JUMP JUMPDEST SWAP2 POP PUSH32 0xFFFFFFFFFFFFFFFFFFFFFFFFFFFFFFFFFFFFFFFFFFFFFFFFFFFFFFFFFFFFFFFF DUP3 SUB PUSH2 0x15BA JUMPI PUSH2 0x15B9 PUSH2 0x154E JUMP JUMPDEST JUMPDEST PUSH1 0x1 DUP3 ADD SWAP1 POP SWAP2 SWAP1 POP JUMP JUMPDEST PUSH32 0x496E76616C696420496E707574206170706C69636174696F6E20696400000000 PUSH1 0x0 DUP3 ADD MSTORE POP JUMP JUMPDEST PUSH1 0x0 PUSH2 0x15FB PUSH1 0x1C DUP4 PUSH2 0xE69 JUMP JUMPDEST SWAP2 POP PUSH2 0x1606 DUP3 PUSH2 0x15C5 JUMP JUMPDEST PUSH1 0x20 DUP3 ADD SWAP1 POP SWAP2 SWAP1 POP JUMP JUMPDEST PUSH1 0x0 PUSH1 0x20 DUP3 ADD SWAP1 POP DUP2 DUP2 SUB PUSH1 0x0 DUP4 ADD MSTORE PUSH2 0x162A DUP2 PUSH2 0x15EE JUMP JUMPDEST SWAP1 POP SWAP2 SWAP1 POP JUMP JUMPDEST PUSH32 0x496E76616C6964204A6F62204944000000000000000000000000000000000000 PUSH1 0x0 DUP3 ADD MSTORE POP JUMP JUMPDEST PUSH1 0x0 PUSH2 0x1667 PUSH1 0xE DUP4 PUSH2 0xE69 JUMP JUMPDEST SWAP2 POP PUSH2 0x1672 DUP3 PUSH2 0x1631 JUMP JUMPDEST PUSH1 0x20 DUP3 ADD SWAP1 POP SWAP2 SWAP1 POP JUMP JUMPDEST PUSH1 0x0 PUSH1 0x20 DUP3 ADD SWAP1 POP DUP2 DUP2 SUB PUSH1 0x0 DUP4 ADD MSTORE PUSH2 0x1696 DUP2 PUSH2 0x165A JUMP JUMPDEST SWAP1 POP SWAP2 SWAP1 POP JUMP JUMPDEST PUSH32 0x556E6465726167652063616E6469646174650000000000000000000000000000 PUSH1 0x0 DUP3 ADD MSTORE POP JUMP JUMPDEST PUSH1 0x0 PUSH2 0x16D3 PUSH1 0x12 DUP4 PUSH2 0xE69 JUMP JUMPDEST SWAP2 POP PUSH2 0x16DE DUP3 PUSH2 0x169D JUMP JUMPDEST PUSH1 0x20 DUP3 ADD SWAP1 POP SWAP2 SWAP1 POP JUMP JUMPDEST PUSH1 0x0 PUSH1 0x20 DUP3 ADD SWAP1 POP DUP2 DUP2 SUB PUSH1 0x0 DUP4 ADD MSTORE PUSH2 0x1702 DUP2 PUSH2 0x16C6 JUMP JUMPDEST SWAP1 POP SWAP2 SWAP1 POP JUMP JUMPDEST PUSH1 0x0 DUP2 SWAP1 POP SWAP3 SWAP2 POP POP JUMP JUMPDEST PUSH1 0x0 DUP2 SWAP1 POP DUP2 PUSH1 0x0 MSTORE PUSH1 0x20 PUSH1 0x0 KECCAK256 SWAP1 POP SWAP2 SWAP1 POP JUMP JUMPDEST PUSH1 0x0 DUP2 SLOAD PUSH2 0x1736 DUP2 PUSH2 0x151D JUMP JUMPDEST PUSH2 0x1740 DUP2 DUP7 PUSH2 0x1709 JUMP JUMPDEST SWAP5 POP PUSH1 0x1 DUP3 AND PUSH1 0x0 DUP2 EQ PUSH2 0x175B JUMPI PUSH1 0x1 DUP2 EQ PUSH2 0x1770 JUMPI PUSH2 0x17A3 JUMP JUMPDEST PUSH1 0xFF NOT DUP4 AND DUP7 MSTORE DUP2 ISZERO ISZERO DUP3 MUL DUP7 ADD SWAP4 POP PUSH2 0x17A3 JUMP JUMPDEST PUSH2 0x1779 DUP6 PUSH2 0x1714 JUMP JUMPDEST PUSH1 0x0 JUMPDEST DUP4 DUP2 LT ISZERO PUSH2 0x179B JUMPI DUP2 SLOAD DUP2 DUP10 ADD MSTORE PUSH1 0x1 DUP3 ADD SWAP2 POP PUSH1 0x20 DUP2 ADD SWAP1 POP PUSH2 0x177C JUMP JUMPDEST DUP4 DUP9 ADD SWAP6 POP POP POP JUMPDEST POP POP POP SWAP3 SWAP2 POP POP JUMP JUMPDEST PUSH1 0x0 PUSH2 0x17B8 DUP3 DUP5 PUSH2 0x1729 JUMP JUMPDEST SWAP2 POP DUP2 SWAP1 POP SWAP3 SWAP2 POP POP JUMP JUMPDEST PUSH1 0x0 PUSH2 0x17CE DUP3 PUSH2 0xE5E JUMP JUMPDEST PUSH2 0x17D8 DUP2 DUP6 PUSH2 0x1709 JUMP JUMPDEST SWAP4 POP PUSH2 0x17E8 DUP2 DUP6 PUSH1 0x20 DUP7 ADD PUSH2 0xE7A JUMP JUMPDEST DUP1 DUP5 ADD SWAP2 POP POP SWAP3 SWAP2 POP POP JUMP JUMPDEST PUSH1 0x0 PUSH2 0x1800 DUP3 DUP5 PUSH2 0x17C3 JUMP JUMPDEST SWAP2 POP DUP2 SWAP1 POP SWAP3 SWAP2 POP POP JUMP JUMPDEST PUSH32 0x536B696C6C7320646F206E6F74206D6174636800000000000000000000000000 PUSH1 0x0 DUP3 ADD MSTORE POP JUMP JUMPDEST PUSH1 0x0 PUSH2 0x1841 PUSH1 0x13 DUP4 PUSH2 0xE69 JUMP JUMPDEST SWAP2 POP PUSH2 0x184C DUP3 PUSH2 0x180B JUMP JUMPDEST PUSH1 0x20 DUP3 ADD SWAP1 POP SWAP2 SWAP1 POP JUMP JUMPDEST PUSH1 0x0 PUSH1 0x20 DUP3 ADD SWAP1 POP DUP2 DUP2 SUB PUSH1 0x0 DUP4 ADD MSTORE PUSH2 0x1870 DUP2 PUSH2 0x1834 JUMP JUMPDEST SWAP1 POP SWAP2 SWAP1 POP JUMP JUMPDEST PUSH1 0x0 PUSH1 0x20 PUSH1 0x1F DUP4 ADD DIV SWAP1 POP SWAP2 SWAP1 POP JUMP JUMPDEST PUSH1 0x0 DUP3 DUP3 SHL SWAP1 POP SWAP3 SWAP2 POP POP JUMP JUMPDEST PUSH1 0x0 PUSH1 0x8 DUP4 MUL PUSH2 0x18C4 PUSH32 0xFFFFFFFFFFFFFFFFFFFFFFFFFFFFFFFFFFFFFFFFFFFFFFFFFFFFFFFFFFFFFFFF DUP3 PUSH2 0x1887 JUMP JUMPDEST PUSH2 0x18CE DUP7 DUP4 PUSH2 0x1887 JUMP JUMPDEST SWAP6 POP DUP1 NOT DUP5 AND SWAP4 POP DUP1 DUP7 AND DUP5 OR SWAP3 POP POP POP SWAP4 SWAP3 POP POP POP JUMP JUMPDEST PUSH1 0x0 DUP2 SWAP1 POP SWAP2 SWAP1 POP JUMP JUMPDEST PUSH1 0x0 PUSH2 0x190B PUSH2 0x1906 PUSH2 0x1901 DUP5 PUSH2 0xDBA JUMP JUMPDEST PUSH2 0x18E6 JUMP JUMPDEST PUSH2 0xDBA JUMP JUMPDEST SWAP1 POP SWAP2 SWAP1 POP JUMP JUMPDEST PUSH1 0x0 DUP2 SWAP1 POP SWAP2 SWAP1 POP JUMP JUMPDEST PUSH2 0x1925 DUP4 PUSH2 0x18F0 JUMP JUMPDEST PUSH2 0x1939 PUSH2 0x1931 DUP3 PUSH2 0x1912 JUMP JUMPDEST DUP5 DUP5 SLOAD PUSH2 0x1894 JUMP JUMPDEST DUP3 SSTORE POP POP POP POP JUMP JUMPDEST PUSH1 0x0 SWAP1 JUMP JUMPDEST PUSH2 0x194E PUSH2 0x1941 JUMP JUMPDEST PUSH2 0x1959 DUP2 DUP5 DUP5 PUSH2 0x191C JUMP JUMPDEST POP POP POP JUMP JUMPDEST JUMPDEST DUP2 DUP2 LT ISZERO PUSH2 0x197D JUMPI PUSH2 0x1972 PUSH1 0x0 DUP3 PUSH2 0x1946 JUMP JUMPDEST PUSH1 0x1 DUP2 ADD SWAP1 POP PUSH2 0x195F JUMP JUMPDEST POP POP JUMP JUMPDEST PUSH1 0x1F DUP3 GT ISZERO PUSH2 0x19C2 JUMPI PUSH2 0x1993 DUP2 PUSH2 0x1714 JUMP JUMPDEST PUSH2 0x199C DUP5 PUSH2 0x1877 JUMP JUMPDEST DUP2 ADD PUSH1 0x20 DUP6 LT ISZERO PUSH2 0x19AB JUMPI DUP2 SWAP1 POP JUMPDEST PUSH2 0x19BF PUSH2 0x19B7 DUP6 PUSH2 0x1877 JUMP JUMPDEST DUP4 ADD DUP3 PUSH2 0x195E JUMP JUMPDEST POP POP JUMPDEST POP POP POP JUMP JUMPDEST PUSH1 0x0 DUP3 DUP3 SHR SWAP1 POP SWAP3 SWAP2 POP POP JUMP JUMPDEST PUSH1 0x0 PUSH2 0x19E5 PUSH1 0x0 NOT DUP5 PUSH1 0x8 MUL PUSH2 0x19C7 JUMP JUMPDEST NOT DUP1 DUP4 AND SWAP2 POP POP SWAP3 SWAP2 POP POP JUMP JUMPDEST PUSH1 0x0 PUSH2 0x19FE DUP4 DUP4 PUSH2 0x19D4 JUMP JUMPDEST SWAP2 POP DUP3 PUSH1 0x2 MUL DUP3 OR SWAP1 POP SWAP3 SWAP2 POP POP JUMP JUMPDEST PUSH2 0x1A17 DUP3 PUSH2 0xE5E JUMP JUMPDEST PUSH8 0xFFFFFFFFFFFFFFFF DUP2 GT ISZERO PUSH2 0x1A30 JUMPI PUSH2 0x1A2F PUSH2 0x1012 JUMP JUMPDEST JUMPDEST PUSH2 0x1A3A DUP3 SLOAD PUSH2 0x151D JUMP JUMPDEST PUSH2 0x1A45 DUP3 DUP3 DUP6 PUSH2 0x1981 JUMP JUMPDEST PUSH1 0x0 PUSH1 0x20 SWAP1 POP PUSH1 0x1F DUP4 GT PUSH1 0x1 DUP2 EQ PUSH2 0x1A78 JUMPI PUSH1 0x0 DUP5 ISZERO PUSH2 0x1A66 JUMPI DUP3 DUP8 ADD MLOAD SWAP1 POP JUMPDEST PUSH2 0x1A70 DUP6 DUP3 PUSH2 0x19F2 JUMP JUMPDEST DUP7 SSTORE POP PUSH2 0x1AD8 JUMP JUMPDEST PUSH1 0x1F NOT DUP5 AND PUSH2 0x1A86 DUP7 PUSH2 0x1714 JUMP JUMPDEST PUSH1 0x0 JUMPDEST DUP3 DUP2 LT ISZERO PUSH2 0x1AAE JUMPI DUP5 DUP10 ADD MLOAD DUP3 SSTORE PUSH1 0x1 DUP3 ADD SWAP2 POP PUSH1 0x20 DUP6 ADD SWAP5 POP PUSH1 0x20 DUP2 ADD SWAP1 POP PUSH2 0x1A89 JUMP JUMPDEST DUP7 DUP4 LT ISZERO PUSH2 0x1ACB JUMPI DUP5 DUP10 ADD MLOAD PUSH2 0x1AC7 PUSH1 0x1F DUP10 AND DUP3 PUSH2 0x19D4 JUMP JUMPDEST DUP4 SSTORE POP JUMPDEST PUSH1 0x1 PUSH1 0x2 DUP9 MUL ADD DUP9 SSTORE POP POP POP JUMPDEST POP POP POP POP POP POP JUMP INVALID LOG2 PUSH5 0x6970667358 0x22 SLT KECCAK256 0xC6 GT 0xAD PUSH28 0x7AFE306B0D4D4EB5CFD696A58506F075056A454AF325E007E8E0DECB PUSH5 0x736F6C6343 STOP ADDMOD SLT STOP CALLER "
				},
				"gasEstimates": {
					"creation": {
						"codeDepositCost": "1386800",
						"executionCost": "1444",
						"totalCost": "1388244"
					},
					"external": {
						"Jobs(uint256)": "infinite",
						"applicationId()": "2429",
						"applyForJob(uint256,uint256,string,uint8,string)": "infinite",
						"getJob(uint256)": "infinite",
						"jobId()": "2495",
						"postJob(address,string,string,string,uint16,string,uint8,string,string)": "infinite"
					}
				},
				"methodIdentifiers": {
					"Jobs(uint256)": "2cc772f0",
					"applicationId()": "8ad10419",
					"applyForJob(uint256,uint256,string,uint8,string)": "b144f378",
					"getJob(uint256)": "bf22c457",
					"jobId()": "c2939d97",
					"postJob(address,string,string,string,uint16,string,uint8,string,string)": "e8b780cf"
				}
			},
			"storageLayout": {
				"storage": [
					{
						"astId": 34,
						"contract": "contracts/Job.sol:Job",
						"label": "JobList",
						"offset": 0,
						"slot": "0",
						"type": "t_mapping(t_uint256,t_struct(JobPosting)20_storage)"
					},
					{
						"astId": 40,
						"contract": "contracts/Job.sol:Job",
						"label": "jobApplications",
						"offset": 0,
						"slot": "1",
						"type": "t_mapping(t_uint256,t_array(t_struct(jobApplication)29_storage)dyn_storage)"
					},
					{
						"astId": 44,
						"contract": "contracts/Job.sol:Job",
						"label": "Jobs",
						"offset": 0,
						"slot": "2",
						"type": "t_array(t_struct(JobPosting)20_storage)dyn_storage"
					},
					{
						"astId": 46,
						"contract": "contracts/Job.sol:Job",
						"label": "jobId",
						"offset": 0,
						"slot": "3",
						"type": "t_uint256"
					},
					{
						"astId": 48,
						"contract": "contracts/Job.sol:Job",
						"label": "applicationId",
						"offset": 0,
						"slot": "4",
						"type": "t_uint256"
					}
				],
				"types": {
					"t_address": {
						"encoding": "inplace",
						"label": "address",
						"numberOfBytes": "20"
					},
					"t_array(t_struct(JobPosting)20_storage)dyn_storage": {
						"base": "t_struct(JobPosting)20_storage",
						"encoding": "dynamic_array",
						"label": "struct Job.JobPosting[]",
						"numberOfBytes": "32"
					},
					"t_array(t_struct(jobApplication)29_storage)dyn_storage": {
						"base": "t_struct(jobApplication)29_storage",
						"encoding": "dynamic_array",
						"label": "struct Job.jobApplication[]",
						"numberOfBytes": "32"
					},
					"t_mapping(t_uint256,t_array(t_struct(jobApplication)29_storage)dyn_storage)": {
						"encoding": "mapping",
						"key": "t_uint256",
						"label": "mapping(uint256 => struct Job.jobApplication[])",
						"numberOfBytes": "32",
						"value": "t_array(t_struct(jobApplication)29_storage)dyn_storage"
					},
					"t_mapping(t_uint256,t_struct(JobPosting)20_storage)": {
						"encoding": "mapping",
						"key": "t_uint256",
						"label": "mapping(uint256 => struct Job.JobPosting)",
						"numberOfBytes": "32",
						"value": "t_struct(JobPosting)20_storage"
					},
					"t_string_storage": {
						"encoding": "bytes",
						"label": "string",
						"numberOfBytes": "32"
					},
					"t_struct(JobPosting)20_storage": {
						"encoding": "inplace",
						"label": "struct Job.JobPosting",
						"members": [
							{
								"astId": 3,
								"contract": "contracts/Job.sol:Job",
								"label": "employer",
								"offset": 0,
								"slot": "0",
								"type": "t_address"
							},
							{
								"astId": 5,
								"contract": "contracts/Job.sol:Job",
								"label": "JobTitle",
								"offset": 0,
								"slot": "1",
								"type": "t_string_storage"
							},
							{
								"astId": 7,
								"contract": "contracts/Job.sol:Job",
								"label": "JobDescription",
								"offset": 0,
								"slot": "2",
								"type": "t_string_storage"
							},
							{
								"astId": 9,
								"contract": "contracts/Job.sol:Job",
								"label": "RequiredQualifications",
								"offset": 0,
								"slot": "3",
								"type": "t_string_storage"
							},
							{
								"astId": 11,
								"contract": "contracts/Job.sol:Job",
								"label": "Salary",
								"offset": 0,
								"slot": "4",
								"type": "t_uint16"
							},
							{
								"astId": 13,
								"contract": "contracts/Job.sol:Job",
								"label": "Location",
								"offset": 0,
								"slot": "5",
								"type": "t_string_storage"
							},
							{
								"astId": 15,
								"contract": "contracts/Job.sol:Job",
								"label": "minimumAge",
								"offset": 0,
								"slot": "6",
								"type": "t_uint8"
							},
							{
								"astId": 17,
								"contract": "contracts/Job.sol:Job",
								"label": "requiredSkill",
								"offset": 0,
								"slot": "7",
								"type": "t_string_storage"
							},
							{
								"astId": 19,
								"contract": "contracts/Job.sol:Job",
								"label": "LastDate",
								"offset": 0,
								"slot": "8",
								"type": "t_string_storage"
							}
						],
						"numberOfBytes": "288"
					},
					"t_struct(jobApplication)29_storage": {
						"encoding": "inplace",
						"label": "struct Job.jobApplication",
						"members": [
							{
								"astId": 22,
								"contract": "contracts/Job.sol:Job",
								"label": "applicantID",
								"offset": 0,
								"slot": "0",
								"type": "t_uint256"
							},
							{
								"astId": 24,
								"contract": "contracts/Job.sol:Job",
								"label": "name",
								"offset": 0,
								"slot": "1",
								"type": "t_string_storage"
							},
							{
								"astId": 26,
								"contract": "contracts/Job.sol:Job",
								"label": "age",
								"offset": 0,
								"slot": "2",
								"type": "t_uint8"
							},
							{
								"astId": 28,
								"contract": "contracts/Job.sol:Job",
								"label": "skill",
								"offset": 0,
								"slot": "3",
								"type": "t_string_storage"
							}
						],
						"numberOfBytes": "128"
					},
					"t_uint16": {
						"encoding": "inplace",
						"label": "uint16",
						"numberOfBytes": "2"
					},
					"t_uint256": {
						"encoding": "inplace",
						"label": "uint256",
						"numberOfBytes": "32"
					},
					"t_uint8": {
						"encoding": "inplace",
						"label": "uint8",
						"numberOfBytes": "1"
					}
				}
			},
			"userdoc": {
				"kind": "user",
				"methods": {},
				"version": 1
			}
		}
	}
}